:020000040000fa
:10a220006f4a26000eff27000e0188000000000084
:10a230000c00070020492900010020001d00070034
:10a24000000020000000e0000200320000000200d8
:10a250000000000028cc0200000000000040da00ee
:10a260000000fe00c0a920000000e0000200320053
:10a27000002020009001880000000600f03fb1009f
:10a280000180b10006003500ee0309000000000067
:10a29000403fb1000180b100fbff3d001000b00065
:10a2a000203fb000020035000080090000000000df
:10a2b00000000600a1028800800078000000eb008a
:10a2c0001a003700e280400054a0b4009101ba00a7
:10a2d000e280400054a0b4009102ba00e280400045
:10a2e00054a0b4000002eb00472bde00f507b200db
:10a2f000a6018800602ce10008003a000049eb004c
:10a300000201e800020039003420ec0002f0a00055
:10a310008301e900f9ff3e00040037006128e100f5
:10a32000010032000082eb00040007001101ba00b6
:10a330000200e000e3ff3a000000060004d0a300a2
:10a34000e20f49001c003900810278003549ba004b
:10a350000201e800020039003420ec0002f0a00005
:10a360008301e9000f0032002549ba000201e8002c
:10a37000020039003420ec0002f0a0008301e90063
:10a38000080032000400e0000600320015c9ba00df
:10a390000201e800020039003420ec0002f0a000c5
:10a3a0008301e9008180e80054a0b4000300e000cc
:10a3b000e2ff3a00000006009102ba000559780059
:10a3c0008301e900f7ff3200c82ade000559780052
:10a3d0008301e900f3ff32000400e000f1ff3200e6
:10a3e00011d9ba00eeff3700f08a04000000000027
:10a3f000028b040000000000148b04000000000029
:10a40000ba8a040000000000cc8a040000000000aa
:10a41000de8a040000000000268b0400000000001b
:10a420003a8b0400000000004c8b04000000000088
:10a43000cc80040000000000e08004000000000068
:10a44000f480040000000000088104000000000007
:10a450001a810400000000002e81040000000000aa
:10a460004081040000000000528104000000000050
:10a470006681040000000000947f040000000000da
:10a48000a67f040000000000b87f04000000000068
:10a49000ca7f040000000000dc7f04000000000010
:10a4a000ec7f040000000000fc7f040000000000be
:10a4b0000e800400000000001e8004000000000068
:10a4c0003080040000000000428004000000000012
:10a4d00054800400000000006680040000000000ba
:10a4e0007880040000000000888004000000000064
:10a4f0009880040000000000aa8004000000000012
:10a50000ba800400000000000acc04000000000033
:10a51000e48f040000000000f68f0400000000003b
:10a520000890040000000000ae8f0400000000004e
:10a53000c08f040000000000d28f04000000000063
:10a540001a900400000000002c900400000000009d
:10a5500040900400000000001c8604000000000081
:10a560002e860400000000003e860400000000006b
:10a570005086040000000000628604000000000015
:10a5800074860400000000008486040000000000bf
:10a5900096860400000000008c8504000000000086
:10a5a0009e85040000000000b0850400000000004b
:10a5b000c285040000000000468504000000000081
:10a5c00058850400000000006a85040000000000b7
:10a5d0007c85040000000000a88604000000000044
:10a5e000ba86040000000000ce86040000000000cf
:10a5f000e286040000000000d28504000000000094
:10a60000e685040000000000f8850400000000005a
:10a610000a86040000000000441704000100000046
:10a620004413040001000000c815040001000000ec
:10a63000be160400010000006015040001000000c7
:10a640004617040001000000c216040001000000cb
:10a650004817040001000000c616040001000000b5
:10a6600052130400010000001ecb04000000000093
:10a67000ce15040001000000ea13040001000000f0
:10a68000de13040001000000b81404000100000003
:10a6900068150400010000002a0504000100000004
:10a6a000ca160400010000004a170400010000005f
:10a6b000c21404000100000022ef040000000000aa
:10a6c000da160400010000009e0f040001000000e3
:10a6d000d415040001000000d6160400010000009b
:10a6e000ce16040001000000d21604000100000094
:10a6f0004e170400010000004c1704000100000088
:10a7000040c6040000000000141104000100000015
:10a710000ee0040000000000d61404000100000058
:10a720006013040001000000cc14040001000000cc
:10a730005217040001000000da15040001000000b7
:10a74000b40f0400010000005417040001000000d1
:10a750005017040001000000d0e6040000000000d3
:10a76000e8090400010000002c00040001000000c2
:10a7700070cf0400000000002e040400010000005f
:10a780006c170400010000007017040001000000b5
:10a7900064100400010000001edd04000000000041
:10a7a000801704000100000082170400010000006f
:10a7b000b60c040001000000321704000100000084
:10a7c0003617040001000000680a040001000000c0
:10a7d0008417040001000000861704000100000037
:10a7e000a00204000100000058f304000000000073
:10a7f000d20c0400010000008003040001000000ee
:10a8000032f2040000000000ee0c04000100000021
:10a81000fef00400000000008817040001000000a2
:10a82000d21004000100000002d304000000000068
:10a83000e8f304000000000052e8040000000000fb
:10a840009ce30400000000008609040001000000f1
:10a85000d01304000100000092f804000000000082
:10a8600018fb0400000000000005040001000000c7
:10a8700030c40400000000005400f800a102880069
:10a880008002780062004000e08048003549ba004c
:10a890003204e0000410a700100032008301e90038
:10a8a0000e0032002549ba003204e0000410a7006f
:10a8b0000a0032008301e900080032000408a30006
:10a8c000eeff320015c9ba003204e0000410a70000
:10a8d000020032008301e900e8ff3a005400f90069
:10a8e00000000600889fbe008004780010f58200fa
:10a8f0000000e00003003a00470007000000e0000d
:10a900000a00350010f582000900e00002003a005c
:10a9100000047800060037000004780009004000b9
:10a920003d0007000000e00001003d000084eb0056
:10a93000080078004f04be00000006000a00fa007c
:10a9400080017800e20f500028003e0020f58200d0
:10a95000e10f500008003200802320000000e000da
:10a960000500320004232000252320004623200078
:10a9700080017800040037000422200025222000f6
:10a980004622200083222000144090000004e000b2
:10a99000040035008009eb00144090000074a00012
:10a9a00010429800154090000028a30003003a00d0
:10a9b000154090000024a000904298008001eb0018
:10a9c00007003700154090000008a300fdff32008b
:10a9d00063c078000000fb00000b78008301e800f2
:10a9e000828f5100f7ff3a00080037003000200046
:10a9f000b0bf9f00c3bf9f00d1bf9f00e2bf9f00b9
:10aa00006a80570000c0da006fb997000200780032
:10aa10000080fa0000000600800078000000e000de
:10aa200004003a0060ea250010f58a000101780070
:10aa3000060037000081eb00604a2600808f50003e
:10aa400002003e0011f58a000001eb0002007800d0
:10aa500000000600881f7800000478005001be0046
:10aa60004000be0004004000858048000601490007
:10aa700087814900009cbe000294be000400e100f2
:10aa80000588e1000690e1000798e100020031002e
:10aa9000680044001008e8004f0478000000060039
:10aaa000f4874700889fbe008a9fbe008c9fbe002f
:10aab0008e1f78000205be000004be00d4b79f00c0
:10aac000e5b79f00f6b79f0087bf9f000000eb002f
:10aad000c0b79f00b0b79f00a0b79f0090b79f007e
:10aae00080b79f000d042000bfb097004fb09700c3
:10aaf000000140000000e0000f003d004f08de00b4
:10ab000000007100c0b79f009e00070001003d00db
:10ab100012002000a100070001003d0012002000eb
:10ab2000a6000700b1000700b60007000f004000b4
:10ab3000c8ff0700220037004f08de000006710042
:10ab4000ccb79f008f00070001003d0012002000dd
:10ab50009200070001003d0012002000970007004e
:10ab6000a20007000fb297009fb297002fb3970083
:10ab7000bfb39700a90007000000520081805a006f
:10ab800002015b0083815b0080b79f0091b79f004b
:10ab9000a2b79f00b3b79f000007eb009f0007001c
:10aba0000020e10001a8e10002b0e10003b8e100eb
:10abb000010031001e0020000e005600c0b79f00ab
:10abc0004fb297000400e00007003500100020009d
:10abd000010020006011b800080470008984700032
:10abe0000a0571008b8571008d06e900beff3a00f1
:10abf0000400e00003003d00820007000f00400059
:10ac000094ff07004fa897000000e00004003a00fe
:10ac10000fb497009fb497002fb59700bfb597006a
:10ac2000940007004f0778004f06be004f05be0096
:10ac30004f04be004f01b10000000600881f7800dd
:10ac400018002000881f780095ff07008f87e90013
:10ac50004f04780000000600801feb0090ff070003
:10ac60008f87e90000000600889fbe008a9fbe0013
:10ac70008c1f78006e00070007003d00730007007e
:10ac8000e00f5b00e08f5b0007003d003200070033
:10ac90000006eb00040037003400070002003d000e
:10aca0002a0007001c00200072000700e3ff0700d5
:10acb0000203be000002be000c00e00001003200f2
:10acc000220007000400be000601be004f06780007
:10acd0004f05be004f04be0000000600889fbe0066
:10ace0008a9fbe008c1f78005100070005003d00c0
:10acf00056000700e00f5b00e08f5b0006003d00a0
:10ad0000040037001900070003003d006000b80090
:10ad10006011b8001000070056000700ceff0700c2
:10ad20000203be000002be000c00e0000100320081
:10ad3000060007000400be000601be004f067800b2
:10ad40004f05be004f04be00000006006000b800c2
:10ad50006011b800000037000402500085825800de
:10ad60000603590087835900000006000006eb0027
:10ad7000e00f5200e08f5a00e00f5b00e08f5b00b5
:10ad8000000006000180400090b79f000001eb002a
:10ad90008fb097000100e000000006000200700084
:10ada00090b79f000180400080b79f000001eb003a
:10adb000ffa897000100e0000000060002007000fc
:10adc00080b79f00018040006faa9700cf20de006f
:10add00001007000f0af9f00040242002500070050
:10ade0004f18de000002720000000600e4af9f0072
:10adf0000804440089844c000a054d008b854d00f1
:10ae0000000006003fb29700cfb297005fb39700f3
:10ae1000efb3970000fe2f00000006003fb0970040
:10ae2000cfb097005fb19700efb197000000060028
:10ae30000205be000004be00e00f5000e08f580085
:10ae4000e00f5900e08f5900000006006000b800d4
:10ae50006011b80008045000898458000a055900a0
:10ae60008b8559001c002000e00f5200e08f5a0033
:10ae7000000006000800be000a01be000000060037
:10ae80008001eb000200370061f079008301e800e7
:10ae9000828f5100fcff3a00000006000400fa0017
:10aea000e0bf9f00e4815700812978000002eb0099
:10aeb0000f0037006fb89700904078007fb8970078
:10aec000104078000402e80080cf500004003200f7
:10aed0008180fb000080fb000080500007003700ed
:10aee0006fb897000000e800e0bf9f009309e800fa
:10aef000820f5200efff3a000000eb000080fa00e2
:10af0000000006000098be000298be000498be0033
:10af10000698be000898be000a98be000c98be00b5
:10af20000e18780064985700efb897000118780061
:10af3000ffb8970001187800000005000100e0004c
:10af400001003a0011002000010878007c00400058
:10af50003007be00b01f7800a01f780064005000ca
:10af60004006be004005be004004be004003be00d7
:10af70004002be004001be004000be0000000600ce
:10af80000c00fa00889fbe0000047800cfb0970044
:10af9000f0ff2700d0bf9f008004eb0099bf9f0007
:10afa00088bf9f00a8bf9f00200c2000b0bf9f005b
:10afb00078815700708057000b0107000fb8970089
:10afc000094878000fb8970008045000080078007e
:10afd0004f04be000080fa00000006008001eb0074
:10afe00002003700817178008301e800828f5100f0
:10aff000fcff3a0000000600800078003004e0000a
:10b00000feff3a00010050000000e90000000600c9
:10b010000003780080027800020278008001eb00d3
:10b02000080037000402e90063c07800805a780005
:10b030008301e8000004e00002003a008000eb0019
:10b0400006003700828f5100f6ff3a00fbff370001
:10b050000040eb0080f07a008100e800848f50000f
:10b06000fbff3a000600780000000600889fbe0043
:10b070008a9fbe008c9fbe0000017800a1e42500dd
:10b080001100e0000b003a00e0e4250050f28a00d5
:10b0900030f28a0071f28a0041f28a002140900069
:10b0a0000004a000a0409800614090000004a000af
:10b0b000e0409800e7004100c208de00c20cdd005d
:10b0c00044f282006dea2500604a26000d0550001a
:10b0d00022002000811f7800110009000205d8001d
:10b0e00000067800cf007800c308dd00e48540004a
:10b0f0008001eb0066ea2500a5e425000100370089
:10b1000001027800244090000008a30002003200f1
:10b110000a003700110a780094007800214090005e
:10b120000008a300fbff320009014200828f50009b
:10b1300002003900840f510046003100940078006d
:10b14000848f5000eeff3e00868f500002003900d1
:10b15000858f5000eaff390030f28200800f5200e4
:10b160004f003a00858f50004d003a008301e800ff
:10b17000e18f5100e2ff36008c8f5400040036004e
:10b180008a8f5400020031000b047800120037004f
:10b19000614ab8006151b900b0ff2f0001002000e2
:10b1a0000200500083805800800f5200818f5a00a7
:10b1b0000200350009047800070037000d805400b4
:10b1c000924a260002004000110009000a80d800bf
:10b1d0000a80b9000004780008007800c1fd07006b
:10b1e00080017800e10f40002d00320030f2820033
:10b1f0000308780032f2820064004100a24090000f
:10b20000808f5100020032000104a00001003700cd
:10b210000104a10021419800088041006400500011
:10b220008009780030f28a00a2e425000208780044
:10b2300031f28200214090000004a000a04098005c
:10b24000234090000004a100a04198000202780071
:10b25000a7ff370042f28a00828f500009003600b3
:10b260009200780040e42500a24190000348780055
:10b2700011f28a00140978008040eb0040f282004d
:10b280002140980040f28200000a7800244090009b
:10b290000004a00020429800640042000100370032
:10b2a0000000eb004f06be004f05be004f04be007d
:10b2b000000006006400500040f28a00a0409000a8
:10b2c0000104a1002140980000000600889fbe00f4
:10b2d0008a9fbe0000057800e401500013001000b2
:10b2e000c285de00234090000008a3000400320065
:10b2f00043f28a00234090000004a100a04198007e
:10b300000100780059ff0700000478000000e00009
:10b31000170032008a0f50001500320060b8970005
:10b3200008005000c284de00898f550001003600fd
:10b33000890578004259dd008a007800080078000d
:10b34000cffe07008a0f5400090031004248dd009b
:10b35000000044008a0f5000050036000a0050002b
:10b360000000440012f2820023f282000288be0034
:10b37000080078004f05be004f04be000000060024
:10b38000810178000002eb000b003700e4407800f8
:10b390000104e000030032000402e80093cf5000f3
:10b3a000040032008180fb001380fb00008050000d
:10b3b000000006008301e800820f5200f3ff3a000c
:10b3c000000005000000fa00cfb897006881570020
:10b3d00040d12500040007000080fa0000000600ac
:10b3e00041d12500b5023700fe874700889fbe0087
:10b3f0008a9fbe008c9fbe008e1f7800f0b79f0012
:10b400000107780082bf9f000000eb00a0b79f00fb
:10b410009f0237008006eb0050c2b30080cf50007f
:10b42000090032000100fb00ffb09700a3020700f3
:10b43000e10f400096023200afb097008100e800b3
:10b44000a1b79f00920237009e407800d0c2b3009f
:10b4500080cf50000c00320007003c006d405000cf
:10b4600080cf50000a0032006b40400080cf500077
:10b470000e003a000800370000c3b30080cf500030
:10b480000a003a00060037000d30a0000500370022
:10b490000d00a000030037000d10a00001003700d0
:10b4a0000d20a0000e07e800e7ff37000d18a300ed
:10b4b000010032000d00a1000d38a3000100320090
:10b4c0000d20a1000100fb0002fd2f000200400042
:10b4d000e90f50000e003e000002eb00c4b79f00d1
:10b4e00082017800cfb297006a28b9001e01fb00e4
:10b4f0000001410003014100c2b79f005e00fb0054
:10b5000003004000e90f50000b003e00f5ff37003c
:10b510000006eb00ccb79f00a0c2b30080cf500064
:10b5200005003a000fb89700c000780080bf9f0068
:10b53000c1b79f000e07e8000001eb00b2b79f0003
:10b54000e0c2b3009e4f100018003a000de0a000ca
:10b550008e00e80064405000914f1000020032005d
:10b56000010778000c0037000fba9700c40278007a
:10b5700084bf9f00b5b79f000e87e8000b0037001f
:10b580003fb697006a60b900000041000300400028
:10b59000b0b79f000e07e8001e01fb0003fd2f005f
:10b5a00003004100e90f5000f5ff3600be4078006f
:10b5b000e1d79f00c0c6b30080cf50002200320008
:10b5c0000f003c006940500080cf500077003200ef
:10b5d00004003c000104e000310232006b405000e6
:10b5e0000f00370040c6b30080cf500093003200f8
:10b5f0006540400080cf50008b003a008f0037003c
:10b6000030c7b30080cf50001a00320007003c0062
:10b610006440500080cf5000110032000040e8002c
:10b6200080cf500080003a000f00370050c7b300b1
:10b6300080cf5000800032006340400080cf500037
:10b6400079003a0009003700000028000d48a300e7
:10b6500001003a000001200080867600d3ff370009
:10b660000d60a000750037000d50a0000d70a00007
:10b67000720037008fb897004100780081bf9f00ab
:10b68000000478000000e00001003a00c8cd250069
:10b690008004eb00010037008104e8008900780095
:10b6a000088044001004e000fbff3a003fb197001f
:10b6b0000200e00003003200890f51000100310058
:10b6c000820478000002eb00e4af9f00cfb2970045
:10b6d000898f52000200360009805200e0af9f00bf
:10b6e0004368de00e10660001b003a000d067800aa
:10b6f00009003700ffb0970000022000ef010700ab
:10b70000e10f4000030032002fb097000000e80076
:10b71000a0b79f000c06e800efa89700810f560025
:10b72000f4ff3a000081eb00e2af9f000a0037000f
:10b73000880078003100fb0001047800ffb097001a
:10b74000de010700e10f4000030032002fb2970036
:10b750000402e800a4b79f000900e9008004780013
:10b76000e10f4000f2ff3a000006eb000d00e000a0
:10b770000a003a00c6013700ffb09700000220001f
:10b78000ce010700e10f400003003200afb2970086
:10b790008502e800a5b79f000c06e8006fa8970097
:10b7a000800f5600f4ff3a00b90137008fb89700b8
:10b7b0004100780081bf9f00cf80de00010178004a
:10b7c000820178000205be000004be000203be0034
:10b7d0000002be004822de00482edd000402760092
:10b7e000e4d79f000d48a3000a0032000404e000e3
:10b7f00008003200e14f42000600320071fd2f00c8
:10b800000180470004487800184098002900200073
:10b8100002003700f0d79f001900200072fd2f00b2
:10b8200002844700a1ff370064fd2f000484470015
:10b83000190020009dff37000d0cb3000d007800ab
:10b84000000cb20028003a000d00e00005003d00a9
:10b850008fba97004505be004504be0085bf9f0016
:10b86000140037000d48a3000b0032000fbe9700f4
:10b870004c00be008cbf9f004f89de00cf91de00e0
:10b880000002be0002037800820378000605be00b5
:10b890000404be00070037008fb89700410078000d
:10b8a00081bf9f0000047800cfc4de000905780046
:10b8b0008a057800e00f5400e08f5c00e00f5d0027
:10b8c000e08f5d001f003d003d00b3006000b80048
:10b8d0006011b80008045000898458000a05590016
:10b8e0008b855900170037000d00e00005003d0072
:10b8f0000fb997004205be004204be0082bf9f0000
:10b90000100037000d48a300070032000fba97005f
:10b910004400be0084bf9f006011b8000205be0055
:10b920000004be00070037008fba9700450078007a
:10b9300085bf9f0000047800090020000a00200055
:10b940000b0020003fb697000c00e00007003a0013
:10b95000e00f5400e08f5c00e00f5d00e08f5d00c1
:10b9600002003a0010002000b0b79f008d00780060
:10b97000010cb200e1b79f0000042000808f50004e
:10b980003000320003003c000100e00008003200fb
:10b9900040003700000820006fb19700800f510071
:10b9a00014003200000c2000800f510039003a00d2
:10b9b00014c0b30005ab25000b0037000400fb00ea
:10b9c0004300dd00050040005001be004000be0005
:10b9d0000040e10001c8e10002d0e10003d8e1002d
:10b9e0002b0039000442e800f44f5200f3ff3a0004
:10b9f0002700370000012000010020006011b8007e
:10ba000014c0b3000040e10001c8e10002d0e10031
:10ba100003d8e1001e003900450020000000d000de
:10ba20008180d2000281d2008381d2008502e900a8
:10ba3000faff3a000442e800f04f5200f1ff3a00ea
:10ba40001300370080002000010020006011b800c2
:10ba500014c0b3000040e10001c8e10002d0e100e1
:10ba600003d8e1000a0039003c0020000000d000ab
:10ba70008180d2000281d2008381d2000c06e900cd
:10ba8000faff3a000442e800f54f5200f1ff3a0095
:10ba9000e4d79f00efd097000100fb003fb1970073
:10baa000820f500002003d00e2d79f0004003700e3
:10bab0003fb29700800f520001003d00b0b79f00d9
:10bac000cfb297000500e0000400320063806600fa
:10bad000020032008502e900c5b79f000de8a3000f
:10bae0000b0032004fb697003fb09700800f560012
:10baf00003003c008000eb00c1b79f00040037004a
:10bb00004fb197003fb2970004015100c2b79f00a8
:10bb1000efd297000500fb000006eb00dcaf9f00b2
:10bb2000cfb09700808f500002003400008050009a
:10bb3000d0af9f000d28a30037003200e1806600df
:10bb40000d18a3000c003200d00220000100e0001c
:10bb500001003a000080e900ffb09700d70007001d
:10bb6000e10f40000e0032002fb197000201e80003
:10bb7000a2b79f000a0037000100e0000800320071
:10bb8000ffb0970000022000cc000700e10f40004a
:10bb9000030032002fb297000402e800a4b79f0010
:10bba000dfaa97000500e0000f0032000006eb005e
:10bbb000ffb0970000032000c0000700e10f400025
:10bbc000030032002fb097000000e800a0b79f00ec
:10bbd0000c06e800dfa89700810f5600f4ff3a003a
:10bbe0000001eb00d2af9f003fb29700c320dd0001
:10bbf00080aa25008080400091b79f004220dd0090
:10bc00006400500080b79f006320b900f0af9f0030
:10bc10006306500084003700dfaa97000500e000ab
:10bc200011003200688066000f003a0000067800bc
:10bc3000ffb0970000022000a0000700e10f4000c5
:10bc4000030032002fb097000000e800a0b79f006b
:10bc50000c06e800dfa89700810f5600f4ff3a00b9
:10bc60000001eb00d2af9f00e18066000d18a30039
:10bc70000c003200d00220000100e00001003a0078
:10bc80000080e900ffb097008c000700e10f400042
:10bc9000d5ff32002fb297000402e800a4b79f003e
:10bca000d1ff37000100e000cfff3200ffb0970066
:10bcb0000002200081000700e10f4000caff3200af
:10bcc000afb297008502e800a5b79f00c6ff370016
:10bcd00000042000efb09700808f50003100320048
:10bce00003003c000100e000080032003e00370085
:10bcf000000820006fb19700800f51001100320042
:10bd0000000c2000800f510037003a001fb0970050
:10bd10003002be002003be000800be000a01be00c3
:10bd2000c6fb0700a4002000050020006033b80017
:10bd3000c9fb070004c3b30004424000e4d79f00de
:10bd40002900370035ce2500d5b79f000d58a30038
:10bd500002003a0040cf2500d0b79f001400200019
:10bd6000050020006033b8008fb097008100e90023
:10bd7000050033000402d0008582d2000683d20081
:10bd80008783d200f9ff37000800be000a01be0019
:10bd9000aafb07006f0060005fb197006240780067
:10bda0001000370014002000050020006033b800a8
:10bdb0000c0078000000e900050033000402d00008
:10bdc0008582d2000683d2008783d200f9ff370034
:10bdd0000800be000a01be0098fb07006740600033
:10bde0000043b000e0d79f00efd097000100fb00b8
:10bdf000ffb0970031000700e10f40000300320060
:10be00002fb197000201e800a2b79f001fb2970070
:10be10006802520094b79f008fb29700e4825200ec
:10be200085b79f0063065600d0ff2f003fb19700f3
:10be30000090b9007faa9700000042006300500004
:10be4000800f5600a2ff3a000d38a3001000320008
:10be5000dfaa97000500e0000d0034000006eb00ab
:10be6000ffb097000002200014000700e10f40001f
:10be7000030032002fb097000000e800a0b79f0039
:10be80000c06e800dfa89700810f5600f4ff3a0087
:10be9000be407800e1d79f000104e0005dfd3a005c
:10bea0002fb097004f0778004f06be004f05be0029
:10beb0004f04be00ef01b10000000600889fbe00e5
:10bec0000001780001047800b10090000118a3007f
:10bed0003d0032000198a30003003a0018009000d2
:10bee0000000e00038003a000190a0003104980002
:10bef00082047800f90fb200180090000000e00002
:10bf000002003a0028009000000c7800ea8f5400ec
:10bf100006003a00380090000078a30003003a00c1
:10bf200088007800d0002000e4ff0700980090000f
:10bf300058009000808f50000b0032000100e80094
:10bf4000100498001800780009587800000c780058
:10bf500011c0b300c0e8250001487800ea8f540002
:10bf60000600320019003700880078000940780088
:10bf70001900070080047800140037003800900092
:10bf80000088a3001100320018019000a800900062
:10bf90004800900069fa070098009000810f500057
:10bfa00004003200380090000003b3003004980011
:10bfb0008084eb000000eb00100498002800900043
:10bfc000000c7800010037008084eb000900780045
:10bfd0004f04be00000006000200fa00889fbe0069
:10bfe000a0ff9f0001047800b10090008104780058
:10bff0000904b200020032000000fb0036003700e6
:10c000000118a30005003a000103b30031049800b1
:10c01000190498000080eb002f00370058009000b2
:10c020000000e00006003a004800900012002000e6
:10c03000e680570041fa07001904980024003700f1
:10c04000280090000000e00008003a0080e8250089
:10c0500020049800000c7800200020005004980074
:10c06000100498000130a0003104980018019000dd
:10c07000a80090004800900030fa070028009000c7
:10c08000000c78000080eb00100498001800780085
:10c09000aff8970001587800000c78002ff897004f
:10c0a000ea4f50000a003a00380090000088a300d0
:10c0b0000700320018019000a8009000480090008e
:10c0c0001efa070019049800a8009000010c7800df
:10c0d000aff897000100fb004f04be000080fa009b
:10c0e000000006003600f800809fbe00829fbe0060
:10c0f000849fbe00869fbe00881f78008ec0a90066
:10c1000082c4bf000068a3002800320080c4bf00c2
:10c110000068a300250032000004200000248800ed
:10c12000325b07000000e00007003200d057070034
:10c130006022b8000001eb00a1c0b3000000e000e5
:10c140000a003a0019003700265b07000000e000f3
:10c1500009003200bb5707000000e0001300320066
:10c160006022b8000001eb0091c0b3000040eb007a
:10c17000323107000d003700b0e682000000e00019
:10c180000a003200b0e682000000e900b0e68a0052
:10c19000b0e682000000e00004003a0082c4a9007a
:10c1a00090e682000000e80090e68a008cc4bf00a0
:10c1b0000068a3001b0032008ac4bf000068a3000f
:10c1c000180032008cc4a90000042000502488000c
:10c1d00091e6820070005000808f500002003a000b
:10c1e00000102000a0e58a006022b8000001eb00ea
:10c1f00011c0b3000040eb00103107006022b8000e
:10c200000001eb0031c0b3000040eb000b31070030
:10c210006022b8000001eb0071c0b3000040eb00e9
:10c22000063107008cc4bf000008a30013003200d1
:10c230008ac4bf000008a3001000320010002000d4
:10c24000502488008c04a9000004eb00a8e58a00b3
:10c250006022b80008017800884078000840780023
:10c26000f63007006022b8000801780041c0b30032
:10c2700008407800f13007005a5a07008044e20075
:10c2800007003d0082c4bf0001c8b3000140600048
:10c29000030032009b4407000008200000248800af
:10c2a00080c4bf000028a3000b00320082c4bf007e
:10c2b0000028a300080032008444e20004003d008e
:10c2c000575a0700e14f500001003a008d44070023
:10c2d000400020000024880080c4bf000038a30074
:10c2e0001600320082c4bf000038a30013003200e1
:10c2f0004e5a0700e14f50000e003a00b75a0700af
:10c300000000e0000b00320084c4bf006022b800cf
:10c310000001eb0051c0b3000038a30003003a0055
:10c320006022b8000001eb0061c0b3000040eb00e8
:10c33000c230070080002000002488008ac4bf00ab
:10c340000058a3000a0032008cc4bf000058a300ac
:10c35000070032006022b8000001eb00b1c0b3005a
:10c360000040eb00b5300700000220005024880098
:10c370008cc4bf000038a300cf0032008ac4bf00c5
:10c380000038a300cc0032008cc4bf000018a3000a
:10c39000080032008ac4bf000018a3000500320064
:10c3a000a0e682003058900063406000e14f5000ea
:10c3b000c1003a00e0cc25001044a1009224800086
:10c3c0008000200050248800a4e68200a458900039
:10c3d000f0248000ef8060006f006000808f5000cc
:10c3e000b4003a00020078000238a30005003200d1
:10c3f000c2c025000028a30006003a0082c0250024
:10c400000400370042c025000028a30001003a00c4
:10c4100002c0250000c023009200600000802000c0
:10c42000808f500037003a00f03f2000120160007a
:10c43000040890009408900002004000e08048004a
:10c44000000a9800110a98000000eb00700a98009a
:10c45000344090004300de00610060000004a20050
:10c460004300dd00b44090000134a10080c07000a2
:10c470003142980004589000f04f500008003200fc
:10c480008458900000c2b30080cf500004003200f6
:10c49000845890007040400080cf500032003a0035
:10c4a000040990009409900074009000010020009d
:10c4b000800f5100818f59007e0039006000b80064
:10c4c000000a9800110a98000a0037000409900039
:10c4d0009409900054009000e4009000800f5100f7
:10c4e000818f590073003900344090000004a0008f
:10c4f00030429800045890000040e800005a98002c
:10c500006c00370000c02000808f50000300320014
:10c5100000c02200808f50001b003a00f03f200036
:10c52000120160000408900094089000020040008e
:10c53000e0804800000a9800110a98000000eb0013
:10c54000700a9800344090004300de0061006000f3
:10c550000004a2004300dd00b44090000134a100bb
:10c5600080c07000314298003458900063406000f1
:10c57000e14f5000dcff320044009000800f51007a
:10c58000d9ff3900d1ff370000802200808f500092
:10c5900021003a00344090000044a000304298004e
:10c5a000740890000000e800700a98003458900069
:10c5b00063006000e10f5000cbff320003003c003d
:10c5c0000000e000080032003a003700e20f50009f
:10c5d00005003200e30f500036003a002458900066
:10c5e0000004e000c0ff3500344090000058a30074
:10c5f00030003200f408900004109000808f50004a
:10c600002c003600244090000064a00020429800d6
:10c6100070c1b3000700370000802300808f5000f6
:10c620000a003a00244090000054a00020429800e4
:10c6300010c1b300405a98000458900001cfb300d5
:10c6400001406000f040b300acff3700a440900010
:10c650008140e800ffc060002440900002ceb3009b
:10c660000240600001407000204298002440900089
:10c670007f006000f30f50000e0034002440900053
:10c680000064a0002042980030c1b300405a9800d6
:10c690000458900001cfb30001406000f040b300a7
:10c6a000005a9800f00f200070248800200020001d
:10c6b000502488007d2307008cc4bf000028a300fd
:10c6c0002c0032008ac4bf000028a30029003200d9
:10c6d000400020005024880042e682001b00370002
:10c6e000220090000000e00017003200a00090003f
:10c6f0000330200005102000f4ceb30010003700f6
:10c700005108900003006000830f500002003200c7
:10c71000850f500006003a00310090000000e00054
:10c7200003003200310090000000e900b0009800e2
:10c730003140900004406000b040980091007800c3
:10c740000100e000eeff3a00120178000200e00074
:10c75000e3ff3a00e0cc25001004a1001014a10072
:10c760001024a1001034a10000cd2500024878005b
:10c770004e2307008cc4bf000018a3004400320001
:10c780008ac4bf000018a30041003200e0cc25009d
:10c790001044a100a3e6820033589000634060007b
:10c7a000e14f500036003200a34090008140e80085
:10c7b000ffc060002340900002ceb3000240600042
:10c7c00001407000a0419800234090007f0060006d
:10c7d000f30f50002a0034008e44e20002003d00b6
:10c7e00000c2b300c05998008ec4bf000058a30017
:10c7f0000200320010c2b300c05998008ec4bf00be
:10c800000048a3000200320020c2b300c0599800c3
:10c810008ec4bf000038a3000200320030c2b30053
:10c82000c05998008ec4bf000028a3000200320047
:10c8300040c2b300c05998008ec4bf000018a300c6
:10c840000200320050c2b300c05998008ec4bf002d
:10c850000008a3000200320060c2b300c059980073
:10c86000234090000064a000a0419800035890006d
:10c8700001cfb30001406000f040b3008059980040
:10c88000f00f200070248800200020005024880031
:10c890004f0478004f03be004f02be004f01be00a0
:10c8a0004f00be003600f900004006000040da00ec
:04c8b0000000fe0086
:020000040000fa
:10a00000105104000000000056640400000000002d
:10a0100056640400000000005664040000000000c4
:10a0200056640400000000005664040000000000b4
:10a030005664040000000000d88304000000000003
:10a040005664040000000000566404000000000094
:10a05000b683040000000000566404000000000005
:10a060005664040000000000f09b040000000000a3
:10a07000566404000000000082910400000000000b
:10a0800024870400000000008a890400000000000a
:10a09000069a04000000000056640400000000005e
:10a0a000be8c0400000000005664040000000000a4
:10a0b00028b4040000000000566404000000000002
:10a0c0000c83040000000000ea820400000000008d
:10a0d0005664040000000000566404000000000004
:10a0e00056640400000000007a81040000000000b3
:10a0f00056640400000000004887040000000000cf
:10a10000688904000000000056640400000000009c
:10a11000a4910400000000009483040000000000eb
:10a12000728304000000000050830400000000005f
:10a130002e830400000000005664040000000000ac
:10a140005664040000000000566404000000000093
:10a150005664040000000000566404000000000083
:10a160005664040000000000e08c040000000000c1
:10a170005664040000000000566404000000000063
:10a180005664040000000000566404000000000053
:10a19000566404000000000008990400000000005c
:10a1a0005664040000000000566404000000000033
:10a1b00056640400000000006c87040000000000ea
:10a1c00046890400000000005664040000000000fe
:10a1d000028d04000000000056640400000000002e
:10a1e00090870400000000002489040000000000a3
:10a1f0005664040000000000c69104000000000046
:10a200005664040000000000c88204000000000042
:10a2100056640400000000007260040000000000aa
:020000040000fa
:10c8b400ff0a000011020000040300000c0b00003a
:10c8c400ff250000181700001619000014ff0000cf
:10c8d400ffff0000ffff0000ffff0000ffff00005c
:10c8e400ffff0000ff1500001a1300001b120000d8
:10c8f4001cff00000d0100000006000007080000f6
:10c9040009ff0000ffff0000ff0e00001d000000f3
:10c914006400000070000000580000008000000067
:10c924007fff000064000000700000005800000059
:10c9340002000000fdff0000640000007000000021
:10c944005800000004000000fbff00006800000025
:10c95400740000005c00000020000000dfff000005
:10c9640068000000740000005c000000400000004b
:10c97400bfff000068000000740000005c000000bd
:10c98400800000007fff00006800000074000000c9
:10c994005c00000000010000fffe000068000000d1
:10c9a400740000005c00000002000000fdff0000b5
:10c9b400620000006e00000056000000020000004b
:10c9c400fdff0000620000006e0000005600000041
:10c9d40001000000feff0000680000007400000079
:10c9e4005c00000004000000fbff00006800000081
:10c9f400740000005c00000008000000f7ff000065
:10ca040068000000740000005c00000010000000da
:10ca1400efff0000620000006e00000056000000fe
:10ca240000200000ffdf0000620000006e00000034
:10ca34005600000000400000ffbf0000620000003c
:10ca44006e0000005600000000800000ff7f000020
:10ca540064000000700000005800000001000000a5
:10ca6400feff00006a000000760000005e00000087
:10ca740010000000efff00006a00000076000000d4
:10ca84005e00000020000000dfff000068000000de
:10ca9400740000005c00000000040000fffb0000c4
:10caa40068000000740000005c0000000008000042
:10cab400fff7000068000000740000005c00000044
:10cac40000100000ffef0000680000007400000088
:10cad4005c00000000200000ffdf00006800000090
:10cae400740000005c00000000400000ffbf000074
:10caf40068000000740000005c000000008000007a
:10cb0400ff7f00006a000000760000005e00000065
:10cb140001000000feff00006a0000007600000033
:10cb24005e00000002000000fdff00006200000043
:10cb34006e0000005600000000010000fffe00002f
:10cb4400620000006e0000005600000000020000b9
:10cb5400fffd0000620000006e00000056000000af
:10cb640000040000fffb0000620000006e000000f3
:10cb74005600000000080000fff7000062000000fb
:10cb84006e00000056000000800000007fff0000df
:10cb9400620000006e00000056000000400000002b
:10cba400bfff0000620000006e000000560000009d
:10cbb40020000000dfff0000620000006e000000a3
:10cbc4005600000010000000efff000062000000ab
:10cbd4006e0000005600000008000000f7ff00008f
:10cbe400620000006e000000560000000400000017
:10cbf400fbff00006400000070000000580000000b
:10cc040000010000fffe000064000000700000004e
:10cc14005800000000020000fffd00006400000056
:10cc2400700000005800000000040000fffb00003a
:10cc340064000000700000005800000000080000bc
:10cc4400fff70000640000007000000058000000be
:10cc540000100000ffef00006400000070000000fe
:10cc64005800000000200000ffdf00006400000006
:10cc7400700000005800000000400000ffbf0000ea
:10cc840064000000700000005800000000800000f4
:10cc9400ff7f000066000000720000005a000000e0
:10cca40001000000feff0000620000006e000000b2
:10ccb4005600000000100000ffef0000d00200004a
:10ccc400e4040000d2020000d4020000d6020000f6
:10ccd400a21c00008a1c0000961c0000001000002a
:10cce400ffef0000e8020000ea040000ea0200008e
:10ccf400ec020000ee0200009c1c0000841c0000fa
:10cd0400901c000010000000efff0000e80200008b
:10cd1400ea040000ea020000ec020000ee02000057
:10cd24009c1c0000841c0000901c000020000000db
:10cd3400dfff0000d8020000e6040000da02000071
:10cd4400dc020000de020000a01c0000881c0000c1
:10cd5400941c000000010000fffe0000d802000047
:10cd6400e6040000da020000dc020000de0200003b
:10cd7400a01c0000881c0000941c0000000200009d
:10cd8400fffd0000d8020000e6040000da02000003
:10cd9400dc020000de020000a01c0000881c000071
:10cda400941c000000040000fffb0000d8020000f7
:10cdb400e6040000da020000dc020000de020000eb
:10cdc400a01c0000881c0000941c00000008000047
:10cdd400fff70000d8020000e6040000da020000b9
:10cde400dc020000de020000a01c0000881c000021
:10cdf400941c000001000000feff0000d0020000af
:10ce0400e4040000d2020000d4020000d6020000b4
:10ce1400a21c00008a1c0000961c000000200000d8
:10ce2400ffdf0000d0020000e4040000d202000092
:10ce3400d4020000d6020000a21c00008a1c0000dc
:10ce4400961c000000400000ffbf0000d802000054
:10ce5400e6040000da020000dc020000de0200004a
:10ce6400a01c0000881c0000941c000002000000ac
:10ce7400fdff0000d8020000e6040000da02000012
:10ce8400dc020000de020000a01c0000881c000080
:10ce9400941c000004000000fbff0000d802000006
:10cea400e6040000da020000dc020000de020000fa
:10ceb400a01c0000881c0000941c00000800000056
:10cec400f7ff0000d8020000e6040000da020000c8
:10ced400dc020000de020000a01c0000881c000030
:10cee400941c000010000000efff0000d8020000b6
:10cef400e6040000da020000dc020000de020000aa
:10cf0400a01c0000881c0000941c000020000000ed
:10cf1400dfff0000d8020000e6040000da0200008f
:10cf2400dc020000de020000a01c0000881c0000df
:10cf3400941c000040000000bfff0000d802000065
:10cf4400e6040000da020000dc020000de02000059
:10cf5400a01c0000881c0000941c0000800000003d
:10cf64007fff0000e8020000ea040000ea0200007b
:10cf7400ec020000ee0200009c1c0000841c000077
:10cf8400901c000001000000feff0000e802000009
:10cf9400ea040000ea020000ec020000ee020000d5
:10cfa4009c1c0000841c0000901c00000200000077
:10cfb400fdff0000e002000000000000e2020000ab
:10cfc400e4020000e60200009e1c0000861c000033
:10cfd400921c000001000000feff0000e0020000bf
:10cfe40000000000e2020000e4020000e60200008b
:10cff4009e1c0000861c0000921c00000200000021
:10d00400fdff0000e002000000000000e20200005a
:10d01400e4020000e60200009e1c0000861c0000e2
:10d02400921c000004000000fbff0000e00200006e
:10d0340000000000e2020000e4020000e60200003a
:10d044009e1c0000861c0000921c000008000000ca
:10d05400f7ff0000e002000000000000e202000010
:10d06400e4020000e60200009e1c0000861c000092
:10d07400921c000010000000efff0000e00200001e
:10d0840000000000e2020000e4020000e6020000ea
:10d094009e1c0000861c0000921c00002000000062
:10d0a400dfff0000e002000000000000e2020000d8
:10d0b400e4020000e60200009e1c0000861c000042
:10d0c400921c000040000000bfff0000e0020000ce
:10d0d40000000000e2020000e4020000e60200009a
:10d0e4009e1c0000861c0000921c000080000000b2
:10d0f4007fff0000f0020000ec040000f2020000d8
:10d10400f4020000f60200009a1c0000821c0000d9
:10d114008e1c000040000000bfff0000f002000071
:10d12400ec040000f2020000f4020000f602000029
:10d134009a1c0000821c00008e1c0000800000006d
:10d144007fff0000f0020000ec040000f202000087
:10d15400f4020000f60200009a1c0000821c000089
:10d164008e1c000000010000fffe0000f002000021
:10d17400ec040000f2020000f4020000f6020000d9
:10d184009a1c0000821c00008e1c0000000200009b
:10d19400fffd0000c8020000e2040000ca02000013
:10d1a400cc020000ce020000a41c00008c1c000075
:10d1b400981c000020000000dfff0000c8020000ef
:10d1c400e2040000ca020000cc020000ce0200000b
:10d1d400a41c00008c1c0000981c0000100000001f
:10d1e400efff0000c8020000e2040000ca020000d1
:10d1f400cc020000ce020000a41c00008c1c000025
:10d20400981c000008000000f7ff0000c80200009e
:10d21400e2040000ca020000cc020000ce020000ba
:10d22400a41c00008c1c0000981c000004000000da
:10d23400fbff0000c8020000e2040000ca02000074
:10d24400cc020000ce020000a41c00008c1c0000d4
:10d25400981c000002000000fdff0000c80200004e
:10d26400e2040000ca020000cc020000ce0200006a
:10d27400a41c00008c1c0000981c0000010000008d
:10d28400feff0000c8020000e2040000ca02000021
:10d29400cc020000ce020000a41c00008c1c000084
:10d2a400981c000040000000bfff0000c8020000fe
:10d2b400e2040000ca020000cc020000ce0200001a
:10d2c400a41c00008c1c0000981c000080000000be
:10d2d4007fff0000c8020000e2040000ca02000050
:10d2e400cc020000ce020000a41c00008c1c000034
:10d2f400981c000000010000fffe0000c8020000ae
:10d30400e2040000ca020000cc020000ce020000c9
:10d31400a41c00008c1c0000981c000000020000eb
:10d32400fffd0000c8020000e2040000ca02000081
:10d33400cc020000ce020000a41c00008c1c0000e3
:10d34400981c000000040000fffb0000c80200005d
:10d35400e2040000ca020000cc020000ce02000079
:10d36400a41c00008c1c0000981c00000008000095
:10d37400fff70000c8020000e2040000ca02000037
:10d38400cc020000ce020000a41c00008c1c000093
:10d39400981c000000100000ffef0000c80200000d
:10d3a400e2040000ca020000cc020000ce02000029
:10d3b400a41c00008c1c0000981c0000002000002d
:10d3c400ffdf0000c8020000e2040000ca020000ff
:10d3d400cc020000ce020000a41c00008c1c000043
:10d3e400981c000000400000ffbf0000c8020000bd
:10d3f400e2040000ca020000cc020000ce020000d9
:10d40400a41c00008c1c0000981c0000008000007c
:10d41400ff7f00000500000004000000030000007e
:10d4240002000000010000000000000006000000ef
:10d434000700000008000000090000000a000000c6
:10d444000b0000000c0000000d0000000e000000a6
:10d454000f0000002423000022210000201f0000f0
:10d464002526000027280000292a00002b2c000074
:10d474002d2e00002423000022210000201f000084
:10d484002526000027280000292a00002b2c000054
:10d494002d2e0000ffff0000ffff0000ffff000033
:10d4a400ffff0000ffff0000ffff00000008000076
:10d4b40009ff0000070a00000b0c00000d0e00001d
:10d4c4000f1000000304000005060000ffff000029
:10d4d400ffff0000131400001516000017180000c9
:10d4e400191a0000ffff0000ffff0000ffff00000b
:10d4f400ffff000011120000ffff00000102000006
:10d50400ffff0000ffff0000ffff0000ffff00001f
:10d51400ffff0000ffff0000ffff0000ffff00000f
:10d524001b1c00001d1e0000ffff0000ffff000089
:10d53400ffff0000000000000000000000000000e9
:10d5440000000000000000000000000000000000d7
:10d55400000000004e00000046f40000acea0000a9
:10d56400323100000000000045f40000b2ea00007f
:10d574003200000044f40000baea000043f4000062
:10d58400baea0000313200003100000048f4000023
:10d59400c4ea0000313200000000000042f4000040
:10d5a400ccea000041f40000b2ea000049f40000b3
:10d5b400b2ea0000423100003231000000000000f5
:10d5c40047f40000dcea00004231000000000000e3
:10d5d40040f40000e6ea00003400000031f40000ea
:10d5e400eeea00005300000030f40000f4ea00000a
:10d5f40025f40000b2ea000024f40000baea0000b6
:10d6040023f40000baea00003232000000000000f7
:10d6140022f4000006eb000021f40000b2ea00004e
:10d62400423200003200000026f4000012eb000039
:10d63400423200000000000020f400001aeb000059
:10d644003100000008f4000022eb000007f40000a1
:10d6540022eb000006f4000022eb000000000000b2
:10d6640005f4000030eb000004f4000030eb00008f
:10d6740003f4000022eb000002f4000022eb00009f
:10d6840001f4000030eb00000910000030eb000052
:10d694000510000030eb00000310000030eb000028
:10d6a40031310000000000006d0c000052eb00005e
:10d6b4006c0c000030eb0000560c000022eb000064
:10d6c4003145000000000000520c000062eb000035
:10d6d400450c000022eb000048320000000000006e
:10d6e400370c00006eeb000048000000360c000010
:10d6f40076eb0000323100003232000000000000fe
:10d70400330c00007ceb00002a0c000022eb00002c
:10d71400290c000030eb000033000000240c000052
:10d724008eeb0000200c000022eb00001a0c00001d
:10d7340022eb0000180c0000baea0000130c0000f1
:10d74400acea0000120c0000e6ea0000030c000042
:10d7540030eb00003434000000000000010c000035
:10d76400aceb00000d0800006eeb00000c0800009c
:10d7740076eb00000b080000e6ea00000908000050
:10d7840076eb0000483100003134000034340000ee
:10d794003400000007080000c4eb00004832000019
:10d7a400323200003200000003080000d0eb000019
:10d7b400420000001a040000daeb000042310000cd
:10d7c400313200000000000019040000e0eb00000a
:10d7d4001504000076eb0000483100000000000052
:10d7e40013040000eeeb00001104000076eb0000cf
:10d7f4000e040000daeb000042310000500000008b
:10d804000d040000feeb00000c040000daeb000045
:10d8140042500000000000000b0400000aec00006d
:10d824000a040000e6ea000009040000e6ea000039
:10d8340008040000daeb000006040000eeeb000030
:10d84400423200003131000032310000000000009b
:10d854000504000022ec00000204000030eb00008c
:10d8640033310000310000000104000032ec0000fc
:10d8740000910000e372000007960000e4750000c8
:10d884000e9f0000ed7c000009980000ea7b000078
:10d894001c8d0000ff6e00001b8a0000f869000068
:10d8a40012830000f160000015840000f667000098
:10d8b40038a90000db4a00003fae0000dc4d000048
:10d8c40036a70000d544000031a00000d243000078
:10d8d40024b50000c756000023b20000c051000068
:10d8e4002abb0000c95800002dbc0000ce5f000018
:10d8f40070e100009302000077e600009405000048
:10d904007eef00009d0c000079e800009a0b0000f7
:10d914006cfd00008f1e00006bfa000088190000e7
:10d9240062f300008110000065f400008617000017
:10d9340048d90000ab3a00004fde0000ac3d0000c7
:10d9440046d70000a534000041d00000a2330000f7
:10d9540054c50000b726000053c20000b0210000e7
:10d964005acb0000b92800005dcc0000be2f000097
:10d97400e071000003920000e776000004950000c7
:10d98400ee7f00000d9c0000e97800000a9b000077
:10d99400fc6d00001f8e0000fb6a00001889000067
:10d9a400f263000011800000f56400001687000097
:10d9b400d84900003baa0000df4e00003cad000047
:10d9c400d647000035a40000d140000032a3000077
:10d9d400c455000027b60000c352000020b1000067
:10d9e400ca5b000029b80000cd5c00002ebf000017
:10d9f4009001000073e200009706000074e5000047
:10da04009e0f00007dec0000990800007aeb0000f6
:10da14008c1d00006ffe00008b1a000068f90000e6
:10da24008213000061f000008514000066f7000016
:10da3400a83900004bda0000af3e00004cdd0000c6
:10da4400a637000045d40000a130000042d30000f6
:10da5400b425000057c60000b322000050c10000e6
:10da6400ba2b000059c80000bd2c00005ecf000096
:10da740025300000327800003a25000030320000e2
:10da8400783a000025300000327800003a25000082
:10da940030320000783a000025300000327800006f
:10daa4003a25000030320000780000000000000039
:10dab40000000000000000001000000080000000d2
:10dac400008000005f9b000034fb00004e49000012
:10dad4004c000000554900004e540000004900006d
:10dae4004e54000000550000554900004400000059
:10daf40053540000524900004e4700000042000009
:10db04004f4f00004c00000044450000530000004b
:10db14004445000041000000555200004c00000044
:10db240068ed00006ced000071ed000075ed000083
:10db34007aed000081ed000086ed00008aed000022
:10db44008eed000020200000202000000074000062
:10db54007970000065200000253500007320000066
:10db640028250000752900002c200000656c0000a9
:10db7400656d0000656e0000742000006c65000097
:10db84006e2000002532000075200000002c0000eb
:10db940020760000616c0000756500003a200000ea
:10dba400006c0000656e0000202500007520000058
:10dbb4002830000078250000303200007829000069
:10dbc4000a0000002c200000766100006c75000043
:10dbd400653a00002030000078250000303800004d
:10dbe4006c7800000a0000001c0000000100000026
:10dbf400010000000102000000000000000000001d
:10dc04000101000001020000010200000201000005
:10dc140002020000020200000000000001010000f6
:10dc240001000000020100000400000008010000df
:10dc340001010000010200000203000003010000d2
:10dc440001030000010200000203000002010000c1
:10dc540004000000030000000000000001020000b6
:10dc64000200000001010000494f0000494f00007c
:10dc740030330000333000000000000003050000d2
:10dc84001c1e0000080b0000210700000a200000f1
:10dc9400494f0000494f000030300000303300008d
:10dca400004900004f4900004f30000030300000b0
:10dcb40032000000494f0000494f0000303000009e
:10dcc40030310000000000000000000036000000b9
:10dcd40053000000110000001b00000000000000c1
:10dce40000000000000000006f0100002802000096
:10dcf40079000000b7000000a7020000fd03000047
:10dd0400e000000053010000001c000000000000bf
:10dd140000080000000c00000300000002000000e6
:10dd24002300000024000000250000000100000082
:10dd340001000000000000000000000000000000de
:10dd44004400000032320000003200003232000091
:10dd54003200000032320000440000003232000081
:10dd6400324400000032000000000000e8530000cc
:10dd7400ec530000f053000058f30000f853000087
:10dd8400fc53000032f2000004540000fef00000d6
:10dd940030310000323300003435000036370000e3
:10dda4003839000041420000434400004546000069
:10ddb40074630000703a000034350000343500000c
:10ddc40000000000001c0000000c0000000800001f
:10ddd400000400009d000000250000000d0000006c
:08dde40055530000420000004d
:020000040000fa
:10ddec000200fa00889fbe008a9fbe008c1f78003c
:10ddfc00a0e58200e10f400004003200a0e58200a3
:10de0c0090e68a000080eb00a0e58a0091e6820093
:10de1c0000f020008080600000202000808f5000e7
:10de2c00dc01320006003e000100e0000e00320072
:10de3c0000102000808f500000053a009a00370037
:10de4c0000402000808f50009c0432000010b00075
:10de5c00808f5000bd04320000302000808f5000b5
:10de6c00f6043a000b02370091e68200010fb20073
:10de7c00f08f50006000320003003e000100e00013
:10de8c0008003200ed04370000022000808f5000a3
:10de9c006300320070004000808f5000e7043a00ad
:10deac007f003700cd4707008001eb0050e6820071
:10debc0003087800a4cc2500140078001300980007
:10decc0094007800314090000024a000b0409800ed
:10dedc0094007800314090000014a000b0409800ed
:10deec0094007800314090000054a000b04098009d
:10defc00211c200050e68200011098000104200033
:10df0c0050e6820041009800140178006000b800cf
:10df1c00000998001109980050e6820023589800d7
:10df2c00140078000358980052e6820052089000c2
:10df3c00f1cf2f00010060005009980080c0eb0069
:10df4c0050e682001158980031c0b30080cd2500f6
:10df5c0001487800c0cb250003487800d0cb2500c1
:10df6c0003487800e0cb25000348780063e68a007c
:10df7c0043e68a0073e68a0063248800f10f2000d0
:10df8c0051248800c00820008224b6006f00500085
:10df9c0000248800832488007124880000c0250098
:10dfac004800de00c024880081002000a1248800e5
:10dfbc00a0002000a0248800a12488004003200099
:10dfcc008624b700200020003025880043258800d7
:10dfdc00b3248800aae4a900a0042000002588002e
:10dfec0090e6820001ff20000100600070004000fc
:10dffc0090e68a009104370080cb25001040780011
:10e00c00614060008d04320090e6820001ff200028
:10e01c00010060007000400090e68a008704370021
:10e02c008040eb00c1f79f0020c3b300d0f79f00e6
:10e03c0024002000050020006c8157009106200070
:10e04c0000c0eb004f4f07000000e0000f00320053
:10e05c0010002000402488008ec0a900f00f2f0073
:10e06c00ce20b60000502000ce20b7009ec0a800e5
:10e07c0090e6820001ff200001006000700040006b
:10e08c0090e68a008cc4a8006c04370080cb250075
:10e09c001004a1000001200090e68a0067043700fc
:10e0ac008cc4a8006504370091e68200010fb20011
:10e0bc0000022000808f50008f00320005003e00cf
:10e0cc000100e0000a003200f08f50005b043a00bf
:10e0dc001f00370000032000808f5000ed0032003d
:10e0ec0070004000808f500054043a002201370029
:10e0fc0090e682006f00600003003200e20f5000d7
:10e10c004e043a000c003700100020005024880008
:10e11c008c04a800b00f2000b0e68a000004200098
:10e12c000024880082c4a80090e682000000e80069
:10e13c0090e68a004104370090e6820001ff20003f
:10e14c00010060007000400090e68a003b0437003c
:10e15c0090e682006f046000e20f54005100320020
:10e16c00e40f54005a0032000800e00033043a0077
:10e17c0080e582000000e000020032004af4070053
:10e18c0088e58a0080002000b5f3070080e58a004e
:10e19c000000e00006003a0030c3b30001cc2500bb
:10e1ac00804878000050200090e68a002304370055
:10e1bc008040eb00c0cb250001487800d0cb250077
:10e1cc0001487800c3cc25000000eb0080097800e2
:10e1dc0032c0b30091cd250082487800d1002000d8
:10e1ec0051258800602588007025880080258800ce
:10e1fc0090258800a0258800b0258800c0258800bf
:10e20c00d0258800e0258800f025880000268800ad
:10e21c00102688002026880030268800402688009a
:10e22c009444e200080035001304a00000c8b300b9
:10e23c00e1cb25008048780000082000b02488003d
:10e24c00aae4a80006003700c0cc25001004a100e9
:10e25c00e0cb25000048eb009624ef00aae4a900cf
:10e26c009424a8009424a900c0cc25001044a1003b
:10e27c001054a10058520700545207009484a8006f
:10e28c0030032000b0e68a006d00400000248800b6
:10e29c0082c4a80090e682000000e80090e68a00a4
:10e2ac00e60337009484a9009404a800b000200071
:10e2bc00b0e68a00000420000024880082c4a80074
:10e2cc0090e682000000e80090e68a00db0337004d
:10e2dc00f000200060248800f00f200080248800cb
:10e2ec0090e6820001ff20000100600070004000f9
:10e2fc0090e68a00d103370090e682006f00600040
:10e30c00e10f50002100320003003900e20f5000f1
:10e31c00ca033a003400370070f482000000e000b9
:10e32c0003003200e0f307000000eb0070f48a00f9
:10e33c0081e5820000c8b3008048780060c0b3005b
:10e34c00904098000041eb00a240980010c0b30030
:10e35c00b0409800c2409800d240980080c0b300f2
:10e36c00e0409800f2409800840020008101780081
:10e37c000401780050e682008240070090e682009b
:10e38c000000e80090e68a00ac03370051e68200fa
:10e39c00314090000018a300a803320031409000d7
:10e3ac000008a3000e00320080e58200404090007f
:10e3bc00e94f500006003a0050c3b30001cc2500d1
:10e3cc00804878000050200090e68a009b033700bc
:10e3dc0090e682000000e80090e68a009703370080
:10e3ec00644607009503370080e582001080fb002f
:10e3fc001bf307008000780070f48a000000e00036
:10e40c0006003a0030c3b30001cc250080487800e8
:10e41c000050200090e68a008803370080e58200d7
:10e42c0090487800f04090008180fb0052e682001a
:10e43c00410198009cf307000000eb0080e58a0086
:10e44c0050e682004000900005f3070080e58a004a
:10e45c000000e00006003a0030c3b30001cc2500f8
:10e46c00804878000050200090e68a007303370043
:10e47c0031c0b30090cd25000148780090e68200b1
:10e48c0001ff2000010060007000400090e68a004f
:10e49c006a03370090e682006f006000e10f5000c5
:10e4ac001f00320003003900e20f500063033a00f2
:10e4bc0028003700e0cc2500104078007041600047
:10e4cc005e033a0081e5820000c8b3008048780002
:10e4dc0060c0b30090409800a240980010c0b300f8
:10e4ec00b0409800c2409800d240980070f482006e
:10e4fc0010407800e0409800f240980073f48200dd
:10e50c001382fb008200200050e682001d400700b1
:10e51c0090e682000000e80090e68a00470337008e
:10e52c0051e68200314090000018a30043033200f2
:10e53c00314090000008a3000400320090e68200f5
:10e54c000000e80090e68a003c033700094607000b
:10e55c003a03370031c0b30090cd25000148780054
:10e56c0090e6820001ff2000010060007000400076
:10e57c0090e68a00310337006632070090e682008d
:10e58c0001f02000010060000010b00090e68a004d
:10e59c002a03370090e68200000fb20027033a00ee
:10e5ac0090e682006f006000e10f50001c0032000a
:10e5bc0003003900e20f500020033a002500370019
:10e5cc00f3cb250010c0b3008049780081e58200b0
:10e5dc000041eb008248780050c0b3009040980096
:10e5ec0093417800a3409800b2409800c240980034
:10e5fc00d2409800e2409800f24098000002eb00f4
:10e60c00840178008200200050e68200bf3c0700a5
:10e61c0090e682000000e80090e68a0007033700cd
:10e62c0051e68200314090000018a3000303320031
:10e63c00314090000008a3000400320090e68200f4
:10e64c000000e80090e68a00fc023700c94507008c
:10e65c00fa023700c0cc2500104078006140600001
:10e66c004700dd00f2cb2500e1cb2500924870007d
:10e67c0031c0b30090cd25000148780090e68200af
:10e68c0001f02000010060000010b00090e68a004c
:10e69c00ea02370091e68200010fb200000220006e
:10e6ac00808f50008e00320005003e000100e0001b
:10e6bc000d003200f08f5000e0023a0021003700cc
:10e6cc0000042000808f5000600132007000400078
:10e6dc00808f50000302320000032000808f500016
:10e6ec00d6023a00c600370071f48200a0cd250096
:10e6fc0091509000014878000900370010049000f8
:10e70c0010007800e8f2070030e682000008eb0009
:10e71c0069cc250019007800e3f20700880c78001a
:10e72c0030e682000000e000f4ff3a0090e6820040
:10e73c0001ff2000010060007000400090e68a009c
:10e74c00be02370090e682006f006000e10f5000bf
:10e75c001d00320003003900e20f5000b7023a00ee
:10e76c002600370081e5820000c8b300804878009d
:10e77c0060c0b30090409800a0cd25001040e90087
:10e78c00a040980020c0b300b04098000041eb00be
:10e79c00c2409800d240980080c0b300e04098007e
:10e7ac00f240980084002000810178000401780078
:10e7bc0050e68200733f070090e682000000e800fc
:10e7cc0090e68a009d02370051e6820031409000ad
:10e7dc000018a30099023200314090000008a300f9
:10e7ec000400320090e682000000e80090e68a0007
:10e7fc00920237005f45070090023700600020004e
:10e80c0017f207000000e00006003a0030c3b30026
:10e81c0001cc2500804878000050200090e68a004a
:10e82c00860237000004780081e5820031409000b8
:10e83c004800dd00a14090008180fb0001004000f9
:10e84c0007f2070000017800000c78000000e000df
:10e85c0008003a000800780093f2070030c3b300b8
:10e86c0001cc2500804878000050200090e68a00fa
:10e87c007202370080e58200b0409000c808dd00cd
:10e88c00204090000080fb008080400021419800d7
:10e89c00c808de003141980060cc2500900078005b
:10e8ac0011049800080878001800780080f48a0099
:10e8bc00a0cd2500104078004044980031c0b30032
:10e8cc0090cd25000148780090e6820001ff2000e1
:10e8dc00010060007000400090e68a00570237008b
:10e8ec0090e682006f006000e10f500027003200bc
:10e8fc0003003900e20f500050023a00300037009c
:10e90c0081e5820000c8b3008048780060c0b30085
:10e91c0090409800a0cd25001040e900a040980040
:10e92c0020c0b300b04098000040eb00c0409800fd
:10e93c00d040980030e68200100078002040900013
:10e94c00e040980030e682001000780030409000e3
:10e95c00f040980030e6820090017800234090004f
:10e96c000080fb00334290004822dd000002720060
:10e97c008200200050e68200023f070090e68200f1
:10e98c000000e80090e68a002c02370051e6820075
:10e99c00314090000018a300280232003140900052
:10e9ac000008a3000400320090e682000000e8009a
:10e9bc0090e68a0021023700ee4407001f02370060
:10e9cc0031c0b30090cd250001487800a0cd2500c2
:10e9dc009040e9000148780003003200003120002b
:10e9ec0090e68a001502370090e6820001ff2000b5
:10e9fc00010060007000400090e68a000f023700b2
:10ea0c0090e682006f006000e10f5000420032007f
:10ea1c0005003900e20f500064003200e30f500093
:10ea2c0006023a0074003700e23b0700c0cb250019
:10ea3c00104178000204e00010003a0031e6820038
:10ea4c0091e58a00090037001000780080f48a00f4
:10ea5c00561807000000e0001a003a00d53b0700ea
:10ea6c0090e582001000900090e58a0090e582000d
:10ea7c000000e000f4ff3a001200370031e682009b
:10ea8c0091e58a0001003700910090000100e00040
:10ea9c000300320041409000824f5000faff3a00d0
:10eaac0091e58a009100780081f48a003f180700f4
:10eabc00000478000000e00002003a00bd3b0700b3
:10eacc0098e58a00c0cc25001040780064406000b6
:10eadc000d00320090e582000000e00006003a00d4
:10eaec0090e6820001ff20000100600070004000f1
:10eafc0090e68a00d101370090e682000000e80021
:10eb0c0090e68a00cd01370090e682000000e80014
:10eb1c0090e68a00c9013700c0cc250090407800ef
:10eb2c0064c160001b003a001024a00081e5820043
:10eb3c008248780032c0b3009240980010407800b0
:10eb4c006840600002003200a240980002003700ca
:10eb5c0040c0b300a04098000040eb00b0409800cb
:10eb6c00c0409800d0409800e0409800f0409800d9
:10eb7c000002eb00840178008200200050e6820045
:10eb8c00623b070090e682000000e80090e68a00f5
:10eb9c00aa01370090e6820001ff2000010060000e
:10ebac007000400090e68a00a401370051e6820014
:10ebbc00314090000018a300a001320031409000b9
:10ebcc000008a30009003200c0cc250010407800da
:10ebdc0068406000010032001450070090e682008b
:10ebec000000e80090e68a0094013700fa4f070015
:10ebfc00604407009101370030c0b30091cd25006f
:10ec0c008048780090e582000000e00006003a00a1
:10ec1c0090e6820001ff20000100600070004000bf
:10ec2c0090e68a008501370031c0b30090cd2500f5
:10ec3c000148780090e6820001ff2000010060008e
:10ec4c007000400090e68a007c01370090e582005d
:10ec5c000000e0009d003a0090e682006f0060002a
:10ec6c00e20f50003e00320005003e000000e000c4
:10ec7c0009003200e10f500070013a001c0037000f
:10ec8c00e40f50006c00320051003900e50f5000c9
:10ec9c006a013a007d00370081e5820000ccb300a8
:10ecac008048780030c3b300904098000041eb00de
:10ecbc00a2409800b2409800c2409800d240980000
:10eccc0020c0b300e0409800f240980024002000df
:10ecdc0043cc25008200200050e68200293e07002c
:10ecec0090e682000000e80090e68a0053013700ad
:10ecfc0051e68200314090000018a3004f01320011
:10ed0c00314090000008a3000f00320040cc2500d9
:10ed1c001000e00006003a0090e6820001ff20009f
:10ed2c00010060007000400090e68a00430137004b
:10ed3c000000eb00b0e58a0090e682000000e800dd
:10ed4c0090e68a003d01370090e6820001ff20002a
:10ed5c00010060007000400090e68a003701370027
:10ed6c0088e5820000c4b300004c78006c40500071
:10ed7c00104498000045eb002a4498003a4498004f
:10ed8c00b9e58200494498005a449800660644004c
:10ed9c0089844400ebb9210069807d0093f0070061
:10edac00004ee8007a4498001c82fb00e9817d004b
:10edbc00820020008800780050e68200d33a0700d9
:10edcc0090e682000000e80090e68a001b01370004
:10eddc0051e68200314090000018a3001701320068
:10edec00314090000008a3000d003200b0e5820015
:10edfc000000e800b0e58a00e60f500004003a007d
:10ee0c0090e682000000e80090e68a000b013700d3
:10ee1c0090e682000000e90090e68a0007013700c6
:10ee2c0090e6820001ff20000100600070004000ad
:10ee3c0090e68a000101370081e5820000c4b3002e
:10ee4c00804878006b405000904098000040eb00e8
:10ee5c00a0409800b0409800c0409800d040980066
:10ee6c00e0409800f04098000002eb00840178002c
:10ee7c008200200050e68200a43a070090e682004f
:10ee8c000000e80090e68a00ec00370051e68200b2
:10ee9c00314090000018a300e8003200314090008f
:10eeac000008a300030032000050200090e68a0006
:10eebc00e200370090e6820001ff200001006000b4
:10eecc007000400090e68a00dc00370090e682007b
:10eedc0001ff2000010060007000400090e68a00f5
:10eeec00d600370090e582000000e00006003a00f2
:10eefc0040c3b30001cc25008048780000502000ae
:10ef0c0090e68a00cd00370090e682006f0060002a
:10ef1c00e10f50001c00320005003900e20f5000d8
:10ef2c0026003200e30f5000c4003a002a003700dc
:10ef3c0081e582000041eb008248780090c0b3006c
:10ef4c0090409800c0cb250010407800a04098005d
:10ef5c00b2409800c2409800d2409800e24098001d
:10ef6c00f24098000002eb0084017800820020003f
:10ef7c0050e68200653a070090e682000000e80047
:10ef8c0090e68a00ad00370051e6820031409000d7
:10ef9c000018a300a9003200314090000008a30023
:10efac000400320090e682000000e80090e68a003f
:10efbc00a20037006f430700a000370031c0b30038
:10efcc0090cd25000148780090e682000000e80012
:10efdc0090e68a009900370090e6820001f020004c
:10efec00010060000010b00090e68a00c0cc250043
:10effc0001c4b30010c060001600320010cc250014
:10f00c00904078000180fb004300dd00a2f8210055
:10f01c0082014000600379008002eb00a4cb250044
:10f02c0023019000b3019000f0cb25001040780034
:10f03c00060001000000e00080003a0090c3b3001d
:10f04c0001cc2500804878000050200090e68a0012
:10f05c007a00370048e6820015003700f84090002f
:10f06c000180fb004300dd00a2f82100820140007a
:10f07c006003790088027800a4cb2500230190005e
:10f08c00b3019000f0cb2500104078000600010081
:10f09c000000e00005003a0090c3b30001cc25004d
:10f0ac00804878000050200090e68a001804780010
:10f0bc000800e000e9ff3a006000370090e68200ab
:10f0cc00000fb200f00f50005c003a0090e6820096
:10f0dc006f006000e30f50000e003200e50f50008f
:10f0ec0017003200e10f500054003a009444a8007d
:10f0fc0050012000b0e68a000004200000248800a3
:10f10c0082c4a80090e682000000e80090e68a0025
:10f11c004a0037009444a9009404a800b0002000d1
:10f12c00b0e68a00000420000024880082c4a800f5
:10f13c0090e682000000e80090e68a003f0037006d
:10f14c000040200090e68a003c00370092e68200e6
:10f15c00020fb20039003a0080002000a024880081
:10f16c0062248800f10f200051248800c008200080
:10f17c008224b6006f00500000248800822488008e
:10f18c00712488008c04a80000cc25001041780064
:10f19c0040c3b300804f51001400320007003e0002
:10f1ac00d1c6b300e74f5100180032000040e9000f
:10f1bc00804f51000b003a000800370051c6b300d5
:10f1cc0050c3b300804f5100100032006440400027
:10f1dc00804f510003003a000b003700f1c6b3001a
:10f1ec000a00370001c7b300080037006022b800de
:10f1fc000001eb0081c0b3000040eb000c250700c0
:10f20c00c1c6b30001003700e1c6b3008180fb002a
:10f21c00140020000500200022cc2500f0cb250096
:10f22c0010407800d74a070090e6820001ff2000ca
:10f23c00010060007000400090e68a004f067800e4
:10f24c004f05be004f04be000080fa00000006000f
:020000040000fa
:10f25c00889fbe008a9fbe008c1f780080027800b9
:10f26c000105780082047800030678008405780094
:10f27c00f61ce2001e003a00280420001844780016
:10f28c000884fb004544de0042c0bf007f406000a4
:10f29c000054a00042e0b7009580fb0060df2e0018
:10f2ac00614178000241e8000281fb008500780092
:10f2bc0080e3210029220700090178008a007800e8
:10f2cc0080e32100252207000b0178008c007800d8
:10f2dc0080e321002122070042c0bf004544dd002d
:10f2ec0042c0bf007f4060000840700042e0b700a1
:10f2fc004f0678004f05be004f04be00000006000c
:10f30c000200fa00889fbe0000047800b0e780007d
:10f31c00e20f500036003200e10f500007003a00b7
:10f32c00401ee20005003a0008007800944c0700eb
:10f33c0020002000b0e788002d00370007070700e9
:10f34c00200c0700bd090700b31a0700080078005d
:10f35c00834c07000000e00025003200210420004f
:10f36c00914078008180fb0042c0bf007f4060006c
:10f37c000054a00042e0b700c50cde00d1e78000cd
:10f38c000100e0000300320080e32100c6210700e9
:10f39c00fa3cef00a2cf2100e680570080e3210069
:10f3ac001e220700d0e780000000e0000a003400b5
:10f3bc00c1e78000810f500003003400d1e78800c2
:10f3cc000101780001003700d2e78000dfb8970018
:10f3dc00080078005a4c070042c0bf00c548dd0049
:10f3ec0042c0bf007f4060000140700042e0b700a7
:10f3fc004f04be000080fa0000000600881f780051
:10f40c0080017800f61ce20016003a002804200067
:10f41c00184478000884fb004544de0042c0bf005d
:10f42c007f4060000054a00042e0b7009380fb00d6
:10f43c0060df2e00614178000241e8000281fb0090
:10f44c008300780080e32100c421070042c0bf0084
:10f45c004544dd0042c0bf007f40600008407000a2
:10f46c0042e0b7004f04780000000600c0ca21003b
:10f47c00e2ff3700889fbe008a9fbe0080047800a0
:10f48c000205be00f61ce200410232003c023700cd
:10f49c0042e580006110b900800f5500818f5d003e
:10f4ac000d003900c0ca2100aa1cb40089007800e4
:10f4bc0070ee070042e58000828444006110b900c0
:10f4cc000005550081855d0002007800aa3cb4005f
:10f4dc00a83cef0009003700c0ca2100aa1cb400e8
:10f4ec000a0178008900780062ee07000a007800b3
:10f4fc00aa3cb400a83cb5006055b800a81ce200ba
:10f50c0023023a0030e58000e10f50000e0032007b
:10f51c0003003900e20f50001d023a002c003700a6
:10f52c001000200030e58800acdcbf000080fb0040
:10f53c0061e12e00e0c078000180fb0040e588000e
:10f54c000104e00012023a002000200030e588009f
:10f55c00acdcbf00f14f500009003200f44f5000fa
:10f56c00150032008040eb00ee4f500014003a00c2
:10f57c00addcbf00f043b2008040e8001000370063
:10f58c00aedcbf0006003b004600de006100600000
:10f59c00f1ca2100914078008140400008003700fa
:10f5ac00f2c3b300824060004600de0061006000e0
:10f5bc0080c0400002003700f1ca21009140780061
:10f5cc000180fb0040e588000104e000f0013a00f6
:10f5dc000000eb0030e588001100200041e58800b8
:10f5ec0050e58800acdcbf000080fb00010020006f
:10f5fc00ff0f5000e08f5800e1013e000060010059
:10f60c001f003700310037007a0137003200370015
:10f61c003e0037004800370054003700d80137004f
:10f62c006400370072003700810037009400370007
:10f63c0064013700a600370099003700ba00370084
:10f64c00fc003700c90037000e0137002e013700cf
:10f65c0038013700ca0137006901370074013700df
:10f66c0075013700760137007701370080013700cc
:10f67c0096013700a9013700ac013700b4013700ff
:10f68c00d1ca2100914078008180fb00aedcbf0024
:10f69c004800dd0001017000f1ca210091407800a2
:10f6ac008180fb00b0dcbf004800dd0081017000f0
:10f6bc0090f4240091f42400800f5100818f5900a4
:10f6cc00af013a0071120700b10137007112070047
:10f6dc0066ff0700ae013700d2ca21001241780044
:10f6ec008280fb00c209de00e0022000808f510006
:10f6fc00a3013c00610161008100d100e180600048
:10f70c000300780012110700a1013700d1ca2100b3
:10f71c00914078000180fb004201de00e0022000f5
:10f72c00800f510096013c00e180600002007800df
:10f73c00d61c070096013700d1ca210091407800f1
:10f74c000180fb004201de00e0022000800f51002e
:10f75c008b013c00e3806000e28f500088013c008c
:10f76c0002007800ab10070089013700d2ca2100d3
:10f77c00124178000280fb004200de00e102200012
:10f78c00810f50007e013c000208a30001003200f2
:10f79c0036ff0700addcbf00e10060000080fb001d
:10f7ac004200de00fe1b0700ad1cab0078013a00e6
:10f7bc002d013700addcbf0080017800f303b200ef
:10f7cc00e0022000808f51006d013c00aedcbf00d8
:10f7dc00ef006000e88f500069013c000081fb00e5
:10f7ec004711de0003007800e810070068013700bd
:10f7fc00d1ca2100914078004208de00ef01600080
:10f80c00e88f51005e013c0063816000aedcbf00fc
:10f81c000080fb00f1ca210091407800c808dd008f
:10f82c00808070000300780076390700580137009b
:10f83c00d2ca2100124178008280fb000100d10065
:10f84c00ef016000e88f51004d013c006101610047
:10f85c004708de000000400000017100aedcbf0074
:10f86c000080fb00f1ca210091407800c808dd003f
:10f87c00808070000300780047390700440137008e
:10f88c00d1ca210091407800e0c2b30080cf500073
:10f89c003b013e000180fb00871107003c01370053
:10f8ac00d1ca2100914078000180fb004600de00a7
:10f8bc00e30f500032013c0001017800f203b2006a
:10f8cc000201e800e1ca21000f06070030013700f1
:10f8dc00d1ca2100914078000180fb00c602de00f5
:10f8ec00e38f520026013c0063826000e20f52005d
:10f8fc0023013c00c201de004301de006101610016
:10f90c00aedcbf000080fb00f1ca21009140780002
:10f91c00c808dd0080807000e1816100050078007e
:10f92c00f70607001a013700addcbf0000027800b3
:10f93c00f403b200e0022000800f520010013c00e2
:10f94c00aedcbf00e3006000e38f50000c013c0014
:10f95c008081fb004619de0061016100c719de00e1
:10f96c00040078009310070009013700d1ca210068
:10f97c00914078000180fb00c603de00e28f53004b
:10f98c00ff003c0001037800f603b200e002200007
:10f99c00800f5300fa003c00e1ca2100914078002e
:10f9ac00f2c3b30002c060000040e8000104e000b4
:10f9bc00020035008041780002003700f3ca2100b4
:10f9cc00934178000168a30003003a000082fb0019
:10f9dc008000eb00090037000082fb00aedcbf00aa
:10f9ec000080fb004700de000080e800d1ca210047
:10f9fc0060c078000080fb0080005200aedcbf00cd
:10fa0c000080fb004701de004600de006100600064
:10fa1c0000014100f0ca2100000141008102780080
:10fa2c008381fb008600780007007800040b070038
:10fa3c00d7003700d2ca2100124178008280fb0027
:10fa4c004508de0063006000e20f5000cc003c0073
:10fa5c00e5ca2100954278008581fb000302d100a4
:10fa6c00c219de0067016100c308de00e38060009c
:10fa7c00e182620061026200e1816100910b07008a
:10fa8c00c3003700e1ca2100914078004208de0033
:10fa9c0063016000e20f5100b9003c008141780025
:10faac007cc06000e44f500005003200addcbf00ac
