:020000040000fa
:10a000001051040000000000386b04000000000044
:10a01000386b040000000000386b040000000000f2
:10a02000386b040000000000386b040000000000e2
:10a03000386b04000000000012a8040000000000bb
:10a040001c81040000000000386b040000000000c8
:10a0500040a80400000000004c8104000000000043
:10a0600068c104000000000050ae040000000000c1
:10a07000386b040000000000b0a3040000000000e2
:10a08000e4b204000000000012b30400000000006d
:10a09000f2ae040000000000386b04000000000075
:10a0a000fa9d040000000000386b0400000000006e
:10a0b00058dd040000000000386b040000000000c0
:10a0c00026a904000000000054a9040000000000bc
:10a0d0007c81040000000000ac810400000000004e
:10a0e000386b040000000000b8a704000000000066
:10a0f000386b04000000000040b3040000000000c2
:10a100006eb3040000000000386b04000000000083
:10a11000dea30400000000006ea8040000000000a0
:10a120009ca8040000000000caa804000000000071
:10a13000f8a8040000000000dc810400000000001a
:10a140000c820400000000003c82040000000000bb
:10a150006c82040000000000386b04000000000066
:10a16000386b040000000000289e0400000000007e
:10a17000386b040000000000386b04000000000091
:10a18000386b040000000000386b04000000000081
:10a19000386b040000000000a2ae040000000000c4
:10a1a000386b040000000000386b04000000000061
:10a1b000386b0400000000009cb3040000000000a5
:10a1c000cab3040000000000386b04000000000067
:10a1d000569e040000000000386b040000000000e0
:10a1e000f8b304000000000026b4040000000000e2
:10a1f000386b0400000000000ca404000000000004
:10a200009c8204000000000082a9040000000000fd
:10a21000386b040000000000be660400000000006f
:020000040000fa
:10a22000cf2c27000eff27000e0188000000000041
:10a23000000020000000e0000200320000012000c9
:10a24000200288000c00070020952b000100200050
:10a250000f000700000020000000e00002003200b4
:10a26000000002000000000016f5020000000000df
:10a270000040da000000fe0040bc20000000e000ca
:10a28000020032000020200090018800000006003b
:10a29000a1028800800078000000eb001a0037005f
:10a2a000e280400054a0b4009101ba00e280400076
:10a2b00054a0b4009102ba00e280400054a0b4005f
:10a2c0000002eb00472bde00f507b200a601880074
:10a2d000602ce10008003a000049eb000201e800b0
:10a2e000020039003420ec0002f0a0008301e900f4
:10a2f000f9ff3e00040037006128e1000100320050
:10a300000082eb00040007001101ba000200e00027
:10a31000e3ff3a000000060004d0a300e20f49006a
:10a320001c003900810278003549ba000201e800ba
:10a33000020039003420ec0002f0a0008301e900a3
:10a340000f0032002549ba000201e800020039007e
:10a350003420ec0002f0a0008301e9000800320084
:10a360000400e0000600320015c9ba000201e8004e
:10a37000020039003420ec0002f0a0008301e90063
:10a380008180e80054a0b4000300e000e2ff3a003e
:10a39000000006009102ba00055978008301e90027
:10a3a000f7ff3200c82ade00055978008301e90072
:10a3b000f3ff32000400e000f1ff320011d9ba00cf
:10a3c000eeff3700e4f4040000000000283f040022
:10a3d00001000000dc1e040001000000d640040063
:10a3e00001000000c239040001000000ec3f04003d
:10a3f00001000000e240040001000000de40040013
:10a4000001000000da400400010000005441040093
:10a4100001000000524104000100000064f3040048
:10a4200000000000c23d04000100000094fa040096
:10a4300000000000f23f040001000000d03d0400d5
:10a44000010000004e3e040001000000323f040005
:10a4500001000000943f0400010000001e320400cf
:10a4600001000000e6400400010000005641040025
:10a47000010000005c41040001000000923d040066
:10a4800001000000f83f040001000000ea40040061
:10a49000010000009c3f0400010000005a4104003c
:10a4a00001000000f24004000100000058410400d7
:10a4b00001000000ee400400010000007a3c0400ae
:10a4c00001000000f4100400010000005a3e0400e6
:10a4d00001000000de3d0400010000003c3f0400dc
:10a4e000010000006041040001000000fe3f040084
:10a4f000010000008c3c04000100000062410400e7
:10a50000010000005e41040001000000421404004c
:10a5100001000000c0370400010000000e2d0400ff
:10a52000010000005000040001000000343304006a
:10a5300001000000704104000100000072410400ad
:10a5400001000000223a04000100000078410400ec
:10a55000010000007a4104000100000030380400ce
:10a5600001000000424104000100000046410400d7
:10a5700001000000cc330400010000007c41040015
:10a58000010000003a3a040001000000d20c04006f
:10a590000100000094ff0400000000003af10400f4
:10a5a000000000008a1e040001000000181a0400c8
:10a5b00001000000e6120400010000001236040051
:10a5c00001000000403e04000100000012260400cb
:10a5d00001000000d027040001000000ca3104007f
:10a5e00001000000804104000100000082410400dd
:10a5f000010000004e300400010000001427040098
:10a6000001000000a0380400010000002230040016
:10a6100001000000682304000100000084380400e9
:10a6200001000000921d0400010000000098be001f
:10a630000298be000498be000698be000898be00ae
:10a640000a98be000c98be000e1878006498570057
:10a65000efb8970001187800ffb89700011878004c
:10a66000000005000a00fa00e20f500020003e0042
:10a6700040668300e10f5000060032008023200076
:10a680004523200023232000042320000000e000b5
:10a6900004003a00802220004522200023222000ce
:10a6a00004222000060028001403630003003a007f
:10a6b0000608780000002800140a700013a8a30000
:10a6c00001003a0013a0a000020078000500370046
:10a6d0001388a300feff32003102fb00840a7800d9
:10a6e0000000e9000000e000f9ff3a000800370030
:10a6f00033002000b3bf9f00c0bf9f00d1bf9f00a9
:10a70000e2bf9f006a805700990807006fb9970061
:10a71000020078000080fa0000000600889fbe005a
:10a7200080047800506683000000e00004003a00d6
:10a730000e0007000084eb000000e0000800350078
:10a74000586683000900e00005003200090044005b
:10a75000060007000000e00001003d000084eb005f
:10a76000080078004f04be0000000600800078005a
:10a770000100e00003003a00c0cc260050668b00c8
:10a78000000005000080eb00c22c2700828f5000e3
:10a7900002003e0051668b000000eb000000060046
:10a7a0005400f800a1028800800278006200400096
:10a7b000e08048003549ba003204e0000410a700e8
:10a7c000100032008301e9000e0032002549ba0072
:10a7d0003204e0000410a7000a0032008301e900ff
:10a7e000080032000408a300eeff320015c9ba00c9
:10a7f0003204e0000410a700020032008301e900e7
:10a80000e8ff3a005400f90000000600889fbe00ef
:10a810008a9fbe008c9fbe0041c52600a2628300b5
:10a820000200e0000b003a0064814000a2628b004d
:10a83000f2628b00a1009800e1628b002141900040
:10a840000204a000a2409800614190000204a00010
:10a85000e2409800670440004244de004244dd00cc
:10a86000e4628300c1cc2600c92c270081845400f7
:10a870002d002000110009008d04d800800678000a
:10a880000886e8000c0646008001eb000200370055
:10a89000130020000b027800a44090000108a300e0
:10a8a000020032000a003700120a78001401780012
:10a8b000a24090000108a300fbff32008800420084
:10a8c000810f5100020039000800e00042003d0005
:10a8d000940578000b00a100848f5500edff3e0029
:10a8e000e18f5100eaff3a008d0f5400020036005c
:10a8f000890f5400140039006141b8006148b90063
:10a90000b4ff2f00050020000000520081805a0093
:10a91000800f5100818f590002003500640544000a
:10a920000a003700c0cc2600fa2c2700000555008d
:10a9300008054500110009000985d8000980b90003
:10a9400000057800010037000c0578000a00780047
:10a9500072ff0700e10f400005003a006405440063
:10a960000a0078006dff0700e10f40002b00320065
:10a97000f162830080087800f1628300e481400086
:10a9800021419000830f5000020032000204a00019
:10a99000010037000204a100a240980064055500a0
:10a9a0000a0540000a087800fa628b0041c52600bb
:10a9b000010d7800f2628300a24090000104a00023
:10a9c00021419800a04090000104a100214098007e
:10a9d0008001eb00afff3700e1628b00810f510077
:10a9e000070036001101be0002638b0013638b0069
:10a9f000940878000041eb00e1628300a2409800d7
:10aa0000e3628300030a7800a44090000104a000e0
:10aa10002142980064004200010037000000eb0072
:10aa20004f06be004f05be004f04be0000000600ea
:10aa30000000e0000800320064005000e162830082
:10aa4000810f500001003100e0628b00a0409000b7
:10aa50000104a1002140980000000600e68747009d
:10aa60008e1f7800d0bf9f00e1bf9f000e0037000f
:10aa70005fba970014407800efb9970093407800d0
:10aa80000201e900814f5000040032000080fb0009
:10aa90008180fb00010050000600370066875700e8
:10aaa000041fe800030fe8000200e000f0ff3a0096
:10aab0000000eb004f0778006f00b10000000600b7
:10aac0008001780002003700b15978000201e900e6
:10aad0000200e000fcff3a00000006008001780060
:10aae00002003700815978000201e9000200e0000d
:10aaf000fcff3a00000006000001780082017800a7
:10ab0000030178003204e000fcff3a003141780094
:10ab1000825978000204e000fcff3a0000000600c1
:10ab2000800078003104e000feff3a000080ea0077
:10ab300000804000000006000a003700b0417800a5
:10ab40000304e000030032000201e900b1cf51002c
:10ab5000040032008381fb001480fb000080510060
:10ab600000000600010278000200e000f3ff3a0056
:10ab70000000050080017800060037000201e900ae
:10ab8000b142780085597800030278000504e0009e
:10ab900006003200030278000200e000f7ff3a00ee
:10aba00002003700005aeb000201e9000200e00059
:10abb000fcff3a000000060081b82600870337003a
:10abc0000c00fa00889fbe0000047800f0ff270008
:10abd000d0bf9f008004eb0099bf9f0088bf9f00fb
:10abe000a8bf9f00200c2000b0bf9f0078815700b5
:10abf000cfb0970070805700100007000fb8970083
:10ac0000094878008fb89700088050004f04be00b4
:10ac10000080fa0000000600d0019000028151007f
:10ac20004240a90003003400100178000149780077
:10ac30000208e80001007800000006002f02b000c2
:10ac4000889fbe008a9fbe008c9fbe008e1f78002a
:10ac500080067800d1af9f0092b79f000007eb00fd
:10ac600044033700dfa897008100e800d1af9f00c0
:10ac700051c2b300814f500003003a005fa8970013
:10ac80000006eb0011003700bd0090000000fb0043
:10ac90000168a300070032000e01780080007800f0
:10aca0000d007800dcff07000000e00005003a001e
:10acb000300337008d00780048030700e10f4000a3
:10acc0002c0332000e07e8002a03370080007800ca
:10acd00030417800d3c2b300834f51000c003200e2
:10ace00007003c00edc15100834f51000a003200c3
:10acf000ebc14100834f51000d003a0008003700be
:10ad000003c3b300834f510009003a000600370027
:10ad10000c30a000edff37000c00a000ebff370067
:10ad20000c10a000e9ff37000c20a000e7ff37005f
:10ad30000c18a300010032000c00a1000c38a30085
:10ad4000010032000c20a1000200fb000003b10052
:10ad5000e90f50000c003e00010178000000eb00fc
:10ad60006a00b900b201fb000303b100008041009a
:10ad7000820078009201fb000303b100e98f5100cb
:10ad8000f7ff3600080037000000eb00a3c2b30055
:10ad9000834f510004003a001fb197004200780031
:10ada00092b79f008100e8008001eb00a3b79f00ed
:10adb000e2c2b300914f11000c003a000ce0a00079
:10adc00064415100d14f11000300320001017800ad
:10add00003027800090037001fb29700c402780010
:10ade00094b79f00a5b79f008100e800010178009b
:10adf000090037006a22b90004824100820078000d
:10ae0000b201fb000303b100e98f5100f9ff3600e6
:10ae1000a4b79f00f5ff3700b2407800d2af9f0083
:10ae2000c3c6b30083cf5000250032000f003c00a2
:10ae300032c6b30082cf5000a000320004003c00b4
:10ae40000104e000d00232006b4151000f003700d6
:10ae500042c6b30082cf5000170032006541410066
:10ae600082cf5000b3003a001300370032c7b3005e
:10ae700082cf50001f00320007003c0064415100a7
:10ae800082cf5000140032000241e80082cf50000f
:10ae9000a8003a001300370052c7b30082cf500019
:10aea000ab0032006341410082cf5000a1003a0064
:10aeb000a1d79f000d003700a1d79f00a600370043
:10aec000010120000c48a30001003200010028000d
:10aed0000c867000d0ff3700a1d79f000c60a00047
:10aee0009d003700a1d79f000c50a0000c70a0005f
:10aef00099003700a1d79f009fb39700c700780043
:10af000097b79f00b1b79f000100e00002003a0030
:10af1000e9602600b9b79f003fb197008000eb00c1
:10af2000010037008100e800e2c178000304e0007e
:10af3000fcff3a00c1b79f002fb597000a00e00060
:10af400005003200cfb597008b0f5500020031008d
:10af50008a007800c1b79f00cfb097000004eb00d3
:10af6000810f5000010036000104500068066600a1
:10af70002b003a00110037003d0090000068a3004c
:10af8000070032000e017800010220000d00780059
:10af900021ff07000000e00006003a00060037002d
:10afa0008d007800000220008c020700e10f4000b5
:10afb000010032000e07e8000804e9000800e00084
:10afc000edff3a000084eb00150037003d009000d3
:10afd0000068a3000900320008007800b000fb0000
:10afe000000478000e0178000d0078000aff0700c9
:10aff0000000e00008003a000f00370088007800e9
:10b000003100fb00010478008d0078007302070016
:10b01000e10f4000080032000e07e800060037008c
:10b02000acb79f00080678003fb49700cfb49700f4
:10b030005fb59700efb59700090078008004e9003c
:10b040000000e000e1ff3a00b8b79f00c9b79f00d9
:10b05000dab79f00ebb79f000c0478002fb697007b
:10b060000c00e00043023200110037003d00900068
:10b070000068a300070032000e01780001022000e2
:10b080000d007800e4fe07000000e00006003a0032
:10b09000060037008d007800000220004f020700f4
:10b0a000e10f4000010032000e07e8000804e9004b
:10b0b0000800e000edff3a002e0237009fb2970033
:10b0c0004504780095b79f00cfc4de00614db900fc
:10b0d0000802be000a03be004822de00c828dd00c8
:10b0e00004827000a4d79f000c48a300090032001e
:10b0f0000404e00007003200e14f42000500320086
:10b10000b4d79f00c8d79f0022002000c2b79f007d
:10b1100003003700b8d79f0013002000c3b79f007b
:10b1200024fd2f000f0242000402e800b4b79f0084
:10b1300081ff3700a1d79f0025fd2f0085824700a2
:10b14000b5b79f0016002000c6b79f007aff3700f2
:10b15000a1d79f000c0cb3008c007800010cb2004a
:10b1600032003a000c00e00005003d009fb097005f
:10b170004105be004104be0091b79f0008003700a2
:10b180000c48a3000b0032001fb297004401be0020
:10b1900094b79f000204be004fcdde008a05780000
:10b1a000b8b79f00c9b79f00dab79f00ebb79f0001
:10b1b000090037009fb49700c900780099b79f0035
:10b1c000610ab900612bb900b4b79f00c5b79f00f1
:10b1d000d6b79f00e7b79f003fb49700cfb4970062
:10b1e0005fb59700efb59700e00f5400e08f5c006b
:10b1f000e00f5d00e08f5d0022003d003c00b300e9
:10b200006022b8006033b8000804520089845a00f4
:10b210000a055b008b855b00b8b79f00c9b79f002c
:10b22000dab79f00ebb79f00160037000c00e00074
:10b2300004003d001fb497004803be004802be0052
:10b24000050037000c48a300050032001fb497002a
:10b250004802be006033b80098b79f000500370071
:10b260009fb49700c900780099b79f00610ab800a1
:10b270006033b800b4b79f00c5b79f00d6b79f0032
:10b28000e7b79f00afb297000500e0000d003a005d
:10b2900016002000a6b79f003fb49700cfb49700d8
:10b2a0005fb59700efb59700e00f5400e08f5c00aa
:10b2b000e00f5d00e08f5d00020032008004eb00d3
:10b2c000a9b79f000c0578000a0cb2008ab79f004e
:10b2d00001042000810f55003400320003003c00bf
:10b2e0000a00e00008003200480037000108200092
:10b2f0008fb59700818f550014003200010c20009b
:10b30000818f550041003a00e261260011c0b30070
:10b310003202be003203be003fb49700cfb49700a4
:10b320005fb59700efb597000440e10005c8e10064
:10b3300006d0e10007d8e100330039008140e80081
:10b34000f4cf5000f2ff3a002f00370011c0b300d5
:10b3500004012000050020006033b8003fb49700ce
:10b36000cfb497005fb59700efb597000440e100b8
:10b3700005c8e10006d0e10007d8e100220039004d
:10b38000490020000402d0008582d2000683d2004a
:10b390008783d2008904e900faff3a008140e8007f
:10b3a000f0cf5000edff3a001700370011c0b30096
:10b3b00084002000050020006033b8003fb49700ef
:10b3c000cfb497005fb59700efb597000440e10058
:10b3d00005c8e10006d0e10007d8e1000a00390005
:10b3e000390020000402d0008582d2000683d200fa
:10b3f0008783d2008904e900faff3a008140e8001f
:10b40000f5cf5000edff3a00a1d79f002fd5970050
:10b410008a00fb00afb597008b8f500002003d0003
:10b42000abd79f00040037002fb19700810f510068
:10b4300001003d00a1b79f000000e00003003200c2
:10b44000e3006600010032000000e9000ce8a30000
:10b4500006003200afb19700830f500002003400a5
:10b4600003005000010037000000eb002fd29700ce
:10b470008400fb008002eb00f5af9f00810f5000bd
:10b480000200340081005000f1af9f000c28a3009f
:10b490003c003200610166000c18a3000f0032006e
:10b4a0003d0090000068a30006003200b1022000b9
:10b4b0000200e000010032008180e8000e01780007
:10b4c0000d003700b00220000200e0000100320051
:10b4d0000080e8008d0078000e0037000200e000d8
:10b4e000100032003d0090000068a3000700320009
:10b4f0000e017800010220000d007800c6fd070053
:10b500000000e00006003a00060037008d007800d9
:10b510000002200031010700e10f4000010032006d
:10b520000e07e8007fab97000600e00052003200f3
:10b53000060478003d0090000068a3000700320078
:10b540000e017800010320000d007800b2fd070015
:10b550000000e00006003a00060037008d00780089
:10b56000000320001d010700e10f40000100320030
:10b570000e07e8000804e900eeff3a00f8af9f006c
:10b580003d003700ffab97000700e00016003200d7
:10b590000c38a30014003a00070478003d00900026
:10b5a0000068a300070032000e01780001022000ad
:10b5b0000d00780098fd07000000e00006003a004a
:10b5c000060037008d00780000022000030107000c
:10b5d000e10f4000010032000e07e8000804e90016
:10b5e000eeff3a00f8af9f00610166000c18a3005f
:10b5f0000f0032003d0090000068a30006003200fa
:10b60000b10220000200e000010032008180e80069
:10b610000e0178000d003700b00220000200e000ab
:10b62000010032000080e8008d0078000e00370035
:10b630000200e000100032003d0090000068a3000e
:10b64000070032000e017800010220000d00780092
:10b6500071fd07000000e00006003a000600370018
:10b660008d00780000022000dc000700e10f4000a0
:10b67000010032000e07e8002fb497000800e9002f
:10b68000c204dd00c9af9f006301b9000205780064
:10b69000baaf9f004300dd006161260081004000d9
:10b6a000e1af9f0098003700afb597008b05e90028
:10b6b000abb79f00000420008fb09700808f500030
:10b6c0006800320003003c000100e0000800320086
:10b6d00073003700000820000fb19700800f510061
:10b6e0004c003200000c2000800f51006c003a002a
:10b6f0000c00e0001e003d00efa997003304be00df
:10b700002305be000802be000a03be003fb097003a
:10b71000cfb097005fb19700efb1970045050700e4
:10b72000a0d79f000000fb00cf80de006109b900b8
:10b730000802be000a03be00450507003fb297009d
:10b74000cfb297005fb39700efb3970000025200ab
:10b7500081825a0002035b0083835b00b4b79f00c1
:10b76000c5b79f00d6b79f00e7b79f0025003700f9
:10b770000c48a3001a0032003fb29700cfb29700e6
:10b780006fab97003604be002605be000801be0060
:10b790000400be00f4b79f0085bf9f007604070039
:10b7a000a0d79f000000fb00cf80de000801be0094
:10b7b000810407007fb297008fba97000002520001
:10b7c00081825a000404be006055b800b8b79f00db
:10b7d000c9b79f00dab79f00ebb79f000900370099
:10b7e000efac9700190178003fb5970011000900f0
:10b7f0000285d800a2002000110009000280d800b4
:10b80000a1d79f00afd597000b43b000abd79f00e7
:10b8100023003700d05f26000c58a300010032003f
:10b82000c05e26003fb29700cfb297005fb397008b
:10b83000efb39700cfa897008100e900050033001f
:10b840008703d1000683d3008582d3000482d3000e
:10b85000f9ff37006f02620060427a00a4d79f00b0
:10b860000f0037003fb09700cfb097005fb197004f
:10b87000efb197003faa97000402e90005003300ea
:10b880008301d1000281d3008180d3000080d300e6
:10b89000f9ff3700674060000043b000a0d79f0069
:10b8a000bd009000afd297000500fb000168a30027
:10b8b000070032000e017800800078000d0078004b
:10b8c000d5fc07000000e00005003a000500370045
:10b8d0008d00780041000700e10f400001003200b8
:10b8e0000e07e8004fab970064035300c6af9f00fc
:10b8f000bfab9700e3835300b7af9f006fac9700d7
:10b9000068045400e8af9f00afb497000900e0005e
:10b9100065ff3a000c38a300160032007fad970097
:10b920000a00e000130034000a0478003d00900093
:10b930000068a300070032000e0178000102200019
:10b940000d007800b4fc07000000e00006003a009b
:10b95000060037008d007800000220001f0007005d
:10b96000e10f4000010032000e07e8000804e90082
:10b97000eeff3a00dfad97001b407800a0d79f0094
:10b980000004e000b7fc3a000e0078004f07780092
:10b990004f06be004f05be004f04be002f02b1008f
:10b9a000000006000000fa0068815700cfb8970039
:10b9b00080b82600a1fc07000080fa000000060005
:10b9c0000000fa0068815700cfb8970080b82600c1
:10b9d0004e0007000080fa0000000600889fbe00ad
:10b9e00001047800b80090008084eb000118a300e7
:10b9f0003a003200180190000198a30002003a00ba
:10ba00000200e00035003a000190a00031049800e7
:10ba100080047800f90fb2000200e00002003a0052
:10ba200028009000000c7800ea8f540005003a00ce
:10ba30000178a30003003a0088007800d0002000bd
:10ba4000e6ff070018009000d8009000810f50001a
:10ba50000b0032000000e800100498001800780085
:10ba600009487800000ce80011c0b30080cb260024
:10ba700001487800ea8f540018003a0005003700aa
:10ba800088007800094078007a0307008004780075
:10ba900012003700380090000088a3000f00320029
:10baa00018019000a800900048009000edfa0700ef
:10bab00098009000810f5000040032003800900080
:10bac0000003b300300498008084eb000000eb001a
:10bad0001004980028009000000c780009007800fd
:10bae0004f04be0000000600d0019000028151000a
:10baf0004240a90003003400100178000149780099
:10bb00000208e80001007800000006002f02b000e3
:10bb1000889fbe008a9fbe008c9fbe008e1f78004b
:10bb200080067800d1af9f0092b79f000007eb001e
:10bb300044033700dfa897008100e800d1af9f00e1
:10bb400051c2b300814f500003003a005fa8970034
:10bb50000006eb0011003700bd0090000000fb0064
:10bb60000168a300070032000e0178008000780011
:10bb70000d007800dcff07000000e00005003a003f
:10bb8000300337008d00780094ff0700e10f40007c
:10bb90002c0332000e07e8002a03370080007800eb
:10bba00030417800d3c2b300834f51000c00320003
:10bbb00007003c00edc15100834f51000a003200e4
:10bbc000ebc14100834f51000d003a0008003700df
:10bbd00003c3b300834f510009003a000600370049
:10bbe0000c30a000edff37000c00a000ebff370089
:10bbf0000c10a000e9ff37000c20a000e7ff370081
:10bc00000c18a300010032000c00a1000c38a300a6
:10bc1000010032000c20a1000200fb000003b10073
:10bc2000e90f50000c003e00010178000000eb001d
:10bc30006a00b900b201fb000303b10000804100bb
:10bc4000820078009201fb000303b100e98f5100ec
:10bc5000f7ff3600080037000000eb00a3c2b30076
:10bc6000834f510004003a001fb197004200780052
:10bc700092b79f008100e8008001eb00a3b79f000e
:10bc8000e2c2b300914f11000c003a000ce0a0009a
:10bc900064415100d14f11000300320001017800ce
:10bca00003027800090037001fb29700c402780031
:10bcb00094b79f00a5b79f008100e80001017800bc
:10bcc000090037006a22b90004824100820078002e
:10bcd000b201fb000303b100e98f5100f9ff360008
:10bce000a4b79f00f5ff3700b2407800d2af9f00a5
:10bcf000c3c6b30083cf5000250032000f003c00c4
:10bd000032c6b30082cf5000a000320004003c00d5
:10bd10000104e000d00232006b4151000f003700f7
:10bd200042c6b30082cf5000170032006541410087
:10bd300082cf5000b3003a001300370032c7b3007f
:10bd400082cf50001f00320007003c0064415100c8
:10bd500082cf5000140032000241e80082cf500030
:10bd6000a8003a001300370052c7b30082cf50003a
:10bd7000ab0032006341410082cf5000a1003a0085
:10bd8000a1d79f000d003700a1d79f00a600370064
:10bd9000010120000c48a30001003200010028002e
:10bda0000c867000d0ff3700a1d79f000c60a00068
:10bdb0009d003700a1d79f000c50a0000c70a00080
:10bdc00099003700a1d79f009fb39700c700780064
:10bdd00097b79f00b1b79f000100e00002003a0052
:10bde000896d2600b9b79f003fb197008000eb0036
:10bdf000010037008100e800e2c178000304e000a0
:10be0000fcff3a00c1b79f002fb597000a00e00081
:10be100005003200cfb597008b0f550002003100ae
:10be20008a007800c1b79f00cfb097000004eb00f4
:10be3000810f5000010036000104500068066600c2
:10be40002b003a00110037003d0090000068a3006d
:10be5000070032000e017800010220000d0078007a
:10be600021ff07000000e00006003a00060037004e
:10be70008d00780000022000d8fe0700e10f40008e
:10be8000010032000e07e8000804e9000800e000a5
:10be9000edff3a000084eb00150037003d009000f4
:10bea0000068a3000900320008007800b000fb0021
:10beb000000478000e0178000d0078000aff0700ea
:10bec0000000e00008003a000f003700880078000a
:10bed0003100fb00010478008d007800bffe0700f0
:10bee000e10f4000080032000e07e80006003700ae
:10bef000acb79f00080678003fb49700cfb4970016
:10bf00005fb59700efb59700090078008004e9005d
:10bf10000000e000e1ff3a00b8b79f00c9b79f00fa
:10bf2000dab79f00ebb79f000c0478002fb697009c
:10bf30000c00e00043023200110037003d00900089
:10bf40000068a300070032000e0178000102200003
:10bf50000d007800e4fe07000000e00006003a0053
:10bf6000060037008d007800000220009bfe0700cd
:10bf7000e10f4000010032000e07e8000804e9006c
:10bf80000800e000edff3a002e0237009fb2970054
:10bf90004504780095b79f00cfc4de00614db9001d
:10bfa0000802be000a03be004822de00c828dd00e9
:10bfb00004827000a4d79f000c48a300090032003f
:10bfc0000404e00007003200e14f420005003200a7
:10bfd000b4d79f00c8d79f0022002000c2b79f009f
:10bfe00003003700b8d79f0013002000c3b79f009d
:10bff00024fd2f000f0242000402e800b4b79f00a6
:10c0000081ff3700a1d79f0025fd2f0085824700c3
:10c01000b5b79f0016002000c6b79f007aff370013
:10c02000a1d79f000c0cb3008c007800010cb2006b
:10c0300032003a000c00e00005003d009fb0970080
:10c040004105be004104be0091b79f0008003700c3
:10c050000c48a3000b0032001fb297004401be0041
:10c0600094b79f000204be004fcdde008a05780021
:10c07000b8b79f00c9b79f00dab79f00ebb79f0022
:10c08000090037009fb49700c900780099b79f0056
:10c09000610ab900612bb900b4b79f00c5b79f0012
:10c0a000d6b79f00e7b79f003fb49700cfb4970083
:10c0b0005fb59700efb59700e00f5400e08f5c008c
:10c0c000e00f5d00e08f5d0022003d003c00b3000a
:10c0d0006022b8006033b8000804520089845a0016
:10c0e0000a055b008b855b00b8b79f00c9b79f004e
:10c0f000dab79f00ebb79f00160037000c00e00096
:10c1000004003d001fb497004803be004802be0073
:10c11000050037000c48a300050032001fb497004b
:10c120004802be006033b80098b79f000500370092
:10c130009fb49700c900780099b79f00610ab800c2
:10c140006033b800b4b79f00c5b79f00d6b79f0053
:10c15000e7b79f00afb297000500e0000d003a007e
:10c1600016002000a6b79f003fb49700cfb49700f9
:10c170005fb59700efb59700e00f5400e08f5c00cb
:10c18000e00f5d00e08f5d00020032008004eb00f4
:10c19000a9b79f000c0578000a0cb2008ab79f006f
:10c1a00001042000810f55003400320003003c00e0
:10c1b0000a00e000080032004800370001082000b3
:10c1c0008fb59700818f550014003200010c2000bc
:10c1d000818f550041003a00826e260011c0b300e5
:10c1e0003202be003203be003fb49700cfb49700c6
:10c1f0005fb59700efb597000440e10005c8e10086
:10c2000006d0e10007d8e100330039008140e800a2
:10c21000f4cf5000f2ff3a002f00370011c0b300f6
:10c2200004012000050020006033b8003fb49700ef
:10c23000cfb497005fb59700efb597000440e100d9
:10c2400005c8e10006d0e10007d8e100220039006e
:10c25000490020000402d0008582d2000683d2006b
:10c260008783d2008904e900faff3a008140e800a0
:10c27000f0cf5000edff3a001700370011c0b300b7
:10c2800084002000050020006033b8003fb4970010
:10c29000cfb497005fb59700efb597000440e10079
:10c2a00005c8e10006d0e10007d8e1000a00390026
:10c2b000390020000402d0008582d2000683d2001b
:10c2c0008783d2008904e900faff3a008140e80040
:10c2d000f5cf5000edff3a00a1d79f002fd5970072
:10c2e0008a00fb00afb597008b8f500002003d0025
:10c2f000abd79f00040037002fb19700810f51008a
:10c3000001003d00a1b79f000000e00003003200e3
:10c31000e3006600010032000000e9000ce8a30021
:10c3200006003200afb19700830f500002003400c6
:10c3300003005000010037000000eb002fd29700ef
:10c340008400fb008002eb00f5af9f00810f5000de
:10c350000200340081005000f1af9f000c28a300c0
:10c360003c003200610166000c18a3000f0032008f
:10c370003d0090000068a30006003200b1022000da
:10c380000200e000010032008180e8000e01780028
:10c390000d003700b00220000200e0000100320072
:10c3a0000080e8008d0078000e0037000200e000f9
:10c3b000100032003d0090000068a300070032002a
:10c3c0000e017800010220000d007800c6fd070074
:10c3d0000000e00006003a00060037008d007800fb
:10c3e000000220007dfd0700e10f40000100320047
:10c3f0000e07e8007fab97000600e0005200320015
:10c40000060478003d0090000068a3000700320099
:10c410000e017800010320000d007800b2fd070036
:10c420000000e00006003a00060037008d007800aa
:10c430000003200069fd0700e10f40000100320009
:10c440000e07e8000804e900eeff3a00f8af9f008d
:10c450003d003700ffab97000700e00016003200f8
:10c460000c38a30014003a00070478003d00900047
:10c470000068a300070032000e01780001022000ce
:10c480000d00780098fd07000000e00006003a006b
:10c49000060037008d007800000220004ffd0700e5
:10c4a000e10f4000010032000e07e8000804e90037
:10c4b000eeff3a00f8af9f00610166000c18a30080
:10c4c0000f0032003d0090000068a300060032001b
:10c4d000b10220000200e000010032008180e8008b
:10c4e0000e0178000d003700b00220000200e000cd
:10c4f000010032000080e8008d0078000e00370057
:10c500000200e000100032003d0090000068a3002f
:10c51000070032000e017800010220000d007800b3
:10c5200071fd07000000e00006003a000600370039
:10c530008d0078000002200028fd0700e10f400078
:10c54000010032000e07e8002fb497000800e90050
:10c55000c204dd00c9af9f006301b9000205780085
:10c56000baaf9f004300dd00016e2600810040004d
:10c57000e1af9f0098003700afb597008b05e90049
:10c58000abb79f00000420008fb09700808f500051
:10c590006800320003003c000100e00008003200a7
:10c5a00073003700000820000fb19700800f510082
:10c5b0004c003200000c2000800f51006c003a004b
:10c5c0000c00e0001e003d00efa997003304be0000
:10c5d0002305be000802be000a03be003fb097005c
:10c5e000cfb097005fb19700efb1970091010700be
:10c5f000a0d79f000000fb00cf80de006109b900da
:10c600000802be000a03be00910107003fb2970076
:10c61000cfb297005fb39700efb3970000025200cc
:10c6200081825a0002035b0083835b00b4b79f00e2
:10c63000c5b79f00d6b79f00e7b79f00250037001a
:10c640000c48a3001a0032003fb29700cfb2970007
:10c650006fab97003604be002605be000801be0081
:10c660000400be00f4b79f0085bf9f00c200070012
:10c67000a0d79f000000fb00cf80de000801be00b5
:10c68000cd0007007fb297008fba970000025200da
:10c6900081825a000404be006055b800b8b79f00fc
:10c6a000c9b79f00dab79f00ebb79f0009003700ba
:10c6b000efac9700190178003fb597001100090011
:10c6c0000285d800a2002000110009000280d800d5
:10c6d000a1d79f00afd597000b43b000abd79f0009
:10c6e00023003700706c26000c58a30001003200b4
:10c6f000606b26003fb29700cfb297005fb3970000
:10c70000efb39700cfa897008100e9000500330040
:10c710008703d1000683d3008582d3000482d3002f
:10c72000f9ff37006f02620060427a00a4d79f00d1
:10c730000f0037003fb09700cfb097005fb1970070
:10c74000efb197003faa97000402e900050033000b
:10c750008301d1000281d3008180d3000080d30007
:10c76000f9ff3700674060000043b000a0d79f008a
:10c77000bd009000afd297000500fb000168a30048
:10c78000070032000e017800800078000d0078006c
:10c79000d5fc07000000e00005003a000500370066
:10c7a0008d0078008dfc0700e10f40000100320091
:10c7b0000e07e8004fab970064035300c6af9f001d
:10c7c000bfab9700e3835300b7af9f006fac9700f8
:10c7d00068045400e8af9f00afb497000900e00080
:10c7e00065ff3a000c38a300160032007fad9700b9
:10c7f0000a00e000130034000a0478003d009000b5
:10c800000068a300070032000e017800010220003a
:10c810000d007800b4fc07000000e00006003a00bc
:10c82000060037008d007800000220006bfc070036
:10c83000e10f4000010032000e07e8000804e900a3
:10c84000eeff3a00dfad97001b407800a0d79f00b5
:10c850000004e000b7fc3a000e0078004f077800b3
:10c860004f06be004f05be004f04be002f02b100b0
:10c87000000006000200fa00889fbe00a0ff9f0093
:10c8800001047800380090000068a30033003a00eb
:10c89000e200600005003a000003b3003004980095
:10c8a000110498000080eb002e003700d80490009f
:10c8b0000900e00006003a0012002000e680570060
:10c8c0004800900067f7070019049800230037001c
:10c8d000a80090000100e00008003a00b1cb26005b
:10c8e00021049800010c78002100200051049800d8
:10c8f000110498000030a000300498001801900046
:10c90000a80090004800900056f70700280090000b
:10c910008080eb0011049800aff897000148780080
:10c92000000ce8002ff89700ea4f50000b003a0087
:10c93000380090000088a300080032001801900021
:10c94000a80090004800900046f707000000eb00a8
:10c9500010049800a8009000010c7800aff8970030
:10c960000100fb004f04be000080fa00000006003a
:10c9700000c0da00000006006022b80006022000b5
:10c980000000d0008180d2000482d2008582d200d3
:10c990000000a0000202520083825a00030031000e
:10c9a0000202420083824a000000a1000603e9005f
:10c9b000f3ff3a0000000600020ab900001bb900ac
:10c9c0000200b80081004200810043000000060020
:10c9d000889fbe008a9fbe0030044200b0844a0097
:10c9e00030054b0090854b006000b1000898be00f8
:10c9f0000a90be000440e10005c8e10006d0e10055
:10ca000007d8e10002003100680040001008e8008b
:10ca10004f05be004f04be0000000600889fbe0008
:10ca20008a9fbe003004be002005be0004185400da
:10ca300005985c0006185d0007985d001100200055
:10ca40000440e10005c8e10006d0e10007d8e1009c
:10ca5000010039008000eb00108810004f05be0077
:10ca60004f04be00000006001200fa00889fbe00be
:10ca70008a9fbe008c9fbe00e0b79f00f1b79f0069
:10ca800082bf9f0093bf9f000605be000404be0046
:10ca90000000eb00d0b79f00c0b79f00b0b79f0069
:10caa000a0b79f0090b79f000006eb005fb1970012
:10cab000cfb09700820141003fb097000200e00034
:10cac00004003d00370007007e805700c0ff0700cc
:10cad00003003700330007007e805700cfff0700b8
:10cae000dfb697000d00e0000c0035006fb2970034
:10caf000ffb297000fbb97009fbb9700100020006c
:10cb0000010020006011b8000002720081827200f2
:10cb100002037300838373001b0007000c06e80008
:10cb200001042000810f5600e0ff3a000d00e000f4
:10cb300004003d000802be000a03be007e805700cc
:10cb4000a3ff07005fa897000000e00005003a007f
:10cb50001fb29700afb297003fb39700cfb39700d3
:10cb6000090007006fb09700ffb097000fb997005a
:10cb70009fb997004f06be004f05be004f04be0090
:10cb80000080fa0000000600010007000000060017
:10cb9000a4b79f00b5b79f00c6b79f00d7b79f0047
:10cba000000006004f09de0082817100b3b79f00cc
:10cbb0004f01de008180400082807000a1b79f009d
:10cbc0008fb097004f09de000000400002007000a7
:10cbd00090b79f007fa897004f01de008180400042
:10cbe0008280700081b79f000d0007004f3ade0081
:10cbf0000000400004007000f0af9f000800070034
:10cc00000402420085824a0006034b0087834b00e2
:10cc1000dfff07000802be000a03be000000060096
:10cc20002fb29700bfb297004fb39700dfb39700c2
:10cc300000000600881f780018002000881f780078
:10cc400089ff07008f87e9004f0478000000060085
:10cc5000889fbe008a9fbe008c1f78000006eb00f4
:10cc6000e00f5000e08f5800e00f5900e08f5900ae
:10cc700007003d006044b8006055b8000000540053
:10cc800081805c0002015d0083815d001c0020004a
:10cc9000e00f5200e08f5a00e00f5b00e08f5b0076
:10cca00007003d006044b8006055b800040254001d
:10ccb00085825c0006035d0087835d000c00a20096
:10ccc0000c0007000c00e000060032006022b800f3
:10ccd0006033b8000000520081805a0002015b00fe
:10cce00083815b004f0678004f05be004f04be00f5
:10ccf00000000600889fbe008a9fbe008c9fbe0079
:10cd00000404b8000506b8008904460060854e009a
:10cd10000606b8000a054600e0854e000706b80082
:10cd20008b054600040eb800890446000a854e00b3
:10cd3000e0854d00050eb8000a0546008b854e00c3
:10cd4000060eb8008b0546000416b8000a0546001a
:10cd50008b854e000516b8008b054600041eb800f2
:10cd60008b0546000800be000a01be004f06be004b
:10cd70004f05be004f04be00000006003600f8005c
:10cd8000809fbe00829fbe00849fbe00869fbe0023
:10cd90008ec0a90082c4ab002900320080c4ab0061
:10cda000270032000004200000248800196d0700cd
:10cdb0000000e00009003200e96a07000000e0001e
:10cdc0001f0032006022b8000001eb00a1c0b300d8
:10cdd0000040eb0056490700190037000b6d0700b3
:10cde0000000e00009003200d46a07000000e00003
:10cdf000130032006022b8000001eb0091c0b300c4
:10ce00000040eb004a4907000d003700a05a83009c
:10ce10000000e0000a003200a05a83000000e90090
:10ce2000a05a8b00a05a83000000e00004003a00e2
:10ce300082c4a900b05a83000000e800b05a8b00f9
:10ce40008cc4ab001a0032008ac4ab001800320058
:10ce50008cc4a9000004200050248800b15a83002b
:10ce600070005000808f500002003a000010200037
:10ce7000905a8b006022b8000001eb0011c0b30093
:10ce80000040eb002a4907006022b8000001eb00d7
:10ce900031c0b3000040eb00254907006022b80014
:10cea0000001eb0071c0b3000040eb002049070017
:10ceb0008c04ab00120032008a04ab001000320078
:10cec00010002000502488008c04a9000000eb0012
:10ced000905a8b006022b8000001eb008040eb000c
:10cee00001407800124907006022b8000001eb0001
:10cef00041c0b3000040eb000d490700606c070023
:10cf000080e4ab000500320082e4ab000300320095
:10cf10007659070000082000002488008044ab00f8
:10cf20000a0032008244ab000800320084e4ab0007
:10cf300004003200496c0700e14f500001003a0044
:10cf40006a59070040002000002488008064ab007c
:10cf5000170032008264ab0015003200426c0700fb
:10cf6000e14f500010003a00a66c07000000e000fe
:10cf70000d0032008464ab00060032006022b8006d
:10cf80000001eb0051c0b3000040eb00e84807008f
:10cf9000050037006022b8000001eb0061c0b3005b
:10cfa0000040eb00e24807008000200000248800d9
:10cfb0008aa4ab00090032008ca4ab000700320049
:10cfc0006022b8000001eb00b1c0b3000040eb00ec
:10cfd000d748070000022000502488008c64ab0072
:10cfe000280132008a64ab00260132008c24ab0099
:10cff000080032008a24ab0006003200c05a8300c9
:10d00000d00890000130b20000102000808f500046
:10d010001c013a00a0b526001040a1009224800017
:10d020008000200050248800c05a8300a05890003f
:10d030008180fb00f324800081806900ef80600024
:10d040000f013a00820078000138a3000500320089
:10d05000c2a026000128a30006003a006401510086
:10d060000400370042a026000128a30001003a0076
:10d070006401510001c02300928060000380200001
:10d08000838f500046003a00f13f200092806000fc
:10d09000000990009009900002814000e081490061
:10d0a0000208980013089800c05a83000001eb00a2
:10d0b00072089800100190004b11de000281ea0016
:10d0c000610161004b11dd009001900003b0a100ef
:10d0d0000301710012009800c05a830000599000ab
:10d0e000f04f5100080032008059900002c2b30096
:10d0f00082cf5100040032008059900070414100fd
:10d1000082cf51000f003a00000a9000900a900070
:10d11000700190008001eb00820f5200838f5a0053
:10d12000d70039006011b800020898001308980071
:10d13000c05a8300805890008140e8000158980050
:10d14000cf003700d00990000330b2000210200059
:10d15000828f51000a00320040019000828f5000ff
:10d1600007003900000a9000900a900050019000da
:10d17000e0019000820f5200838f5a00c0003900f6
:10d18000900090000180a00011009800c05a830018
:10d19000805890008140e80001589800b80037009e
:10d1a00003c02000838f50000300320003c0220020
:10d1b000838f50002c003a00f13f200092806000e5
:10d1c000000990009009900002814000e081490030
:10d1d0000208980013089800c05a83000001eb0071
:10d1e00072089800100190004b11de000281ea00e5
:10d1f000610161004b11dd009001900003b0a100be
:10d200000301710012009800c05a8300d0099000f9
:10d210000330b20002102000828f51000a00320059
:10d2200040019000828f500007003900000a9000f2
:10d23000900a900050019000e0019000820f52008f
:10d24000838f5a008e003900900090000180a0006a
:10d2500011009800c05a8300805890008140e80077
:10d26000015898008600370002802200828f50000b
:10d270005a003a009000900001c0a00011009800f0
:10d28000c05a8300f00890008100e80071089800ff
:10d29000d0089000c808de00e3806000e28f5000f4
:10d2a00005003200e38f500027003200e18f50006c
:10d2b00013003a00410037009000900001d8a3000d
:10d2c0006f0032007009900080109000810f5100b3
:10d2d0006b003600900090000160a00011009800e3
:10d2e00071c1b300c05a830041589800c05a8300ee
:10d2f00080589000f140b30001589800600037005a
:10d300009000900001d8a3005d00320070099000e9
:10d3100080109000810f510059003600900090005d
:10d320000160a0001100980071c1b300c05a8300d1
:10d3300041589800c05a830080589000f140b300d3
:10d34000015898004e003700a05890000104e000fa
:10d35000120035009000900001d8a3004800320070
:10d360007009900080109000810f51004400360039
:10d37000900090000160a0001100980071c1b300fe
:10d38000c05a830041589800c05a830080589000ca
:10d39000f140b30001589800390037009000900028
:10d3a0000180a00011009800c05a830080589000ae
:10d3b0008140e8000158980031003700900090004b
:10d3c0000180a00011009800c05a8300805890008e
:10d3d0008140e800015898002900370002802300ae
:10d3e000828f50000b003a00900090000150a00086
:10d3f0001100980011c1b300c05a83004158980031
:10d40000c05a830080589000f140b3000158980042
:10d410001b003700900090008140e800ff80600012
:10d420009001900002fe2f00028161008280700056
:10d4300011009800c05a830090009000ff806000a7
:10d44000f38f50000e003400900090000160a000a7
:10d450001100980031c1b300c05a830041589800b0
:10d46000c05a830080589000f140b30001589800e2
:10d47000f00f200070248800200020005024880035
:10d48000742d07008c44ab002c0032008a44ab00a2
:10d490002a0032004000200050248800635b830093
:10d4a0000300e0001d003200230090000000e000b7
:10d4b00017003200200090000000e000140032004d
:10d4c000500990000130200001016100810f5100de
:10d4d0000300320001102000810f510006003a00c5
:10d4e000b00090000100e00003003200b0009000a6
:10d4f0008100e900310098009000900001c0a10077
:10d5000011009800100078000000e000ecff3a00e5
:10d51000930178000300e000e3ff3a00a0b5260085
:10d520001000a1001010a1001020a1001030a100d7
:10d530000080e8000048eb00462d07008c24ab007b
:10d54000450032008a24ab0043003200a0b526001b
:10d550001040a100c05a8300500990000230b20070
:10d5600001102000810f5100370032009000900020
:10d570008140e800ff8060009001900002fe2f00d3
:10d58000028161008280700011009800c05a8300ff
:10d5900090009000ff806000f38f50002a0034005c
:10d5a0008ee4ab000200320001c2b3004158980083
:10d5b0008ea4ab000300320011c2b300c05a830036
:10d5c000415898008e84ab000300320021c2b300a2
:10d5d000c05a8300415898008e64ab0003003200ab
:10d5e00031c2b300c05a8300415898008e44ab004a
:10d5f0000300320041c2b300c05a83004158980072
:10d600008e24ab000300320051c2b300c05a830025
:10d61000415898008e04ab000300320061c2b30091
:10d62000c05a830041589800c15a830011009000ed
:10d630000060a00090009800c05a830080589000bd
:10d64000f140b30001589800f00f200070248800ca
:10d6500020002000502488004f03be004f02be006f
:10d660004f01be004f00be003600f900004006002a
:08d670000040da000000fe009a
:020000040000fa
:10d67800d0020000e4040000d2020000d40200003e
:10d68800d6020000740800008c0800008008000022
:10d6980000100000ffef0000010000000c00000077
:10d6a800e8020000ea040000ea020000ec020000c0
:10d6b800ee0200007a0800009208000086080000c8
:10d6c80010000000efff000004000000040000004c
:10d6d800e8020000ea040000ea020000ec02000090
:10d6e800ee0200007a080000920800008608000098
:10d6f80020000000dfff000004000000050000001b
:10d70800d8020000e6040000da020000dc02000093
:10d71800de020000760800008e0800008208000083
:10d7280000010000fffe00000200000008000000e9
:10d73800d8020000e6040000da020000dc02000063
:10d74800de020000760800008e0800008208000053
:10d7580000020000fffd00000200000009000000b8
:10d76800d8020000e6040000da020000dc02000033
:10d77800de020000760800008e0800008208000023
:10d7880000040000fffb0000020000000a00000087
:10d79800d8020000e6040000da020000dc02000003
:10d7a800de020000760800008e08000082080000f3
:10d7b80000080000fff70000020000000b00000056
:10d7c800d8020000e6040000da020000dc020000d3
:10d7d800de020000760800008e08000082080000c3
:10d7e80001000000feff0000020000000000000031
:10d7f800d0020000e4040000d2020000d4020000bd
:10d80800d6020000740800008c08000080080000a0
:10d8180000200000ffdf0000010000000d000000f4
:10d82800d0020000e4040000d2020000d40200008c
:10d83800d6020000740800008c0800008008000070
:10d8480000400000ffbf0000010000000e000000c3
:10d85800d8020000e6040000da020000dc02000042
:10d86800de020000760800008e0800008208000032
:10d8780002000000fdff000002000000010000009f
:10d88800d8020000e6040000da020000dc02000012
:10d89800de020000760800008e0800008208000002
:10d8a80004000000fbff000002000000020000006e
:10d8b800d8020000e6040000da020000dc020000e2
:10d8c800de020000760800008e08000082080000d2
:10d8d80008000000f7ff000002000000030000003d
:10d8e800d8020000e6040000da020000dc020000b2
:10d8f800de020000760800008e08000082080000a2
:10d9080010000000efff000002000000040000000b
:10d91800d8020000e6040000da020000dc02000081
:10d92800de020000760800008e0800008208000071
:10d9380020000000dfff00000200000005000000da
:10d94800d8020000e6040000da020000dc02000051
:10d95800de020000760800008e0800008208000041
:10d9680040000000bfff00000200000006000000a9
:10d97800d8020000e6040000da020000dc02000021
:10d98800de020000760800008e0800008208000011
:10d99800800000007fff0000020000000700000078
:10d9a800e8020000ea040000ea020000ec020000bd
:10d9b800ee0200007a0800009208000086080000c5
:10d9c80001000000feff000004000000000000004d
:10d9d800e8020000ea040000ea020000ec0200008d
:10d9e800ee0200007a080000920800008608000095
:10d9f80002000000fdff000004000000010000001c
:10da0800e002000000000000e2020000e402000062
:10da1800e602000078080000900800008408000072
:10da280001000000feff00000300000000000000ed
:10da3800e002000000000000e2020000e402000032
:10da4800e602000078080000900800008408000042
:10da580002000000fdff00000300000001000000bc
:10da6800e002000000000000e2020000e402000002
:10da7800e602000078080000900800008408000012
:10da880004000000fbff000003000000020000008b
:10da9800e002000000000000e2020000e4020000d2
:10daa800e6020000780800009008000084080000e2
:10dab80008000000f7ff000003000000030000005a
:10dac800e002000000000000e2020000e4020000a2
:10dad800e6020000780800009008000084080000b2
:10dae80010000000efff0000030000000400000029
:10daf800e002000000000000e2020000e402000072
:10db0800e602000078080000900800008408000081
:10db180020000000dfff00000300000005000000f7
:10db2800e002000000000000e2020000e402000041
:10db3800e602000078080000900800008408000051
:10db480040000000bfff00000300000006000000c6
:10db5800e002000000000000e2020000e402000011
:10db6800e602000078080000900800008408000021
:10db7800800000007fff0000030000000700000095
:10db8800f0020000ec040000f2020000f4020000c1
:10db9800f60200007c0800009408000088080000d5
:10dba80040000000bfff0000050000000600000064
:10dbb800f0020000ec040000f2020000f402000091
:10dbc800f60200007c0800009408000088080000a5
:10dbd800800000007fff0000050000000700000033
:10dbe800f0020000ec040000f2020000f402000061
:10dbf800f60200007c080000940800008808000075
:10dc080000010000fffe0000050000000800000001
:10dc1800f0020000ec040000f2020000f402000030
:10dc2800f60200007c080000940800008808000044
:10dc380000020000fffd00000500000009000000d0
:10dc4800c8020000e2040000ca020000cc02000082
:10dc5800ce020000720800008a0800007e0800005a
:10dc680020000000dfff00000000000005000000a9
:10dc7800c8020000e2040000ca020000cc02000052
:10dc8800ce020000720800008a0800007e0800002a
:10dc980010000000efff000000000000040000007a
:10dca800c8020000e2040000ca020000cc02000022
:10dcb800ce020000720800008a0800007e080000fa
:10dcc80008000000f7ff000000000000030000004b
:10dcd800c8020000e2040000ca020000cc020000f2
:10dce800ce020000720800008a0800007e080000ca
:10dcf80004000000fbff000000000000020000001c
:10dd0800c8020000e2040000ca020000cc020000c1
:10dd1800ce020000720800008a0800007e08000099
:10dd280002000000fdff00000000000001000000ec
:10dd3800c8020000e2040000ca020000cc02000091
:10dd4800ce020000720800008a0800007e08000069
:10dd580001000000feff00000000000000000000bd
:10dd6800c8020000e2040000ca020000cc02000061
:10dd7800ce020000720800008a0800007e08000039
:10dd880040000000bfff0000000000000600000087
:10dd9800c8020000e2040000ca020000cc02000031
:10dda800ce020000720800008a0800007e08000009
:10ddb800800000007fff0000000000000700000056
:10ddc800c8020000e2040000ca020000cc02000001
:10ddd800ce020000720800008a0800007e080000d9
:10dde80000010000fffe0000000000000800000025
:10ddf800c8020000e2040000ca020000cc020000d1
:10de0800ce020000720800008a0800007e080000a8
:10de180000020000fffd00000000000009000000f3
:10de2800c8020000e2040000ca020000cc020000a0
:10de3800ce020000720800008a0800007e08000078
:10de480000040000fffb0000000000000a000000c2
:10de5800c8020000e2040000ca020000cc02000070
:10de6800ce020000720800008a0800007e08000048
:10de780000080000fff70000000000000b00000091
:10de8800c8020000e2040000ca020000cc02000040
:10de9800ce020000720800008a0800007e08000018
:10dea80000100000ffef0000000000000c00000060
:10deb800c8020000e2040000ca020000cc02000010
:10dec800ce020000720800008a0800007e080000e8
:10ded80000200000ffdf0000000000000d0000002f
:10dee800c8020000e2040000ca020000cc020000e0
:10def800ce020000720800008a0800007e080000b8
:10df080000400000ffbf0000000000000e000000fd
:10df1800c8020000e2040000ca020000cc020000af
:10df2800ce020000720800008a0800007e08000087
:10df380000800000ff7f0000000000000f000000cc
:10df4800640000007000000058000000800000001d
:10df58007fff00006400000070000000580000000f
:10df680002000000fdff00006400000070000000d7
:10df78005800000004000000fbff000068000000db
:10df8800740000005c00000020000000dfff0000bb
:10df980068000000740000005c0000004000000001
:10dfa800bfff000068000000740000005c00000073
:10dfb800800000007fff000068000000740000007f
:10dfc8005c00000000010000fffe00006800000087
:10dfd800740000005c00000002000000fdff00006b
:10dfe800620000006e000000560000000200000001
:10dff800fdff0000620000006e00000056000000f7
:10e0080001000000feff000068000000740000002e
:10e018005c00000004000000fbff00006800000036
:10e02800740000005c00000008000000f7ff00001a
:10e0380068000000740000005c0000001000000090
:10e04800efff0000620000006e00000056000000b4
:10e0580000200000ffdf0000620000006e000000ea
:10e068005600000000400000ffbf000062000000f2
:10e078006e0000005600000000800000ff7f0000d6
:10e08800640000007000000058000000010000005b
:10e09800feff00006a000000760000005e0000003d
:10e0a80010000000efff00006a000000760000008a
:10e0b8005e00000020000000dfff00006800000094
:10e0c800740000005c00000000040000fffb00007a
:10e0d80068000000740000005c00000000080000f8
:10e0e800fff7000068000000740000005c000000fa
:10e0f80000100000ffef000068000000740000003e
:10e108005c00000000200000ffdf00006800000045
:10e11800740000005c00000000400000ffbf000029
:10e1280068000000740000005c000000008000002f
:10e13800ff7f00006a000000760000005e0000001b
:10e1480001000000feff00006a00000076000000e9
:10e158005e00000002000000fdff000062000000f9
:10e168006e0000005600000000010000fffe0000e5
:10e17800620000006e00000056000000000200006f
:10e18800fffd0000620000006e0000005600000065
:10e1980000040000fffb0000620000006e000000a9
:10e1a8005600000000080000fff7000062000000b1
:10e1b8006e00000056000000800000007fff000095
:10e1c800620000006e0000005600000040000000e1
:10e1d800bfff0000620000006e0000005600000053
:10e1e80020000000dfff0000620000006e00000059
:10e1f8005600000010000000efff00006200000061
:10e208006e0000005600000008000000f7ff000044
:10e21800620000006e0000005600000004000000cc
:10e22800fbff0000640000007000000058000000c0
:10e2380000010000fffe0000640000007000000004
:10e248005800000000020000fffd0000640000000c
:10e25800700000005800000000040000fffb0000f0
:10e268006400000070000000580000000008000072
:10e27800fff7000064000000700000005800000074
:10e2880000100000ffef00006400000070000000b4
:10e298005800000000200000ffdf000064000000bc
:10e2a800700000005800000000400000ffbf0000a0
:10e2b80064000000700000005800000000800000aa
:10e2c800ff7f000066000000720000005a00000096
:10e2d80001000000feff0000620000006e00000068
:10e2e8005600000000100000ffef0000ff0a0000c9
:10e2f80011020000040300000c0b0000ff250000c1
:10e30800181700001619000014ff0000ffff000096
:10e31800ffff0000ffff0000ffff0000ffff0000fd
:10e32800ff1500001a1300001b1200001cff00005c
:10e338000d010000000600000708000009ff0000aa
:10e34800ffff0000ff0e00001d2400002322000034
:10e35800212000001f250000262700002829000092
:10e368002a2b00002c2d00002eff0000ffff0000cc
:10e37800ffff0000ffff0000ffff0000ffff00009d
:10e38800ff00000008090000ff0700000a0b00005a
:10e398000c0d00000e0f0000100300000405000023
:10e3a80006ff0000ffff0000ff1300001415000027
:10e3b80016170000181900001aff0000ffff0000e0
:10e3c800ffff0000ffff0000ff11000012ff000028
:10e3d800ff01000002ff0000ffff0000ffff000038
:10e3e800ffff0000ffff0000ffff0000ffff00002d
:10e3f800ffff0000ff1b00001c1d00001eff0000a7
:10e40800ffff0000ffff0000ff0000000000000009
:10e4180000000000000000000000000000000000f4
:10e42800000000000000000000240000232200007b
:10e43800212000001f2500002627000028290000b1
:10e448002a2b00002c2d00002e00000005000000e3
:10e4580004000000030000000200000001000000aa
:10e46800000000000600000007000000080000008f
:10e47800090000000a0000000b0000000c0000006a
:10e488000d0000000e0000000f00000033310000f6
:10e4980031000000010400004af200000000000002
:10e4a8000204000052f20000423200003131000044
:10e4b80032310000000000000504000058f200009e
:10e4c80048310000000000000604000064f200006b
:10e4d80042000000080400006cf200004231000015
:10e4e800000000000904000072f200000a040000a5
:10e4f80072f2000042500000000000000b0400000f
:10e508007ef200000c0400006cf2000042310000b2
:10e51800500000000d0400008af200000e04000004
:10e528006cf2000048320000000000000f040000f8
:10e5380096f2000048000000110400009ef200005e
:10e548001304000064f20000150400009ef20000ad
:10e5580042310000313200000000000019040000c0
:10e56800acf200001a0400006cf200004231000016
:10e5780031310000000000002b040000baf2000056
:10e588002c0400006cf200002d0400006cf2000066
:10e5980042340000000000002e040000ccf200000d
:10e5a8002f0400006cf20000330400006cf200003d
:10e5b8003404000072f200004832000032320000d9
:10e5c8003200000003080000e0f2000048310000bb
:10e5d8003134000034340000340000000708000023
:10e5e800eaf20000090800009ef200000b08000093
:10e5f80072f200000c0800009ef200000d080000f6
:10e6080096f200003434000000000000010c000005
:10e6180006f30000030c000052f20000120c000088
:10e6280072f200004e000000130c000016f3000008
:10e6380032000000180c00001cf30000310000003c
:10e648001a0c000022f30000200c000022f3000046
:10e6580033000000240c00002cf30000290c0000fb
:10e6680052f200002a0c000022f3000032310000b0
:10e678003232000000000000330c00003af30000c2
:10e68800360c00009ef20000370c000096f20000e5
:10e69800450c000022f30000314500000000000096
:10e6a800520c000050f30000560c000022f300004a
:10e6b8006c0c000052f20000313100000000000034
:10e6c8006d0c000060f300000310000052f200001f
:10e6d8000510000052f200000910000052f200007c
:10e6e80001f4000052f2000002f4000022f30000de
:10e6f80003f4000022f3000004f4000052f20000ca
:10e7080005f4000052f2000006f4000022f30000b5
:10e7180007f4000022f3000008f4000022f30000d0
:10e72800423200000000000020f4000094f30000d2
:10e73800423200003200000026f400009cf3000082
:10e74800323100000000000021f40000a4f30000b2
:10e75800323200000000000022f40000acf3000098
:10e7680023f400001cf3000024f400001cf3000054
:10e7780025f40000a4f300005300000030f400006a
:10e78800c0f300003400000031f40000c6f30000bc
:10e79800425300000000000032f40000ccf30000f7
:10e7a800425300005300000033f40000d4f300008b
:10e7b80040f4000072f200004231000032310000e3
:10e7c8000000000047f40000e0f3000049f40000f6
:10e7d800a4f3000041f40000a4f30000313200006b
:10e7e8000000000042f40000f2f3000031320000a3
:10e7f8003100000048f40000faf3000043f4000080
:10e808001cf3000044f400001cf3000045f4000071
:10e81800a4f3000046f4000016f3000025300000c1
:10e828003258000020000000253000003278000037
:10e838003a25000030320000783a00002530000008
:10e84800327800003a25000030320000783a0000a3
:10e8580025300000327800003a25000030320000f0
:10e868007800000000910000e372000007960000a5
:10e87800e47500000e9f0000ed7c00000998000080
:10e88800ea7b00001c8d0000ff6e00001b8a000060
:10e89800f869000012830000f16000001584000090
:10e8a800f667000038a90000db4a00003fae000010
:10e8b800dc4d000036a70000d544000031a0000060
:10e8c800d243000024b50000c756000023b2000060
:10e8d800c05100002abb0000c95800002dbc000030
:10e8e800ce5f000070e100009302000077e60000b0
:10e8f800940500007eef00009d0c000079e8000000
:10e908009a0b00006cfd00008f1e00006bfa0000df
:10e918008819000062f300008110000065f400000f
:10e928008617000048d90000ab3a00004fde00000f
:10e93800ac3d000046d70000a534000041d00000df
:10e94800a233000054c50000b726000053c20000df
:10e95800b02100005acb0000b92800005dcc0000af
:10e96800be2f0000e071000003920000e77600006f
:10e9780004950000ee7f00000d9c0000e97800007f
:10e988000a9b0000fc6d00001f8e0000fb6a00005f
:10e9980018890000f263000011800000f56400008f
:10e9a80016870000d84900003baa0000df4e00008f
:10e9b8003cad0000d647000035a40000d14000005f
:10e9c80032a30000c455000027b60000c35200005f
:10e9d80020b10000ca5b000029b80000cd5c00002f
:10e9e8002ebf00009001000073e2000097060000af
:10e9f80074e500009e0f00007dec000099080000ff
:10ea08007aeb00008c1d00006ffe00008b1a0000de
:10ea180068f900008213000061f00000851400000e
:10ea280066f70000a83900004bda0000af3e00008e
:10ea38004cdd0000a637000045d40000a1300000de
:10ea480042d30000b425000057c60000b3220000de
:10ea580050c10000ba2b000059c80000bd2c0000ae
:10ea68005ecf00002020000020200000007400007d
:10ea78007970000065200000253500007320000033
:10ea880028250000752900002c200000656c000076
:10ea9800656d0000656e0000742000006c65000064
:10eaa8006e2000002532000075200000002c0000b8
:10eab80020760000616c0000756500003a200000b7
:10eac800006c0000656e0000202500007520000025
:10ead8002830000078250000303200007829000036
:10eae8000a0000002c200000766100006c75000010
:10eaf800653a00002030000078250000303800001a
:10eb08006c7800000a0000004e4900004c0000002c
:10eb1800554900004e540000004900004e540000c2
:10eb280000550000554900004400000053540000ff
:10eb3800524900004e470000004200004f4f0000bd
:10eb48004c0000004445000053000000444500000c
:10eb580041000000555200004c00000088f50000fc
:10eb68008cf5000091f5000095f500009af500007d
:10eb7800a1f50000a6f50000aaf50000aef500001a
:10eb8800000000000000000000000000100000006d
:10eb980080000000008000005f9b000034fb000044
:10eba800040000000801000001010000010200004b
:10ebb800020300000301000001030000010200003d
:10ebc800020300000201000004000000030000002e
:10ebd8000000000001020000020000000101000026
:10ebe80001020000010000001c00000001000000fc
:10ebf8000100000001020000000000000000000009
:10ec080001010000010200000102000002010000f1
:10ec180002020000020200000000000001010000e2
:10ec280001000000020100000100000000000000d7
:10ec3800494f0000494f00003035000030360000d1
:10ec480000000000494f0000494f0000303000002c
:10ec580030350000004900004f4900004f300000e7
:10ec68003030000034000000494f0000494f0000d8
:10ec78003030000030330000004900004f490000e8
:10ec88004f3000003030000032000000494f0000d3
:10ec9800494f000030300000303100000003000010
:10eca800051c00001e0000000000000036000000e7
:10ecb80053000000110000001b00000000000000cd
:10ecc80000000000000000006f01000028020000a2
:10ecd80079000000b7000000a7020000fd03000053
:10ece800e00000005301000000010000191a0000b4
:10ecf80027280000000f000000f0000002110000ab
:10ed0800042200000003000000300000440000005e
:10ed180032320000003200003232000032000000bf
:10ed28003232000044000000323200003244000059
:10ed380000320000000000008af600008cf6000097
:10ed48008ff6000094f6000098f600008cf600009c
:10ed58008cf600008af600008af600009df6000096
:10ed680094f600000100000001000000000000000f
:10ed78000000000000000000001c0000000000006f
:10ed880000080000000c0000030000000200000062
:10ed9800230000002400000025000000f2520000bb
:10eda800f6520000fa520000fe5200000253000022
:10edb800065300000a5300000e53000012530000cf
:10edc80074630000703a00003435000034350000e8
:10edd80000000000001c0000000c000000080000fb
:10ede800000400009d000000250000000d00000048
:08edf800555300004200000029
:020000040000fa
:10ee00000200fa00000f78001e0078008000eb007e
:10ee1000110098001e007800900090001e007800fd
:10ee2000010878000080fa00000006000200fa00e5
:10ee3000000f78001e007800900090001e007800ff
:10ee400010007800008050000080fa0000000600ea
:10ee50000200fa00000f78001e0078009000900079
:10ee60001e00780010007800808050000002200012
:10ee70000080680000f0a7000000ea000000e90040
:10ee80004f00de00004078000080fa00000006001d
:10ee90000200fa00000f78009e00780064814000b4
:10eea0001e00780010009000ff0060002006200087
:10eeb0000088b90000007800000041000080fa00de
:10eec000000006000200fa00000f78001e00780023
:10eed000900090001e00780010007800808f500095
:10eee00002003a000000eb00090037009e007800a5
:10eef000648140001e00780010007800ff00600070
:10ef0000200620000088b9000000780000004100c1
:10ef10000080fa00000006000200fa00000f7800ee
:10ef20001e007800100078008000e8001e007800c5
:10ef3000010878000080fa00000006000200fa00d4
:10ef4000000f78001e007800100090008000e8009c
:10ef50001e007800110098000080fa0000000600f2
:10ef60000200fa00000f78001e0078001000780000
:10ef7000100288000080fa00000006000600fa0077
:10ef800040479800100280001007980010002000f1
:10ef9000000f78001e0078000000e0000e00320034
:10efa000000e200010028800a0028200ef00600026
:10efb0006005240000804000ce40900001487800a9
:10efc000a00282000000e800a0028a000000eb001e
:10efd000000f7800efff37000e80e800e0ff070029
:10efe0000080fa00000006000400fa00000f78001c
:10eff000110798001e007800e10f50000c0032004d
:10f00000e10f500005003900e20f50000d00320002
:10f01000e30f500010003200140037001e00900073
:10f02000710020000108780010c0b3001000370004
:10f030001e009000110020000108780010c0b300ed
:10f040000b0037001e00900021002000010878000e
:10f0500010c0b300060037001e00900031002000f1
:10f060000108780010c0b300010037000040eb0039
:10f070000080fa00000006000400fa001007980063
:10f08000020620008000eb001e00900093ee0700b7
:10f090000000eb00000f7800080037009e00900091
:10f0a0001e017800720041004200dd000080400037
:10f0b0008080eb00010878001e0fe8001e00780039
:10f0c000e50f5000f5ff36000080fa000000060052
:10f0d0000200fa00000f7800620620008000eb00ba
:10f0e0001e0078007dee07009e00780066804000dc
:10f0f000e1ff07006c28ef000080fa000000060026
:10f100001200fa0040079800510798006207980023
:10f1100073079800040f9800ce009000010f78004c
:10f120000000eb00100798001e0078009040780067
:10f130006fc060008080fb006e00900001087800c6
:10f140001e007800904078006fc060000080fb00d7
:10f15000e20f500092003200e20f500003003c002a
:10f160000000e0008201350005003700e30f500089
:10f1700000013200e40f50002c0132007c01370006
:10f180005e009000e50f500002003e000080eb00a2
:10f19000780137001e007800104090006f4060003a
:10f1a0000080fb00e80f5000020034000080eb00fc
:10f1b000700137001e007800a04090008180fb00a5
:10f1c000304090000080fb004800dd0000807000af
:10f1d0000000e00002003a000080eb00650137000b
:10f1e0001e007800104090000080fb004400de000c
:10f1f000634060000080fb008e80e8007aff07001b
:10f200000004a2000004e000020032000080eb00d5
:10f21000580137001e007800104090006f406000d9
:10f22000804078006e009000214098001e00780019
:10f23000a04090008180fb00304090000080fb00e7
:10f240004800dd0000807000800078006e009000b3
:10f25000210098001e0090004a00dd008000780028
:10f260006100b3006e009000310098007e009000b5
:10f27000900078001e007800104090006f40600001
:10f280000080fb00120020000010dd0081007000f3
:10f290007e009000010878001e0078001040780081
:10f2a0006f406000e14f50000b003a007e0090007c
:10f2b000a00090001e007800104090006f40600099
:10f2c0000080fb00120020000010dd0081007000b3
:10f2d0007e009000210098001e00780010409000f1
:10f2e0006f4060008081fb001e007800c0409000ed
:10f2f0008180fb00504090000080fb004800dd0052
:10f3000000807000800078007e0190000300e8001b
:10f310004300dd0000004100010878001e00780075
:10f32000104090006f4060008081fb001e0078005c
:10f33000a04090008180fb00304090000080fb00e6
:10f340004800dd0000807000800078007e019000a1
:10f350004318dd000000410066004000010878000d
:10f360001e007800104090006f4060000080fb009d
:10f37000ee009000b10090007e0190004300dd009f
:10f38000000041006a004000010878000e0890006b
:10f39000210020000108780060002000f5003700ff
:10f3a0005e009000e30f500002003e000080eb0082
:10f3b000f00037001e007800104090006f406000a1
:10f3c0000080fb00e80f5000020034000080eb00da
:10f3d000e80037001e007800a04090008180fb000c
:10f3e000304090000080fb004800dd00008070008d
:10f3f0000000e00002003a000080eb00dd00370072
:10f400001e007800104090000080fb004400de00e9
:10f41000634060000080fb008e80e800f2fe070081
:10f420000004a2000004e000020032000080eb00b3
:10f43000d00037001e007800104090006f40600040
:10f44000804078006e009000214098001e007800f7
:10f45000a04090008180fb00304090000080fb00c5
:10f460004800dd0000807000800078006e00900091
:10f47000210098001e0090004a00dd008000780006
:10f480006100b3006e009000310098007e00900093
:10f49000900078001e007800104090006f406000df
:10f4a0000080fb00120020000010dd0081007000d1
:10f4b0007e009000010878007e009000a00090007f
:10f4c0001e007800104090006f4060000080fb003c
:10f4d000120020000010dd00810070007e0090000e
:10f4e000210098001e007800104090006f406000de
:10f4f0000080fb00fe0090000000e8004300dd00fb
:10f50000008040008000eb00010878001e007800b9
:10f51000104090006f4060000080fb00fe009000f3
:10f520004300dd0000804000660040001100200024
:10f53000010878001e007800104090006f406000c5
:10f540000080fb00ee009000b10090007e01900072
:10f550004300dd00000041006a004000010878001f
:10f560000e089000210020000108780040002000d3
:10f57000800037005e009000e10f500002003e0066
:10f580000080eb007b0037001e00780010409000e8
:10f590006f4060000080fb00e80f50000200340064
:10f5a0000080eb00730037001e00780010409000d0
:10f5b0006f406000804078006e009000214098000d
:10f5c0007e009000900078001e00780010409000af
:10f5d0006f4060000080fb00120020000010dd0082
:10f5e000810070007e009000010878007e0090008d
:10f5f000900090001e007800104090006f40600066
:10f600000080fb00120020000010dd00810070006f
:10f610007e009000110098000e089000510020001c
:10f620000108780020002000520037005e009000a2
:10f63000e10f500002003e000080eb004d0037005b
:10f640001e00780010409000f043b2008080fb0064
:10f65000f0022000808f5000020034000080eb0098
:10f66000440037001e00780010409000f043b200c4
:10f670000080fb0064014700e6004700222b0700e2
:10f68000be0090006e009000110098002e009000c7
:10f69000804078006e009000414098001e00780085
:10f6a000104090000080fb004700de000040780022
:10f6b0000004e000290032001e0078001040900095
:10f6c0000080fb004600de00614060000004e000b6
:10f6d000100032003e009000be0090007e019000bd
:10f6e000f4804000c208dd0062817800ae00900026
:10f6f000130020008118dd00828070007e019000e0
:10f70000740040004200dd00000041000108780064
:10f71000120037003e009000be0090007e01900075
:10f72000f2804000c208dd00e6804000628178007f
:10f73000ae009000130020008118dd008180ea00f7
:10f74000810061007e019000720040004200dd00f7
:10f750000000410066004000010878000e0890009b
:10f76000110020000108780020002000010037006f
:10f770000080eb000080fa00000006000800fa009c
:10f7800020079800310798004080200050fe0700b5
:10f790006e28ef0026003700714380000002200031
:10f7a000808f500002003a000040eb002400370038
:10f7b00070438000c300dd00a0ca24000080400028
:10f7c0008e80e8000102780043802000000178006c
:10f7d000be0090002e00900049fe0700000f780048
:10f7e0001e0078000000e00002003c000040eb003a
:10f7f00013003700704380000000e8007043880069
:10f80000614380001e00900000804000604388003b
:10f810001e007800be009000008050003007980065
:10f820001e007800ae009000008040002007980085
:10f830003e0090000000e000d7ff3a0010c0b30087
:10f840000080fa00000006001200fa00700798001d
:10f85000010f98000e08900007fe07000000eb0063
:10f86000000f780001013700fe009000110798009a
:10f870001e007800c300dd00a0ca24000080400004
:10f8800010007800e20f500032003200e20f50000a
:10f8900005003900e30f50006c003200e40f500007
:10f8a000bc003200ee0037008e0890001e00780089
:10f8b0004300dd000081e800a0ca240000004100f0
:10f8c000104078000080fb004300dd000080400015
:10f8d000200798001e0078004300dd00e60040008d
:10f8e000a0ca240000804000900078002e00900004
:10f8f000210098001e0078004300dd00e400400075
:10f90000a0ca240000804000900078002e009000e3
:10f91000010878001e0090009080fb0010409000cd
:10f920000080fb004800dd0000807000800078004f
:10f930002e009000110098002e0090008000eb0037
:10f94000310098007e0090000080e8007007980069
:10f95000c50037008e0890001e0078004300dd00cf
:10f960000081e800a0ca2400000041001040780097
:10f970000080fb004300dd0000804000300798005d
:10f980001e0078004300dd00e6004000a0ca24000d
:10f9900000804000900078003e0090002100980018
:10f9a0001e0090009080fb00104090000080fb0043
:10f9b0004800dd00008070000000e0000700320019
:10f9c0001e0078004300dd00e4004000a0ca2400cf
:10f9d0000080400010007800010037000000eb00bc
:10f9e000be009000900098001e0090009080fb00e8
:10f9f000104090000080fb004800dd000080700097
:10fa00000000e000070032001e0090009080fb0024
:10fa1000104090000080fb004800dd000080700076
:10fa20000100370010002000be0090008008780020
:10fa30003e0090008000eb00310098007e009000b6
:10fa40000080e80070079800870037000000eb0096
:10fa5000600798001e0090009040780063c060002e
:10fa60000080fb00ec0047005ffd07000004a200df
:10fa70000004e000020032000040eb00800037008c
:10fa80008e0890001e0078004300dd000081e80031
:10fa9000a0ca240000004100104078000080fb0054
:10faa0004300dd0000804000400798001e009000e9
:10fab000904090008180fb00204090000080fb007f
