:020000040000fa
:10a220004f3226000eff27000e01880000000000bc
:10a230000c00070020662900010020000f00070025
:10a24000000020000000e0000200320000000200d8
:10a2500000000000c6c30200000000000040da0059
:10a260000000fe0060ad20000000e00002003200af
:10a27000002020009001880000000600a102880054
:10a28000800078000000eb001a003700e2804000f8
:10a2900054a0b4009101ba00e280400054a0b40080
:10a2a0009102ba00e280400054a0b4000002eb002a
:10a2b000472bde00f507b200a6018800602ce10004
:10a2c00008003a000049eb000201e80002003900f2
:10a2d0003420ec0002f0a0008301e900f9ff3e0009
:10a2e000040037006128e100010032000082eb0029
:10a2f000040007001101ba000200e000e3ff3a0089
:10a300000000060004d0a300e20f49001c00390041
:10a31000810278003549ba000201e80002003900e4
:10a320003420ec0002f0a0008301e9000f003200ad
:10a330002549ba000201e800020039003420ec008f
:10a3400002f0a0008301e900080032000400e000f0
:10a350000600320015c9ba000201e8000200390007
:10a360003420ec0002f0a0008301e9008180e800c5
:10a3700054a0b4000300e000e2ff3a000000060031
:10a380009102ba00055978008301e900f7ff320015
:10a39000c82ade00055978008301e900f3ff320086
:10a3a0000400e000f1ff320011d9ba00eeff3700df
:10a3b0000689040000000000188904000000000065
:10a3c0002a89040000000000d0880400000000007a
:10a3d000e288040000000000f4880400000000008f
:10a3e0003c890400000000005089040000000000c7
:10a3f0006289040000000000e27e0400000000000a
:10a40000f67e0400000000000a7f04000000000047
:10a410001e7f040000000000307f040000000000e8
:10a42000447f040000000000567f0400000000008c
:10a43000687f0400000000007c7f04000000000032
:10a44000aa7d040000000000bc7d040000000000a4
:10a45000ce7d040000000000e07d0400000000004c
:10a46000f27d040000000000027e040000000000f5
:10a47000127e040000000000247e040000000000a2
:10a48000347e040000000000467e0400000000004e
:10a49000587e0400000000006a7e040000000000f6
:10a4a0007c7e0400000000008e7e0400000000009e
:10a4b0009e7e040000000000ae7e0400000000004c
:10a4c000c07e040000000000d07e040000000000f8
:10a4d000a6c3040000000000fa8d04000000000084
:10a4e0000c8e0400000000001e8e0400000000001e
:10a4f000c48d040000000000d68d040000000000a0
:10a50000e88d040000000000308e04000000000010
:10a51000428e040000000000568e0400000000007f
:10a5200032840400000000004484040000000000a5
:10a530005484040000000000668404000000000051
:10a5400078840400000000008a84040000000000f9
:10a550009a84040000000000ac84040000000000a5
:10a56000a283040000000000b48304000000000087
:10a57000c683040000000000d8830400000000002f
:10a580005c830400000000006e83040000000000f3
:10a59000808304000000000092830400000000009b
:10a5a000be84040000000000d0840400000000000d
:10a5b000e484040000000000f884040000000000af
:10a5c000e883040000000000fc8304000000000099
:10a5d0000e8404000000000020840400000000003d
:10a5e000ecbd040000000000780104000100000040
:10a5f0007c010400010000008cb904000000000090
:10a6000018d7040000000000eef504000000000070
:10a61000d4ec04000000000022c60400000000008a
:10a6200080f004000000000082010400010000002e
:10a63000860104000100000000fc0400000000008e
:10a640008cd004000000000096010400010000000e
:10a650009801040001000000bcf8040000000000a4
:10a660006401040001000000680104000100000012
:10a670006ef60400000000009a01040001000000d2
:10a680009c0104000100000048ef040000000000ed
:10a69000a2e1040000000000d8f80400000000005f
:10a6a000fcef040000000000eadf040000000000ee
:10a6b000f4f80400000000004edf04000000000079
:10a6c0009e010400010000006efc04000000000078
:10a6d0004ec804000000000032e204000000000048
:10a6e0003ad8040000000000b2d4040000000000ca
:10a6f000acf504000000000008ff040000000000aa
:10a7000014e60400000000009ce8040000000000c3
:10a7100028f1040000000000dcbb04000000000081
:10a720005400f800a1028800800278006200400016
:10a73000e08048003549ba003204e0000410a70068
:10a74000100032008301e9000e0032002549ba00f2
:10a750003204e0000410a7000a0032008301e9007f
:10a76000080032000408a300eeff320015c9ba0049
:10a770003204e0000410a700020032008301e90067
:10a78000e8ff3a005400f90000000600889fbe0070
:10a790008004780000e982000000e00003003a0035
:10a7a000470007000000e0000a00350000e98200d1
:10a7b0000900e00002003a000004780006003700bb
:10a7c00000047800090040003d0007000000e000a0
:10a7d00001003d000084eb00080078004f04be003b
:10a7e000000006000a00fa0080017800e20f500025
:10a7f00028003e0010e98200e10f500008003200fe
:10a80000802320000000e000050032000423200027
:10a810002523200046232000800178000400370013
:10a82000042220002522200046222000832220002e
:10a83000144090000004e000040035008009eb00a3
:10a84000144090000074a000104298001540900041
:10a850000028a30003003a00154090000024a00047
:10a86000904298008001eb000700370015409000ef
:10a870000008a300fdff320063c078000000fb0069
:10a88000000b78008301e800828f5100f7ff3a0047
:10a890000800370030002000b0bf9f00c3bf9f00fa
:10a8a000d1bf9f00e2bf9f006a80570000c0da005e
:10a8b0006fb99700020078000080fa0000000600df
:10a8c000800078000000e00004003a0040d225003b
:10a8d00000e98a0001017800060037000081eb00e2
:10a8e00040322600808f500002003e0001e98a00bd
:10a8f0000001eb000200780000000600881f7800cd
:10a90000000478005001be004000be00040040007a
:10a91000858048000601490087814900009cbe00ef
:10a920000294be000400e1000588e1000690e10009
:10a930000798e10002003100680044001008e800b8
:10a940004f04780000000600f4874700889fbe008f
:10a950008a9fbe008c9fbe008e1f78000205be003d
:10a960000004be00d4b79f00e5b79f00f6b79f0074
:10a9700087bf9f000000eb00c0b79f00b0b79f00eb
:10a98000a0b79f0090b79f0080b79f000d042000e4
:10a99000bfb097004fb09700000140000000e000fa
:10a9a0000f003d004f08de0000007100c0b79f009f
:10a9b0009e00070001003d0012002000a1000700da
:10a9c00001003d0012002000a6000700b1000700b2
:10a9d000b60007000f004000c8ff07002200370044
:10a9e0004f08de0000067100ccb79f008f00070003
:10a9f00001003d00120020009200070001003d0010
:10aa00001200200097000700a20007000fb2970075
:10aa10009fb297002fb39700bfb39700a90007001c
:10aa20000000520081805a0002015b0083815b00bc
:10aa300080b79f0091b79f00a2b79f00b3b79f0058
:10aa40000007eb009f0007000020e10001a8e100e3
:10aa500002b0e10003b8e100010031001e00200057
:10aa60000e005600c0b79f004fb297000400e000f0
:10aa70000700350010002000010020006011b80020
:10aa800008047000898470000a0571008b857100cc
:10aa90008d06e900beff3a000400e00003003d001f
:10aaa000820007000f00400094ff07004fa89700a6
:10aab0000000e00004003a000fb497009fb4970034
:10aac0002fb59700bfb59700940007004f07780097
:10aad0004f06be004f05be004f04be004f01b1003f
:10aae00000000600881f780018002000881f7800ea
:10aaf00095ff07008f87e9004f04780000000600eb
:10ab0000801feb0090ff07008f87e9000000060020
:10ab1000889fbe008a9fbe008c1f78006e000700d1
:10ab200007003d0073000700e00f5b00e08f5b0053
:10ab300007003d00320007000006eb00040037006c
:10ab40003400070002003d002a0007001c0020001e
:10ab500072000700e3ff07000203be000002be0010
:10ab60000c00e00001003200220007000400be00db
:10ab70000601be004f0678004f05be004f04be0020
:10ab800000000600889fbe008a9fbe008c1f7800d0
:10ab90005100070005003d0056000700e00f5b0074
:10aba000e08f5b0006003d0004003700190007003d
:10abb00003003d006000b8006011b80010000700fd
:10abc00056000700ceff07000203be000002be00d1
:10abd0000c00e00001003200060007000400be0087
:10abe0000601be004f0678004f05be004f04be00b0
:10abf000000006006000b8006011b80000003700d7
:10ac000004025000858258000603590087835900ca
:10ac1000000006000006eb00e00f5200e08f5a0033
:10ac2000e00f5b00e08f5b00000006000180400049
:10ac300090b79f000001eb008fb097000100e0008b
:10ac4000000006000200700090b79f0001804000e5
:10ac500080b79f000001eb00ffa897000100e00013
:10ac6000000006000200700080b79f0001804000d5
:10ac70006faa9700cf20de0001007000f0af9f00a8
:10ac800004024200250007004f18de000002720097
:10ac900000000600e4af9f000804440089844c00d3
:10aca0000a054d008b854d00000006003fb297005d
:10acb000cfb297005fb39700efb3970000fe2f006d
:10acc000000006003fb09700cfb097005fb197003b
:10acd000efb19700000006000205be000004be00b0
:10ace000e00f5000e08f5800e00f5900e08f59004e
:10acf000000006006000b8006011b80008045000b1
:10ad0000898458000a0559008b8559001c002000d1
:10ad1000e00f5200e08f5a00000006000800be005d
:10ad20000a01be00000006008001eb0002003700af
:10ad300061f079008301e800828f5100fcff3a0046
:10ad4000000006000400fa00e0bf9f00e481570005
:10ad5000812978000002eb000f0037006fb89700e0
:10ad6000904078007fb89700104078000402e80017
:10ad700080cf5000040032008180fb000080fb0087
:10ad800000805000070037006fb897000000e8000f
:10ad9000e0bf9f009309e800820f5200efff3a00e6
:10ada0000000eb000080fa00000006000c00fa0032
:10adb000889fbe0000047800cfb09700f0ff270006
:10adc000d0bf9f008004eb0099bf9f0088bf9f0009
:10add000a8bf9f00200c2000b0bf9f0078815700c3
:10ade000708057000b0107000fb8970009487800e2
:10adf0000fb8970008045000080078004f04be0008
:10ae00000080fa00000006008001eb00020037001d
:10ae1000817178008301e800828f5100fcff3a00c5
:10ae200000000600800078003004e000feff3a00d9
:10ae3000010050000000e900000006000003780057
:10ae400080027800020278008001eb0008003700e1
:10ae50000402e90063c07800805a78008301e800aa
:10ae60000004e00002003a008000eb00060037001a
:10ae7000828f5100f6ff3a00fbff37000040eb00e5
:10ae800080f07a008100e800848f5000fbff3a00d8
:10ae90000600780000000600889fbe008a9fbe0062
:10aea0008c9fbe000001780021cd25001100e0003c
:10aeb0000b003a0060cd250090e68a0070e68a001b
:10aec000b1e68a0081e68a00214090000004a000db
:10aed000a0409800614090000004a000e04098006d
:10aee000e7004100c208de00c20cdd0084e68200fb
:10aef0004dd22500403226000d05500022002000d2
:10af0000811f7800110009000205d80000067800b2
:10af1000cf007800c308dd00e48540008001eb002d
:10af200046d2250025cd250001003700010278001a
:10af3000244090000008a300020032000a003700fd
:10af4000110a780094007800214090000008a300c6
:10af5000fbff320009014200828f500002003900dd
:10af6000840f51004600310094007800848f500017
:10af7000eeff3e00868f500002003900858f5000a2
:10af8000eaff390070e68200800f52004f003a005d
:10af9000858f50004d003a008301e800e18f510099
:10afa000e2ff36008c8f5400040036008a8f540074
:10afb000020031000b04780012003700614ab8002b
:10afc0006151b900b0ff2f000100200002005000c5
:10afd00083805800800f5200818f5a000200350094
:10afe00009047800070037000d80540072322600f3
:10aff00002004000110009000a80d8000a80b90050
:10b000000004780008007800e0fd07008001780067
:10b01000e10f40002d00320070e682000308780046
:10b0200072e6820064004100a2409000808f5100cf
:10b03000020032000104a000010037000104a10059
:10b040002141980008804100640050008009780088
:10b0500070e68a0022cd25000208780071e68200a1
:10b06000214090000004a000a040980023409000e0
:10b070000004a100a041980002027800a7ff370059
:10b0800082e68a00828f5000090036009200780024
:10b09000c0cc2500a24190000348780051e68a0008
:10b0a000140978008040eb0080e68200214098007f
:10b0b00080e68200000a7800244090000004a0008e
:10b0c0002042980064004200010037000000eb00bd
:10b0d0004f06be004f05be004f04be000000060034
:10b0e0006400500080e68a00a04090000104a100a6
:10b0f0002140980000000600889fbe008a9fbe0085
:10b1000000057800e401500013001000c285de0045
:10b11000234090000008a3000400320083e68a0068
:10b12000234090000004a100a04198000100780095
:10b1300059ff0700000478000000e000170032000b
:10b140008a0f50001500320060b8970008005000c8
:10b15000c284de00898f5500010036008905780021
:10b160004259dd008a00780008007800eefe0700f2
:10b170008a0f5400090031004248dd0000004400fd
:10b180008a0f5000050036000a00500000004400fd
:10b1900052e6820063e682000288be000800780062
:10b1a0004f05be004f04be0000000600810178007c
:10b1b0000002eb000b003700e44078000104e000df
:10b1c000030032000402e80093cf50000400320074
:10b1d0008180fb001380fb0000805000000006000f
:10b1e0008301e800820f5200f3ff3a0000000500df
:10b1f0000000fa00cfb897006881570080a62500ac
:10b20000040007000080fa000000060081a6250067
:10b21000b5023700fe874700889fbe008a9fbe00a8
:10b220008c9fbe008e1f7800f0b79f00010778004a
:10b2300082bf9f000000eb00a0b79f009f02370075
:10b240008006eb0050c2b30080cf500009003200ee
:10b250000100fb00ffb09700a3020700e10f4000d0
:10b2600096023200afb097008100e800a1b79f00be
:10b27000920237009e407800d0c2b30080cf5000c9
:10b280000c00320007003c006d40500080cf5000a1
:10b290000a0032006b40400080cf50000e003a00a0
:10b2a0000800370000c3b30080cf50000a003a0006
:10b2b000060037000d30a000050037000d00a0008b
:10b2c000030037000d10a000010037000d20a00082
:10b2d0000e07e800e7ff37000d18a3000100320059
:10b2e0000d00a1000d38a300010032000d20a100c7
:10b2f0000100fb0002fd2f0002004000e90f50009a
:10b300000e003e000002eb00c4b79f0082017800ef
:10b31000cfb297006a28b9001e01fb00000141006e
:10b3200003014100c2b79f005e00fb000300400024
:10b33000e90f50000b003e00f5ff37000006eb0060
:10b34000ccb79f00a0c2b30080cf500005003a00e8
:10b350000fb89700c000780080bf9f00c1b79f0062
:10b360000e07e8000001eb00b2b79f00e0c2b30097
:10b370009e4f100018003a000de0a0008e00e8007b
:10b3800064405000914f1000020032000107780025
:10b390000c0037000fba9700c402780084bf9f00ea
:10b3a000b5b79f000e87e8000b0037003fb6970047
:10b3b0006a60b9000000410003004000b0b79f0080
:10b3c0000e07e8001e01fb0003fd2f0003004100f3
:10b3d000e90f5000f5ff3600be407800e1d79f002e
:10b3e000c0c6b30080cf5000220032000f003c00e6
:10b3f0006940500080cf50007700320004003c00cc
:10b400000104e000310232006b4050000f003700b1
:10b4100040c6b30080cf500093003200654040002a
:10b4200080cf50008b003a008f00370030c7b30048
:10b4300080cf50001a00320007003c0064405000ea
:10b4400080cf5000110032000040e80080cf500053
:10b4500080003a000f00370050c7b30080cf500083
:10b46000800032006340400080cf500079003a00f5
:10b4700009003700000028000d48a30001003a0031
:10b480000001200080867600d3ff37000d60a00009
:10b49000750037000d50a0000d70a000720037003d
:10b4a0008fb897004100780081bf9f0000047800aa
:10b4b0000000e00001003a0008a325008004eb0032
:10b4c000010037008104e80089007800088044000a
:10b4d0001004e000fbff3a003fb197000200e000db
:10b4e00003003200890f510001003100820478000e
:10b4f0000002eb00e4af9f00cfb29700898f5200ab
:10b500000200360009805200e0af9f004368de0071
:10b51000e10660001b003a000d06780009003700c4
:10b52000ffb0970000022000ef010700e10f40008c
:10b53000030032002fb097000000e800a0b79f0082
:10b540000c06e800efa89700810f5600f4ff3a00c0
:10b550000081eb00e2af9f000a003700880078000e
:10b560003100fb0001047800ffb09700de01070006
:10b57000e10f4000030032002fb297000402e80000
:10b58000a4b79f000900e90080047800e10f4000a3
:10b59000f2ff3a000006eb000d00e0000a003a005e
:10b5a000c6013700ffb0970000022000ce0107005f
:10b5b000e10f400003003200afb297008502e800bf
:10b5c000a5b79f000c06e8006fa89700800f5600f3
:10b5d000f4ff3a00b90137008fb8970041007800b6
:10b5e00081bf9f00cf80de000101780082017800da
:10b5f0000205be000004be000203be000002be0041
:10b600004822de00482edd0004027600e4d79f00c9
:10b610000d48a3000a0032000404e00008003200d4
:10b62000e14f42000600320071fd2f00018047000b
:10b6300004487800184098002900200002003700d4
:10b64000f0d79f001900200072fd2f0002844700f0
:10b65000a1ff370064fd2f0004844700190020007b
:10b660009dff37000d0cb3000d007800000cb200f8
:10b6700028003a000d00e00005003d008fba970059
:10b680004505be004504be0085bf9f00140037007d
:10b690000d48a3000b0032000fbe97004c00be0007
:10b6a0008cbf9f004f89de00cf91de000002be00fc
:10b6b00002037800820378000605be000404be0081
:10b6c000070037008fb897004100780081bf9f00c6
:10b6d00000047800cfc4de00090578008a057800f0
:10b6e000e00f5400e08f5c00e00f5d00e08f5d0034
:10b6f0001f003d003d00b3006000b8006011b800bd
:10b7000008045000898458000a0559008b855900a7
:10b71000170037000d00e00005003d000fb997004d
:10b720004205be004204be0082bf9f0010003700e9
:10b730000d48a300070032000fba97004400be0076
:10b7400084bf9f006011b8000205be000004be0067
:10b75000070037008fba97004500780085bf9f002b
:10b7600000047800090020000a0020000b002000df
:10b770003fb697000c00e00007003a00e00f5400cd
:10b78000e08f5c00e00f5d00e08f5d0002003a009a
:10b7900010002000b0b79f008d007800010cb200af
:10b7a000e1b79f0000042000808f5000300032007d
:10b7b00003003c000100e0000800320040003700b8
:10b7c000000820006fb19700800f51001400320074
:10b7d000000c2000800f510039003a0014c0b30063
:10b7e00085f521000b0037000400fb004300dd005d
:10b7f000050040005001be004000be000040e100d6
:10b8000001c8e10002d0e10003d8e1002b003900bb
:10b810000442e800f44f5200f3ff3a0027003700db
:10b8200000012000010020006011b80014c0b30026
:10b830000040e10001c8e10002d0e10003d8e100ce
:10b840001e003900450020000000d0008180d20099
:10b850000281d2008381d2008502e900faff3a001a
:10b860000442e800f04f5200f1ff3a0013003700a5
:10b8700080002000010020006011b80014c0b30057
:10b880000040e10001c8e10002d0e10003d8e1007e
:10b890000a0039003c0020000000d0008180d20066
:10b8a0000281d2008381d2000c06e900faff3a003f
:10b8b0000442e800f54f5200f1ff3a00e4d79f0040
:10b8c000efd097000100fb003fb19700820f5000be
:10b8d00002003d00e2d79f00040037003fb297000e
:10b8e000800f520001003d00b0b79f00cfb297001b
:10b8f0000500e000040032006380660002003200b0
:10b900008502e900c5b79f000de8a3000b003200d7
:10b910004fb697003fb09700800f560003003c00e1
:10b920008000eb00c1b79f00040037004fb19700c3
:10b930003fb2970004015100c2b79f00efd29700b9
:10b940000500fb000006eb00dcaf9f00cfb09700c6
:10b95000808f50000200340000805000d0af9f0064
:10b960000d28a30037003200e18066000d18a30007
:10b970000c003200d00220000100e00001003a007b
:10b980000080e900ffb09700d7000700e10f4000fa
:10b990000e0032002fb197000201e800a2b79f000d
:10b9a0000a0037000100e00008003200ffb09700f5
:10b9b00000022000cc000700e10f4000030032002d
:10b9c0002fb297000402e800a4b79f00dfaa9700f7
:10b9d0000500e0000f0032000006eb00ffb097000a
:10b9e00000032000c0000700e10f40000300320008
:10b9f0002fb097000000e800a0b79f000c06e800f9
:10ba0000dfa89700810f5600f4ff3a000001eb0019
:10ba1000d2af9f003fb29700c320dd0000f52100a8
:10ba20008080400091b79f004220dd0064005000fc
:10ba300080b79f006320b900f0af9f0063065000fd
:10ba400084003700dfaa97000500e00011003200f3
:10ba5000688066000f003a0000067800ffb097008b
:10ba600000022000a0000700e10f400003003200a8
:10ba70002fb097000000e800a0b79f000c06e80078
:10ba8000dfa89700810f5600f4ff3a000001eb0099
:10ba9000d2af9f00e18066000d18a3000c003200b9
:10baa000d00220000100e00001003a000080e9001f
:10bab000ffb097008c000700e10f4000d5ff320077
:10bac0002fb297000402e800a4b79f00d1ff37000f
:10bad0000100e000cfff3200ffb09700000220001d
:10bae00081000700e10f4000caff3200afb29700ab
:10baf0008502e800a5b79f00c6ff370000042000bc
:10bb0000efb09700808f50003100320003003c00fe
:10bb10000100e000080032003e003700000820006d
:10bb20006fb19700800f510011003200000c20000f
:10bb3000800f510037003a001fb097003002be005e
:10bb40002003be000800be000a01be00e5fb07009e
:10bb5000a4002000050020006033b800e8fb0700c7
:10bb600004c3b30004424000e4d79f00290037001b
:10bb700075a32500d5b79f000d58a30002003a0019
:10bb800080a42500d0b79f001400200005002000ed
:10bb90006033b8008fb097008100e90005003300e2
:10bba0000402d0008582d2000683d2008783d200af
:10bbb000f9ff37000800be000a01be00c9fb0700fc
:10bbc0006f0060005fb1970062407800100037009e
:10bbd00014002000050020006033b8000c0078003d
:10bbe0000000e900050033000402d0008582d20085
:10bbf0000683d2008783d200f9ff37000800be0019
:10bc00000a01be00b7fb0700674060000043b000b8
:10bc1000e0d79f00efd097000100fb00ffb0970036
:10bc200031000700e10f4000030032002fb1970000
:10bc30000201e800a2b79f001fb2970068025200fd
:10bc400094b79f008fb29700e482520085b79f009f
:10bc500063065600d0ff2f003fb197000090b90057
:10bc60007faa97000000420063005000800f56003a
:10bc7000a2ff3a000d38a30010003200dfaa97009f
:10bc80000500e0000d0034000006eb00ffb0970057
:10bc90000002200014000700e10f40000300320002
:10bca0002fb097000000e800a0b79f000c06e80046
:10bcb000dfa89700810f5600f4ff3a00be407800dd
:10bcc000e1d79f000104e0005dfd3a002fb097002e
:10bcd0004f0778004f06be004f05be004f04be0060
:10bce000ef01b10000000600889fbe00000178004f
:10bcf00001047800b10090000118a3003d0032005b
:10bd00000198a30003003a00180090000000e00032
:10bd100038003a000190a0003104980082047800b5
:10bd2000f90fb200180090000000e00002003a0095
:10bd300028009000000c7800ea8f540006003a00ba
:10bd4000380090000078a30003003a0088007800d3
:10bd5000d0002000e4ff07009800900058009000f9
:10bd6000808f50000b0032000100e80010049800a2
:10bd70001800780009587800000c780011c0b30052
:10bd800000d1250001487800ea8f540006003200f7
:10bd90001900370088007800094078001900070072
:10bda0008004780014003700380090000088a30059
:10bdb0001100320018019000a80090004800900087
:10bdc00088fa070098009000810f500004003200ac
:10bdd000380090000003b300300498008084eb002a
:10bde0000000eb001004980028009000000c780080
:10bdf000010037008084eb00090078004f04be008a
:10be0000000006000200fa00889fbe00a0ff9f000d
:10be100001047800b1009000810478000904b200a8
:10be2000020032000000fb00360037000118a300ba
:10be300005003a000103b30031049800190498008a
:10be40000080eb002f003700580090000000e00059
:10be500006003a004800900012002000e6805700db
:10be600060fa0700190498002400370028009000a9
:10be70000000e00008003a00c0d02500200498002f
:10be8000000c780020002000500498001004980056
:10be90000130a0003104980018019000a800900023
:10bea000480090004ffa070028009000000c78002e
:10beb0000080eb001004980018007800aff897009d
:10bec00001587800000c78002ff89700ea4f5000d6
:10bed0000a003a00380090000088a30007003200f2
:10bee00018019000a8009000480090003dfa07005b
:10bef00019049800a8009000010c7800aff8970092
:10bf00000100fb004f04be000080fa0000000600a4
:10bf10003600f800809fbe00829fbe00849fbe0056
:10bf2000869fbe008ec0a90082c4bf000068a30027
:10bf30001200320080c4bf000068a3000f0032006e
:10bf40000004200000248800a0de82000000e00041
:10bf50000a003200a0de82000000e900a0de8a00b4
:10bf6000a0de82000000e00004003a0082c4a900c4
:10bf700080de82000000e80080de8a008cc4bf0002
:10bf80000068a3000c0032008ac4bf000068a30050
:10bf9000090032008cc4a90000042000502488004d
:10bfa00081de820070005000808f500002003a0055
:10bfb0000010200090dd8a008cc4bf000008a300a0
:10bfc000080032008ac4bf000008a3000500320048
:10bfd00010002000502488008c04a9000000eb0011
:10bfe00090dd8a008cc4bf000038a300cf0032006f
:10bff0008ac4bf000038a300cc0032008cc4bf004c
:10c000000018a300080032008ac4bf000018a30073
:10c010000500320090de82003058900063406000de
:10c02000e14f5000c1003a00c0bc25001044a100ff
:10c0300092248000800020005024880094de82003a
:10c04000a4589000f0248000ef8060006f00600032
:10c05000808f5000b4003a00020078000238a3003c
:10c0600005003200c2c025000028a30006003a00e7
:10c0700082c025000400370042c025000028a3002c
:10c0800001003a0002c0250000c0230092006000b9
:10c0900000802000808f500037003a00f03f2000e1
:10c0a0001201600004089000940890000200400013
:10c0b000e0804800000a9800110a98000000eb0098
:10c0c000700a9800344090004300de006100600078
:10c0d0000004a2004300dd00b44090000134a10040
:10c0e00080c070003142980004589000f04f50001a
:10c0f000080032008458900000c2b30080cf500086
:10c1000004003200845890007040400080cf5000fe
:10c1100032003a00040990009409900074009000e5
:10c1200001002000800f5100818f59007e003900ee
:10c130006000b800000a9800110a98000a00370051
:10c14000040990009409900054009000e4009000cd
:10c15000800f5100818f59007300390034409000e6
:10c160000004a00030429800045890000040e8000d
:10c17000005a98006c00370000c02000808f5000eb
:10c180000300320000c02200808f50001b003a00e4
:10c19000f03f200012016000040890009408900015
:10c1a00002004000e0804800000a9800110a980050
:10c1b0000000eb00700a9800344090004300de005d
:10c1c000610060000004a2004300dd00b440900064
:10c1d0000134a10080c070003142980034589000b2
:10c1e00063406000e14f5000dcff320044009000eb
:10c1f000800f5100d9ff3900d1ff370000802200a5
:10c20000808f500021003a00344090000044a0008c
:10c2100030429800740890000000e800700a98000e
:10c220003458900063006000e10f5000cbff3200f3
:10c2300003003c000000e000080032003a00370034
:10c24000e20f500005003200e30f500036003a00c4
:10c25000245890000004e000c0ff350034409000f6
:10c260000058a30030003200f40890000410900041
:10c27000808f50002c003600244090000064a00005
:10c280002042980070c1b3000700370000802300ef
:10c29000808f50000a003a00244090000054a00013
:10c2a0002042980010c1b300405a980004589000f2
:10c2b00001cfb30001406000f040b300acff370095
:10c2c000a44090008140e800ffc06000244090003e
:10c2d00002ceb3000240600001407000204298008e
:10c2e000244090007f006000f30f50000e003400e7
:10c2f000244090000064a0002042980030c1b300a8
:10c30000405a98000458900001cfb30001406000eb
:10c31000f040b300005a9800f00f2000702488000d
:10c320002000200050248800f32107008cc4bf00a7
:10c330000028a3002c0032008ac4bf000028a300fc
:10c3400029003200400020005024880032de8200a4
:10c350001b003700220090000000e00017003200b0
:10c36000a00090000330200005102000f4ceb300a0
:10c37000100037005108900003006000830f500048
:10c3800002003200850f500006003a003100900094
:10c390000000e00003003200310090000000e900de
:10c3a000b00098003140900004406000b040980018
:10c3b000910078000100e000eeff3a0012017800e1
:10c3c0000200e000e3ff3a00c0bc25001004a10019
:10c3d0001014a1001024a1001034a100e0bc25001d
:10c3e00002487800c42107008cc4bf000018a300d5
:10c3f000440032008ac4bf000018a300410032008c
:10c40000c0bc25001044a10093de82003358900088
:10c4100063406000e14f500036003200a3409000be
:10c420008140e800ffc060002340900002ceb300ce
:10c430000240600001407000a0419800234090003d
:10c440007f006000f30f50002a0034008e44e200a9
:10c4500002003d0000c2b300c05998008ec4bf0066
:10c460000058a3000200320010c2b300c059980067
:10c470008ec4bf000048a3000200320020c2b300f7
:10c48000c05998008ec4bf000038a30002003200db
:10c4900030c2b300c05998008ec4bf000028a3006a
:10c4a0000200320040c2b300c05998008ec4bf00e1
:10c4b0000018a3000200320050c2b300c059980017
:10c4c0008ec4bf000008a3000200320060c2b300a7
:10c4d000c0599800234090000064a000a04198003b
:10c4e0000358900001cfb30001406000f040b3005a
:10c4f00080599800f00f2000702488002000200050
:10c50000502488004f03be004f02be004f01be0002
:10c510004f00be003600f900004006000040da007f
:04c520000000fe0019
:020000040000fa
:10a0000010510400000000008e62040000000000f7
:10a010008e620400000000008e6204000000000058
:10a020008e620400000000008e6204000000000048
:10a030008e62040000000000ee81040000000000b9
:10a040008e620400000000008e6204000000000028
:10a05000cc810400000000008e62040000000000bb
:10a060008e620400000000001ca10400000000003b
:10a070008e62040000000000988f040000000000c1
:10a080003a85040000000000a087040000000000e2
:10a0900026a20400000000008e6204000000000000
:10a0a000d48a0400000000008e620400000000005a
:10a0b00070ad0400000000008e620400000000008b
:10a0c0002281040000000000008104000000000064
:10a0d0008e620400000000008e6204000000000098
:10a0e0008e62040000000000907f04000000000069
:10a0f0008e620400000000005e8504000000000085
:10a100007e870400000000008e6204000000000052
:10a11000ba8f040000000000aa81040000000000c3
:10a120008881040000000000668104000000000037
:10a1300044810400000000008e6204000000000062
:10a140008e620400000000008e6204000000000027
:10a150008e620400000000008e6204000000000017
:10a160008e62040000000000f68a04000000000077
:10a170008e620400000000008e62040000000000f7
:10a180008e620400000000008e62040000000000e7
:10a190008e620400000000009ca10400000000008a
:10a1a0008e620400000000008e62040000000000c7
:10a1b0008e620400000000008285040000000000a0
:10a1c0005c870400000000008e62040000000000b4
:10a1d000188b0400000000008e62040000000000e4
:10a1e000a6850400000000003a870400000000007b
:10a1f0008e62040000000000dc8f040000000000fc
:10a200008e62040000000000de80040000000000f8
:10a210008e62040000000000885f0400000000005f
:020000040000fa
:10c5240010ff0000ff020000040300000c0b0000d9
:10c53400ff250000181700001619000014ff000062
:10c54400ffff0000ffff0000ffff0000ffff0000ef
:10c55400ffff0000ff1500001a1300001b1200006b
:10c564001cff00000d010000000600000708000089
:10c5740009ff0000ffff0000ff0e00001d0a00007d
:10c58400110000006a000000760000005e00000058
:10c59400800000007fff00006400000070000000c5
:10c5a40058000000800000007fff000064000000cd
:10c5b400700000005800000040000000bfff0000b1
:10c5c40068000000740000005c000000200000000f
:10c5d400dfff000068000000740000005c00000041
:10c5e40040000000bfff000068000000740000006d
:10c5f4005c000000800000007fff00006800000075
:10c60400740000005c00000000010000fffe000058
:10c6140068000000740000005c00000002000000dc
:10c62400fdff0000620000006e00000056000000e4
:10c6340002000000fdff0000620000006e00000028
:10c644005600000001000000feff0000680000002a
:10c65400740000005c00000004000000fbff000008
:10c6640068000000740000005c0000000800000086
:10c67400f7ff000068000000740000005c00000088
:10c6840010000000efff0000620000006e000000d8
:10c694005600000000200000ffdf000062000000e0
:10c6a4006e0000005600000000400000ffbf0000c4
:10c6b400620000006e0000005600000000800000d0
:10c6c400ff7f0000640000007000000058000000bc
:10c6d40001000000feff00006a0000007600000078
:10c6e4005e00000010000000efff00006a00000080
:10c6f400760000005e00000020000000dfff000064
:10c7040068000000740000005c00000000040000e9
:10c71400fffb000068000000740000005c000000e3
:10c7240000080000fff7000068000000740000002b
:10c734005c00000000100000ffef00006800000033
:10c74400740000005c00000000200000ffdf000017
:10c7540068000000740000005c000000004000005d
:10c76400ffbf000068000000740000005c000000cf
:10c7740000800000ff7f00006a00000076000000d7
:10c784005e00000001000000feff00006a000000df
:10c79400760000005e00000002000000fdff0000c3
:10c7a400620000006e00000056000000000100005e
:10c7b400fffe0000620000006e0000005600000052
:10c7c40000020000fffd0000620000006e00000097
:10c7d4005600000000040000fffb0000620000009f
:10c7e4006e0000005600000000080000fff7000083
:10c7f400620000006e00000056000000800000008f
:10c804007fff0000620000006e0000005600000080
:10c8140040000000bfff0000620000006e00000046
:10c824005600000020000000dfff0000620000004e
:10c834006e0000005600000010000000efff000032
:10c84400620000006e0000005600000008000000b6
:10c85400f7ff0000620000006e00000056000000b8
:10c8640004000000fbff00006400000070000000f2
:10c874005800000000010000fffe000064000000fa
:10c88400700000005800000000020000fffd0000de
:10c894006400000070000000580000000004000064
:10c8a400fffb00006400000070000000580000005e
:10c8b40000080000fff700006400000070000000a2
:10c8c4005800000000100000ffef000064000000aa
:10c8d400700000005800000000200000ffdf00008e
:10c8e40064000000700000005800000000400000d8
:10c8f400ffbf00006400000070000000580000004a
:10c9040000800000ff7f000066000000720000004d
:10c914005a00000001000000feff00006200000059
:10c924006e0000005600000000100000ffef000041
:10c9340064000000700000005800000002000000c5
:10c94400fdff0000640000007000000058000000bb
:10c9540004000000fbff0000e8020000ea040000fd
:10c96400ea020000ec020000ee0200001a1c0000c3
:10c97400021c00000e1c000008000000f7ff00006d
:10c98400d0020000e4040000d2020000d40200003f
:10c99400d6020000201c0000081c0000141c00002b
:10c9a40000100000ffef0000d0020000e4040000cb
:10c9b400d2020000d4020000d6020000201c0000b5
:10c9c400081c0000141c000000800000ff7f000011
:10c9d400d8020000e6040000da020000dc020000d5
:10c9e400de0200001e1c0000061c0000121c0000d9
:10c9f40000010000fffe0000d8020000e604000071
:10ca0400da020000dc020000de0200001e1c00004e
:10ca1400061c0000121c000000020000fffd0000c4
:10ca2400d8020000e6040000da020000dc02000084
:10ca3400de0200001e1c0000061c0000121c000088
:10ca440000040000fffb0000d8020000e604000020
:10ca5400da020000dc020000de0200001e1c0000fe
:10ca6400061c0000121c000000080000fff7000074
:10ca7400d8020000e6040000da020000dc02000034
:10ca8400de0200001e1c0000061c0000121c000038
:10ca940001000000feff0000d0020000e4040000da
:10caa400d2020000d4020000d6020000201c0000c4
:10cab400081c0000141c000000200000ffdf000020
:10cac400d0020000e4040000d2020000d4020000fe
:10cad400d6020000201c0000081c0000141c0000ea
:10cae40000400000ffbf0000d8020000e604000080
:10caf400da020000dc020000de0200001e1c00005e
:10cb0400061c0000121c000002000000fdff0000d3
:10cb1400d8020000e6040000da020000dc02000093
:10cb2400de0200001e1c0000061c0000121c000097
:10cb340004000000fbff0000d8020000e60400002f
:10cb4400da020000dc020000de0200001e1c00000d
:10cb5400061c0000121c000008000000f7ff000083
:10cb6400d8020000e6040000da020000dc02000043
:10cb7400de0200001e1c0000061c0000121c000047
:10cb840010000000efff0000d8020000e6040000df
:10cb9400da020000dc020000de0200001e1c0000bd
:10cba400061c0000121c000020000000dfff000033
:10cbb400d8020000e6040000da020000dc020000f3
:10cbc400de0200001e1c0000061c0000121c0000f7
:10cbd40040000000bfff0000d8020000e60400008f
:10cbe400da020000dc020000de0200001e1c00006d
:10cbf400061c0000121c0000800000007fff0000e3
:10cc0400e8020000ea040000ea020000ec0200006e
:10cc1400ee0200001a1c0000021c00000e1c0000a2
:10cc240001000000feff0000e8020000ea0400002a
:10cc3400ea020000ec020000ee0200001a1c0000f0
:10cc4400021c00000e1c000002000000fdff00009a
:10cc5400e002000000000000e2020000e402000024
:10cc6400e60200001c1c0000041c0000101c000054
:10cc740001000000feff0000e002000000000000d0
:10cc8400e2020000e4020000e60200001c1c0000b6
:10cc9400041c0000101c000002000000fdff000046
:10cca400e002000000000000e2020000e4020000d4
:10ccb400e60200001c1c0000041c0000101c000004
:10ccc40004000000fbff0000e00200000000000080
:10ccd400e2020000e4020000e60200001c1c000066
:10cce400041c0000101c000008000000f7ff0000f6
:10ccf400e002000000000000e2020000e402000084
:10cd0400e60200001c1c0000041c0000101c0000b3
:10cd140010000000efff0000e0020000000000002f
:10cd2400e2020000e4020000e60200001c1c000015
:10cd3400041c0000101c000020000000dfff0000a5
:10cd4400e002000000000000e2020000e402000033
:10cd5400e60200001c1c0000041c0000101c000063
:10cd640040000000bfff0000e002000000000000df
:10cd7400e2020000e4020000e60200001c1c0000c5
:10cd8400041c0000101c0000800000007fff000055
:10cd9400f0020000ec040000f2020000f4020000c3
:10cda400f6020000181c0000001c00000c1c00000f
:10cdb40040000000bfff0000f0020000ec0400008f
:10cdc400f2020000f4020000f6020000181c000049
:10cdd400001c00000c1c0000800000007fff00000d
:10cde400f0020000ec040000f2020000f402000073
:10cdf400f6020000181c0000001c00000c1c0000bf
:10ce040000010000fffe0000f0020000ec0400003e
:10ce1400f2020000f4020000f6020000181c0000f8
:10ce2400001c00000c1c000000020000fffd0000bc
:10ce3400c8020000e2040000ca020000cc020000a4
:10ce4400ce020000221c00000a1c0000161c000078
:10ce540020000000dfff0000c8020000e204000020
:10ce6400ca020000cc020000ce020000221c000016
:10ce74000a1c0000161c000010000000efff000058
:10ce8400c8020000e2040000ca020000cc02000054
:10ce9400ce020000221c00000a1c0000161c000028
:10cea40008000000f7ff0000c8020000e2040000d0
:10ceb400ca020000cc020000ce020000221c0000c6
:10cec4000a1c0000161c000004000000fbff000008
:10ced400c8020000e2040000ca020000cc02000004
:10cee400ce020000221c00000a1c0000161c0000d8
:10cef40002000000fdff0000c8020000e204000080
:10cf0400ca020000cc020000ce020000221c000075
:10cf14000a1c0000161c000001000000feff0000b7
:10cf2400c8020000e2040000ca020000cc020000b3
:10cf3400ce020000221c00000a1c0000161c000087
:10cf440040000000bfff0000c8020000e20400002f
:10cf5400ca020000cc020000ce020000221c000025
:10cf64000a1c0000161c0000800000007fff000067
:10cf7400c8020000e2040000ca020000cc02000063
:10cf8400ce020000221c00000a1c0000161c000037
:10cf940000010000fffe0000c8020000e2040000df
:10cfa400ca020000cc020000ce020000221c0000d5
:10cfb4000a1c0000161c000000020000fffd000017
:10cfc400c8020000e2040000ca020000cc02000013
:10cfd400ce020000221c00000a1c0000161c0000e7
:10cfe40000040000fffb0000c8020000e20400008f
:10cff400ca020000cc020000ce020000221c000085
:10d004000a1c0000161c000000080000fff70000c6
:10d01400c8020000e2040000ca020000cc020000c2
:10d02400ce020000221c00000a1c0000161c000096
:10d0340000100000ffef0000c8020000e20400003e
:10d04400ca020000cc020000ce020000221c000034
:10d054000a1c0000161c000000200000ffdf000076
:10d06400c8020000e2040000ca020000cc02000072
:10d07400ce020000221c00000a1c0000161c000046
:10d0840000400000ffbf0000c8020000e2040000ee
:10d09400ca020000cc020000ce020000221c0000e4
:10d0a4000a1c0000161c000000800000ff7f000026
:10d0b400e8020000ea040000ea020000ec020000ba
:10d0c400ee0200001a1c0000021c00000e1c0000ee
:10d0d40010000000efff0000e8020000ea04000076
:10d0e400ea020000ec020000ee0200001a1c00003c
:10d0f400021c00000e1c000020000000dfff0000e6
:10d10400050000000400000003000000020000000d
:10d1140001000000000000000600000007000000fd
:10d1240008000000090000000a0000000b000000d5
:10d134000c0000000d0000000e0000000f000000b5
:10d144002423000022210000201f000025260000c7
:10d1540027280000292a00002b2c00002d2e000077
:10d164002423000022210000201f000025260000a7
:10d1740027280000292a00002b2c00002d2e000057
:10d18400ffff0000ffff0000ffff0000ffff0000a3
:10d19400ffff0000ffff000001080000090200007b
:10d1a400070a00000b0c00000d0e00000f10000019
:10d1b4000304000005060000ffff0000ffff00005d
:10d1c400131400001516000017180000191a0000a7
:10d1d400ffff0000ffff0000ffff0000ffff000053
:10d1e40011120000ff0000002f300000ffff0000bc
:10d1f400ffff0000ffff0000ffff0000ffff000033
:10d20400ffff0000ffff0000ffff00001b1c0000e9
:10d214001d1e0000ffff0000ffff0000ffff0000d5
:10d2240000000000000000000000000000000000fa
:10d2340000000000000000000000000000000000ea
:10d244004e00000046f4000022e9000032310000e4
:10d254000000000045f4000028e90000320000004e
:10d2640044f4000030e9000043f4000030e9000019
:10d27400313200003100000048f400003ae90000b7
:10d28400313200000000000042f4000042e90000d6
:10d2940041f4000028e9000049f4000028e90000f6
:10d2a40042310000323100000000000047f4000069
:10d2b40052e90000423100000000000040f4000088
:10d2c4005ce900003400000031f4000064e900006f
:10d2d4005300000030f400006ae9000025f4000067
:10d2e40028e9000024f4000030e9000023f40000e1
:10d2f40030e90000323200000000000022f4000097
:10d304007ce9000021f4000028e90000423200001a
:10d314003200000026f4000088e9000042320000d8
:10d324000000000020f4000090e90000310000003b
:10d3340008f4000098e9000007f4000098e90000f0
:10d3440006f4000098e900000000000005f4000065
:10d35400a6e9000004f40000a6e9000003f40000bc
:10d3640098e9000002f4000098e9000001f40000cc
:10d37400a6e9000009100000a6e90000051000005d
:10d38400a6e9000003100000a6e900003131000006
:10d39400000000006d0c0000c8e900006c0c0000e7
:10d3a400a6e90000560c000098e900003145000091
:10d3b40000000000520c0000d8e90000450c0000f9
:10d3c40098e900004832000000000000370c00001b
:10d3d400e4e9000048000000360c0000ece900001d
:10d3e400323100003232000000000000330c000033
:10d3f400f2e900002a0c000098e90000290c000062
:10d40400a6e9000033000000240c000004ea000038
:10d41400200c000098e900001a0c000098e90000b4
:10d42400180c000030e90000130c000022e9000091
:10d43400120c00005ce90000030c0000a6e90000e7
:10d444003434000000000000010c000022ea000057
:10d454000d080000e4e900000c080000ece90000fd
:10d464000b0800005ce9000009080000ece900007a
:10d47400483100003134000034340000340000002e
:10d48400070800003aea0000483200003232000087
:10d49400320000000308000046ea000042000000d9
:10d4a4001a04000050ea000042310000313200004a
:10d4b400000000001904000056ea000015040000f2
:10d4c400ece90000483100000000000013040000f3
:10d4d40064ea000011040000ece900000e040000fe
:10d4e40050ea000042310000500000000d0400002a
:10d4f40074ea00000c04000050ea000042500000ee
:10d50400000000000b04000080ea00000a04000090
:10d514005ce90000090400005ce900000804000064
:10d5240050ea00000604000064ea000042320000f1
:10d534003131000032310000000000000504000019
:10d5440098ea000002040000a6e90000333100005c
:10d554003100000001040000a8ea0000009100006e
:10d56400e372000007960000e47500000e9f0000bf
:10d57400ed7c000009980000ea7b00001c8d00008f
:10d58400ff6e00001b8a0000f8690000128300008f
:10d59400f160000015840000f667000038a900005f
:10d5a400db4a00003fae0000dc4d000036a700005f
:10d5b400d544000031a00000d243000024b500008f
:10d5c400c756000023b20000c05100002abb00006f
:10d5d400c95800002dbc0000ce5f000070e10000bf
:10d5e4009302000077e60000940500007eef00003f
:10d5f4009d0c000079e800009a0b00006cfd00000f
:10d604008f1e00006bfa00008819000062f300000e
:10d614008110000065f400008617000048d900005e
:10d62400ab3a00004fde0000ac3d000046d70000de
:10d63400a534000041d00000a233000054c500000e
:10d64400b726000053c20000b02100005acb0000ee
:10d65400b92800005dcc0000be2f0000e07100007e
:10d6640003920000e776000004950000ee7f0000be
:10d674000d9c0000e97800000a9b0000fc6d00008e
:10d684001f8e0000fb6a000018890000f26300008e
:10d6940011800000f564000016870000d8490000de
:10d6a4003baa0000df4e00003cad0000d64700005e
:10d6b40035a40000d140000032a30000c45500008e
:10d6c40027b60000c352000020b10000ca5b00006e
:10d6d40029b80000cd5c00002ebf000090010000be
:10d6e40073e200009706000074e500009e0f00003e
:10d6f4007dec0000990800007aeb00008c1d00000e
:10d704006ffe00008b1a000068f90000821300000d
:10d7140061f000008514000066f70000a8390000dd
:10d724004bda0000af3e00004cdd0000a6370000dd
:10d7340045d40000a130000042d30000b42500000d
:10d7440057c60000b322000050c10000ba2b0000ed
:10d7540059c80000bd2c00005ecf00002530000039
:10d76400327800003a25000030320000783a000098
:10d7740025300000327800003a25000030320000e5
:10d78400783a000025300000327800003a25000085
:10d7940030320000780000000000000000000000ab
:10d7a4000000000010000000800000000080000065
:10d7b4005f9b000034fb00004e4900004c00000059
:10d7c400554900004e540000004900004e5400002a
:10d7d4000055000055490000440000005354000067
:10d7e400524900004e470000004200004f4f000025
:10d7f4004c00000044450000530000004445000074
:10d8040041000000555200004c000000deeb000017
:10d81400e2eb0000e7eb0000ebeb0000f0eb0000b4
:10d82400f7eb0000fceb000000ec000004ec00004f
:10d834002020000020200000007400007970000007
:10d844006520000025350000732000002825000015
:10d85400752900002c200000656c0000656d000037
:10d86400656e0000742000006c6500006e200000ee
:10d874002532000075200000002c000020760000f6
:10d88400616c0000756500003a200000006c000027
:10d89400656e00002025000075200000283000007f
:10d8a4007825000030320000782900000a000000ca
:10d8b4002c200000766100006c750000653a0000c1
:10d8c4002030000078250000303800006c7800001b
:10d8d4000a0000001c00000001000000010000001c
:10d8e400010200000000000000000000010100002f
:10d8f4000102000001020000020100000202000017
:10d90400020200000000000001010000010000000c
:10d9140004000000080100000101000001020000f1
:10d9240002030000030100000103000001020000e3
:10d9340002030000020100000400000003000000d4
:10d94400000000000102000002000000494f000036
:10d95400494f000030330000323600000000000060
:10d96400030500001c1e0000080b00002107000036
:10d974000a200000494f0000494f000030300000e9
:10d9840030330000004900004f4900004f300000d0
:10d994003030000032000000494f0000494f0000c1
:10d9a40030300000303100000000000000000000b2
:10d9b4003600000053000000110000001b000000ae
:10d9c4000000000000000000000000006f010000e3
:10d9d4002802000079000000b7000000a702000040
:10d9e400fd030000e000000053010000001c0000e3
:10d9f4000000000000080000000c0000030000000c
:10da040002000000230000002400000025000000a4
:10da14000100000001000000000000000000000000
:10da24000000000044000000323200000032000018
:10da340032320000320000003232000044000000a4
:10da440032320000324400000032000000000000c6
:10da54003c5300004053000048ef0000a2e10000e6
:10da6400d8f80000fcef0000eadf0000f4f8000042
:10da74004edf000030310000323300003435000046
:10da840036370000383900004142000043440000aa
:10da94004546000074630000703a0000343500000d
:10daa4003435000000000000001c0000000c0000e1
:10dab40000080000000400009d0000002500000094
:0cdac4000d00000055530000420000005f
:020000040000fa
:10dad0000200fa00889fbe008a9fbe008c1f78005b
:10dae00090dd8200e10f40000400320090dd8200f2
:10daf00080de8a000080eb0090dd8a0081de8200fb
:10db000000f020008080600000202000808f500006
:10db1000d101320006003e000100e0000e0032009c
:10db200000102000808f5000e9043a009100370077
:10db300000402000808f50008b0432000010b000a5
:10db4000808f5000ac04320000302000808f5000e5
:10db5000df043a000002370088de8200080fb200be
:10db6000f00f54005900320009022000890f5400c0
:10db7000600032000800e000d5043a00364007009b
:10db800040de82000808780083bc2500130078007e
:10db90001800980093007800314090000024a00005
:10dba000b040980093007800314090000014a0002d
:10dbb000b040980093007800314090000940700018
:10dbc000b0409800211c200040de82000110980027
:10dbd0000104200040de820041009800130178001b
:10dbe0006000b800000998001109980040de82002a
:10dbf00028589800130078000858980042de8200e8
:10dc000052089000f1cf2f000100600050099800e9
:10dc100080c0eb0040de82001158980031c0b30094
:10dc200060bd250001487800a0bb250008487800a9
:10dc3000b0bb250008487800c0bb25000848780024
:10dc400058de8a0038de8a0068de8a006824880090
:10dc5000f10f200051248800c00820008224b60063
:10dc60006f005000002488008824880071248800f8
:10dc700000c025004800de00c0248800810020008c
:10dc8000a1248800a0002000a0248800a1248800ee
:10dc90000003200030248800200020003025880068
:10dca00048258800b8248800aae4a900a004200020
:10dcb0000025880080de820001ff20000100600056
:10dcc0007000400080de8a008104370060bb2500c0
:10dcd00010407800614060007d04320080de8200e8
:10dce00001ff2000010060007000400080de8a001b
:10dcf000770437008040eb00c1f79f0020c3b300da
:10dd0000d0f79f0024002000050020006c81570000
:10dd10009106200000c0eb002d4607000000e00047
:10dd20000f00320010002000402488008ec0a9009f
:10dd3000f00f2f00ce20b60000502000ce20b700fc
:10dd40009ec0a80080de820001ff2000010060006c
:10dd50007000400080de8a008cc4a8005c0437009c
:10dd600060bb25001004a1000001200080de8a00b5
:10dd70005704370081de8200010fb200000220004c
:10dd8000808f50008d00320005003e000100e00051
:10dd90000a003200f08f50004d043a001f00370097
:10dda00000032000808f5000eb0032007000400024
:10ddb000808f500046043a002001370080de820048
:10ddc0006f00600003003200e20f500040043a0090
:10ddd0000c00370010002000502488008c04a8009c
:10dde000b00f2000a0de8a0000042000002488007c
:10ddf00082c4a80080de82000000e80080de8a0085
:10de00003304370080de820001ff20000100600043
:10de10007000400080de8a002d04370080de820022
:10de20006f046000e20f54004f003200e40f540012
:10de3000580032000800e00025043a0070dd82003e
:10de40000000e00002003200a5f4070078dd8a003f
:10de50008000200010f4070070dd8a000000e00060
:10de600006003a0030c3b300e1bb250080487800cb
:10de70000050200080de8a00150437008040eb004f
:10de8000a0bb250001487800b0bb25000148780000
:10de9000a3bc25000000eb008009780032c0b3006d
:10dea00071bd250082487800d100200051258800ee
:10deb00060258800702588008025880090258800ce
:10dec000a0258800b0258800c0258800d0258800be
:10ded000e0258800f02588000026880010268800ac
:10dee0002026880030268800402688009444e200de
:10def000080035001304a00000c8b300c1bb250012
:10df00008048780000082000b0248800aae4a80017
:10df100006003700a0bc25001004a100c0bb2500ee
:10df20000048eb009624ef00aae4a9009424a8007e
:10df30009424a900a0bc25001044a1001054a10005
:10df40009484a80030032000a0de8a006d00400009
:10df50000024880082c4a80080de82000000e8005f
:10df600080de8a00da0337009484a9009404a800b4
:10df7000b0002000a0de8a000004200000248800f9
:10df800082c4a80080de82000000e80080de8a00f3
:10df9000cf033700f000200060248800f00f20003d
:10dfa0008024880080de820001ff200001006000e4
:10dfb0007000400080de8a00c503370080de8200ea
:10dfc0006f006000e10f50002100320003003900b3
:10dfd000e20f5000be033a0034003700e0df820059
:10dfe0000000e000030032003df407000000eb00f9
:10dff000e0df8a0071dd820000c8b300804878004d
:10e0000060c0b300904098000041eb00a24098002f
:10e0100010c0b300b0409800c2409800d2409800b1
:10e0200080c0b300e0409800f240980084002000d7
:10e03000810178000401780040de82007938070011
:10e0400080de82000000e80080de8a00a003370046
:10e0500041de8200314090000018a3009c03320092
:10e06000314090000008a3000e00320070dd8200f5
:10e0700040409000e94f500006003a0050c3b30002
:10e08000e1bb2500804878000050200080de8a0037
:10e090008f03370080de82000000e80080de8a0007
:10e0a0008b0337008b3d07008903370070dd82004a
:10e0b0001080fb0078f3070080007800e0df8a0022
:10e0c0000000e00006003a0030c3b300e1bb2500c9
:10e0d000804878000050200080de8a007c033700f2
:10e0e00070dd820090487800f04090008180fb0055
:10e0f00042de820041019800f9f307000000eb00c6
:10e1000070dd8a0040de82004000900062f307006c
:10e1100070dd8a000000e00006003a0030c3b30062
:10e12000e1bb2500804878000050200080de8a0096
:10e130006703370031c0b30070bd25000148780087
:10e1400080de820001ff20000100600070004000be
:10e1500080de8a005e03370080de82006f00600090
:10e16000e10f50001f00320003003900e20f5000a1
:10e1700057033a0028003700c0bc25001040780043
:10e180007041600052033a0071dd820000c8b300a4
:10e190008048780060c0b30090409800a24098008a
:10e1a00010c0b300b0409800c2409800d240980020
:10e1b000e0df820010407800e0409800f2409800d4
:10e1c000e3df82001382fb008200200040de820039
:10e1d0001438070080de82000000e80080de8a003c
:10e1e0003b03370041de8200314090000018a3005d
:10e1f00037033200314090000008a30004003200d1
:10e2000080de82000000e80080de8a0030033700f4
:10e21000303d07002e03370031c0b30070bd25002c
:10e220000148780080de820001ff200001006000cc
:10e230007000400080de8a0025033700342d07007f
:10e2400080de820001f02000010060000010b000bc
:10e2500080de8a001e03370080de8200000fb200dd
:10e260001b033a0080de82006f006000e10f500067
:10e270001c00320003003900e20f500014033a0082
:10e2800025003700d3bb250010c0b30080497800bb
:10e2900071dd82000041eb008248780050c0b3007d
:10e2a0009040980093417800a3409800b2409800b5
:10e2b000c2409800d2409800e2409800f240980096
:10e2c0000002eb00840178008200200040de820022
:10e2d0005835070080de82000000e80080de8a00fa
:10e2e000fb02370041de8200314090000018a3009d
:10e2f000f7023200314090000008a3000400320011
:10e3000080de82000000e80080de8a00f002370034
:10e31000f03c0700ee023700a0bc2500104078005a
:10e32000614060004700dd00d2bb2500c1bb250075
:10e330009248700031c0b30070bd250001487800dc
:10e3400080de820001f02000010060000010b000bb
:10e3500080de8a00de02370081de8200010fb2001b
:10e3600000022000808f50008e00320005003e0029
:10e370000100e0000d003200f08f5000d4023a009e
:10e380002100370000042000808f50005a01320025
:10e3900070004000808f5000fd013200000320001b
:10e3a000808f5000ca023a00c6003700e1df8200c9
:10e3b00080bd250091509000014878000900370089
:10e3c000100490001000780045f3070020de820062
:10e3d0000008eb0049bc25001900780040f3070055
:10e3e000880c780020de82000000e000f4ff3a0094
:10e3f00080de820001ff200001006000700040000c
:10e4000080de8a00b202370080de82006f0060008a
:10e41000e10f50001d00320003003900e20f5000f0
:10e42000ab023a002600370071dd820000c8b3005d
:10e430008048780060c0b3009040980080bd2500ff
:10e440001040e900a040980020c0b300b040980000
:10e450000041eb00c2409800d240980080c0b30059
:10e46000e0409800f240980084002000810178008c
:10e470000401780040de82006a37070080de8200f7
:10e480000000e80080de8a009102370041de820051
:10e49000314090000018a3008d02320031409000fe
:10e4a0000008a3000400320080de82000000e800c3
:10e4b00080de8a0086023700863c0700840237002f
:10e4c0006000200074f207000000e00006003a003f
:10e4d00030c3b300e1bb2500804878000050200025
:10e4e00080de8a007a0237000004780071dd820045
:10e4f000314090004800dd00a14090008180fb0089
:10e500000100400064f2070000017800000c780070
:10e510000000e00008003a0008007800f0f2070070
:10e5200030c3b300e1bb25008048780000502000d4
:10e5300080de8a006602370070dd8200b040900005
:10e54000c808dd00204090000080fb008080400073
:10e5500021419800c808de003141980040bc2500e8
:10e5600090007800110498000808780018007800de
:10e57000f0df8a0080bd25001040780040449800fc
:10e5800031c0b30070bd25000148780080de8200f4
:10e5900001ff2000010060007000400080de8a0062
:10e5a0004b02370080de82006f006000e10f5000f8
:10e5b0002700320003003900e20f500044023a0005
:10e5c0003000370071dd820000c8b3008048780059
:10e5d00060c0b3009040980080bd25001040e90065
:10e5e000a040980020c0b300b04098000040eb006d
:10e5f000c0409800d040980020de820010007800d3
:10e6000020409000e040980020de8200100078005a
:10e6100030409000f040980020de820090017800a9
:10e62000234090000080fb00334290004822dd0030
:10e63000000272008200200040de8200f9360700ee
:10e6400080de82000000e80080de8a0020023700c1
:10e6500041de8200314090000018a3001c0232000d
:10e66000314090000008a3000400320080de8200e8
:10e670000000e80080de8a0015023700153c070024
:10e680001302370031c0b30070bd25000148780087
:10e6900080bd25009040e900014878000300320069
:10e6a0000031200080de8a000902370080de82000f
:10e6b00001ff2000010060007000400080de8a0041
:10e6c0000302370080de82006f006000e10f50001f
:10e6d0004200320005003900e20f500064003200b1
:10e6e000e30f5000fa013a006e0037007b34070058
:10e6f000a0bb2500104178000204e00010003a00a1
:10e7000021de820081dd8a000900370010007800d8
:10e71000f0df8a00a41507000000e0001a003a00ac
:10e720006e34070080dd82001000900080dd8a00da
:10e7300080dd82000000e000f4ff3a0012003700a4
:10e7400021de820081dd8a00010037009100900007
:10e750000100e0000300320041409000824f500071
:10e76000faff3a0081dd8a0091007800f1df8a002b
:10e770008d150700000478000000e00002003a0058
:10e780005634070088dd8a00a0bc250010407800c0
:10e79000644060000d00320080dd82000000e00077
:10e7a00006003a0080de820001ff200001006000c8
:10e7b0007000400080de8a00c501370080de8200e4
:10e7c0000000e80080de8a00c101370080de8200a0
:10e7d0000000e80080de8a00bd013700a0bc2500f3
:10e7e0009040780064c160001b003a001024a00033
:10e7f00071dd82008248780032c0b30092409800f8
:10e80000104078006840600002003200a24098008a
:10e810000200370040c0b300a04098000040eb0069
:10e82000b0409800c0409800d0409800e040980068
:10e83000f04098000002eb00840178008200200084
:10e8400040de8200fb33070080de82000000e8002b
:10e8500080de8a009e01370080de820001ff2000fa
:10e86000010060007000400080de8a0098013700df
:10e8700041de8200314090000018a3009401320074
:10e88000314090000008a3000400320080de8200c6
:10e890000000e80080de8a008d0137008d3b070014
:10e8a0008b01370030c0b30071bd2500804878006f
:10e8b00080dd82000000e00006003a0080de820079
:10e8c00001ff2000010060007000400080de8a002f
:10e8d0007f01370031c0b30070bd250001487800ca
:10e8e00080de820001ff2000010060007000400017
:10e8f00080de8a007601370080dd82000000e000c3
:10e900009d003a0080de82006f006000e20f500040
:10e910003e00320005003e000000e0000900320029
:10e92000e10f50006a013a001c003700e40f50006c
:10e930006c00320051003900e50f500064013a00cc
:10e940007d00370071dd820000ccb3008048780084
:10e9500030c3b300904098000041eb00a240980003
:10e96000b2409800c2409800d240980020c0b30046
:10e97000e0409800f24098002400200023bc2500cd
:10e980008200200040de82002636070080de820002
:10e990000000e80080de8a004d01370041de820081
:10e9a000314090000018a30049013200314090002e
:10e9b0000008a3000f00320020bc25001000e0007a
:10e9c00006003a0080de820001ff200001006000a6
:10e9d0007000400080de8a003d0137000000eb003f
:10e9e000a0dd8a0080de82000000e80080de8a0070
:10e9f0003701370080de820001ff20000100600047
:10ea00007000400080de8a003101370078dd82002e
:10ea100000c4b300004c78006c40500010449800d3
:10ea20000045eb002a4498003a449800a9dd820092
:10ea3000494498005a44980066064400898444007a
:10ea40004bc2210069807d00f6f00700004ee8000f
:10ea50007a4498001c82fb00e9817d00820020003e
:10ea60008800780040de82007233070080de82007a
:10ea70000000e80080de8a001501370041de8200d8
:10ea8000314090000018a300110132003140900085
:10ea90000008a3000d003200a0dd82000000e800a5
:10eaa000a0dd8a00e60f500004003a0080de8200fc
:10eab0000000e80080de8a000501370080de820069
:10eac0000000e90080de8a000101370080de82005c
:10ead00001ff2000010060007000400080de8a001d
:10eae000fb00370071dd820000c4b300804878006d
:10eaf0006b405000904098000040eb00a040980010
:10eb0000b0409800c0409800d0409800e040980085
:10eb1000f04098000002eb008401780082002000a1
:10eb200040de82004333070080de82000000e80000
:10eb300080de8a00e600370041de8200314090002e
:10eb40000018a300e2003200314090000008a3004a
:10eb5000030032000050200080de8a00dc00370015
:10eb600080de820001ff2000010060007000400094
:10eb700080de8a00d600370080de820001ff2000a0
:10eb8000010060007000400080de8a00d000370085
:10eb900080dd82000000e00006003a0040c3b300c0
:10eba000e1bb2500804878000050200080de8a000c
:10ebb000c700370080de82006f006000e10f500068
:10ebc0001c00320005003900e20f50002600320020
:10ebd000e30f5000be003a002a00370071dd8200ca
:10ebe0000041eb008248780090c0b300904098004c
:10ebf000a0bb250010407800a0409800b2409800cb
:10ec0000c2409800d2409800e2409800f24098003c
:10ec10000002eb00840178008200200040de8200c8
:10ec20000433070080de82000000e80080de8a00f6
:10ec3000a700370041de8200314090000018a30099
:10ec4000a3003200314090000008a300040032000d
:10ec500080de82000000e80080de8a009c00370031
:10ec60009c3a07009a00370031c0b30070bd250000
:10ec70000148780080de82000000e80080de8a0023
:10ec80009300370080de820001f020000100600068
:10ec90000010b00080de8a00a0bc250001c4b300d3
:10eca00010c0600016003200f0bb250090407800d4
:10ecb0000180fb004300dd0082a1250082014000ad
:10ecc000600379008002eb0084bb250023019000e3
:10ecd000b3019000d0bb2500104078000600010071
:10ece0000000e0007a003a0090c3b300e1bb2500c9
:10ecf000804878000050200080de8a0074003700d1
:10ed000038de820015003700f84090000180fb00db
:10ed10004300dd0082a125008201400060037900ec
:10ed20008802780084bb250023019000b301900085
:10ed3000d0bb250010407800060001000000e00074
:10ed400005003a0090c3b300e1bb2500804878007d
:10ed50000050200080de8a00180478000800e000df
:10ed6000e9ff3a005a00370080de8200000fb2004f
:10ed7000f00f500056003a0080de82006f00600005
:10ed8000e30f50000e003200e50f50001700320074
:10ed9000e10f50004e003a009444a80050012000ba
:10eda000a0de8a00000420000024880082c4a8009d
:10edb00080de82000000e80080de8a004400370028
:10edc0009444a9009404a800b0002000a0de8a00aa
:10edd000000420000024880082c4a80080de820095
:10ede0000000e80080de8a00390037000040200083
:10edf00080de8a003600370082de8200020fb20019
:10ee000033003a0080002000a0248800622488009b
:10ee1000f10f200051248800c00820008224b60091
:10ee20006f0050000024880082248800712488002c
:10ee30008c04a800e0bb25001041780040c3b3005b
:10ee4000c1c6b300804f51001500320007003e00dc
:10ee50008140e800e74f5100110032000040e90016
:10ee6000804f51000b003a000800370051c6b30034
:10ee700050c3b300804f510009003200644040008d
:10ee8000804f510003003a0004003700f1c6b30080
:10ee90000300370001c7b30001003700e1c6b3002b
:10eea0008180fb00140020000500200002bc25002a
:10eeb000d0bb250010407800c541070080de8200ed
:10eec00001ff2000010060007000400080de8a0029
:10eed0004f0678004f05be004f04be000080fa00c8
:04eee0000000060028
:020000040000fa
:10eee400889fbe008a9fbe008c1f78008002780035
:10eef4000105780082047800030678008405780010
:10ef0400ec1ce2001e003a0028042000184478009b
:10ef14000884fb004544de0042c0bf007f4060001f
:10ef24000054a00042e0b7009580fb00c0c62e004c
:10ef3400614178000241e8000281fb00850078000d
:10ef440040e22100ca1e0700090178008a00780007
:10ef540040e22100c61e07000b0178008c007800f7
:10ef640040e22100c21e070042c0bf004544dd004c
:10ef740042c0bf007f4060000840700042e0b7001c
:10ef84004f0678004f05be004f04be000000060087
:10ef94000200fa00889fbe000004780060e7800049
:10efa400e20f500036003200e10f500007003a0033
:10efb4002c1ee20005003a0008007800b340070068
:10efc4002000200060e788002d003700f0060700cd
:10efd400090c0700a6090700241907000800780097
:10efe400e53d07000000e000250032002104200078
:10eff400914078008180fb0042c0bf007f406000e8
:10f004000054a00042e0b700c50cde0081e7800098
:10f014000100e0000300320040e22100671e070007
:10f02400f03cef0002cf2100e680570040e22100cf
:10f03400c01e070080e780000000e0000a003400e2
:10f0440071e78000810f50000300340081e78800dd
:10f05400010178000100370082e78000dfb89700e3
:10f06400080078001a3d070042c0bf00c548dd0013
:10f0740042c0bf007f4060000140700042e0b70022
:10f084004f04be000080fa0000000600881f7800cc
:10f0940080017800ec1ce20016003a0028042000ed
:10f0a400184478000884fb004544de0042c0bf00d9
:10f0b4007f4060000054a00042e0b7009380fb0052
:10f0c400c0c62e00614178000241e8000281fb00c5
:10f0d4008300780040e22100651e070042c0bf00a3
:10f0e4004544dd0042c0bf007f406000084070001e
:10f0f40042e0b7004f0478000000060020ca210057
:10f10400e2ff3700889fbe008a9fbe00800478001b
:10f114000205be00ec1ce2002a0232002502370080
:10f12400f2e480006110b900800f5500818f5d000a
:10f134000d00390020ca2100a01cb4008900780009
:10f14400f8ee0700f2e48000828444006110b90004
:10f154000005550081855d0002007800a03cb400e4
:10f164009e3cef000900370020ca2100a01cb40017
:10f174000a01780089007800eaee07000a007800a6
:10f18400a03cb4009e3cb5006055b8009e1ce20053
:10f194000c023a00e0e48000e10f50000e0032005f
:10f1a40003003900e20f500006023a002c00370039
:10f1b40010002000e0e48800a2dcbf000080fb0017
:10f1c400a1c82e00e0c078000180fb00f0e48800b4
:10f1d4000104e000fb013a0020002000e0e4880084
:10f1e400a2dcbf00f14f500009003200f44f500080
:10f1f400150032008040eb00ee4f500014003a003e
:10f20400a3dcbf00f043b2008040e80010003700e8
:10f21400a4dcbf0006003b004600de006100600085
:10f2240051ca210091407800814040000800370015
:10f23400f2c3b300824060004600de00610060005b
:10f2440080c040000200370051ca2100914078007c
:10f254000180fb00f0e488000104e000d9013a00d9
:10f264000000eb00e0e4880011002000f1e48800d5
:10f2740000e58800a2dcbf000080fb000100200044
:10f28400fd0f5000e08f5800ca013e0000600100ed
:10f294001d0037002f003700780137003000370099
:10f2a4003c0037004600370052003700c1013700e8
:10f2b40062003700700037007f003700920037008b
:10f2c40062013700a400370097003700b800370008
:10f2d400fa003700c70037000c0137002c01370053
:10f2e40036013700b3013700670137007201370078
:10f2f4007301370074013700750137007e01370050
:10f3040094013700a701370031ca210091407800e9
:10f314008180fb00a4dcbf004800dd000101700017
:10f3240051ca2100914078008180fb00a6dcbf0017
:10f334004800dd008101700090f4240091f4240061
:10f34400800f5100818f59009a013a00010e070085
:10f354009c013700010e070068ff07009901370080
:10f3640032ca2100124178008280fb00c209de000b
:10f3740000032000808f51008e013c006101610078
:10f384008100d100e180600003007800ba0c07001e
:10f394008c01370031ca2100914078000180fb00c4
:10f3a4004201de0000032000800f510081013c0077
:10f3b400e1806000020078005a1a070081013700da
:10f3c40031ca2100914078000180fb004201de0037
:10f3d40000032000800f510076013c00e3806000b0
:10f3e400e28f500073013c0002007800570c0700c4
:10f3f4007401370032ca2100124178000280fb00f8
:10f404004200de0001032000810f500069013c002e
:10f414000208a3000100320038ff0700a3dcbf008c
:10f42400e10060000080fb004200de00821907005a
:10f43400a31cab0063013a002d013700a3dcbf001d
:10f4440080017800f303b20000032000808f510094
:10f4540058013c00a4dcbf00ef006000e88f5000be
:10f4640054013c000081fb004711de0003007800da
:10f47400900c07005301370031ca210091407800f5
:10f484004208de00ef016000e88f510049013c00b2
:10f4940063816000a4dcbf000080fb0051ca21002e
:10f4a40091407800c808dd00808070000300780077
:10f4b400f43107004301370032ca210012417800b9
:10f4c4008280fb000100d100ef016000e88f510051
:10f4d40038013c00610161004708de000000400083
:10f4e40000017100a4dcbf000080fb0051ca2100b0
:10f4f40091407800c808dd00808070000300780027
:10f50400c53107002f01370031ca2100914078002e
:10f5140000c3b30080cf500026013e000180fb00f1
:10f524002f0d07002701370031ca210091407800d0
:10f534000180fb004600de00e30f50001d013c008b
:10f5440001017800f203b2000201e80041ca21007f
:10f55400fa0507001b01370031ca210091407800e9
:10f564000180fb00c602de00e38f520011013c0063
:10f5740063826000e20f52000e013c00c201de0013
:10f584004301de0061016100a4dcbf000080fb00d8
:10f5940051ca210091407800c808dd0080807000c5
:10f5a400e181610005007800e206070005013700eb
:10f5b400a3dcbf0000027800f403b20000032000c3
:10f5c400800f5200fb003c00a4dcbf00e30060009d
:10f5d400e38f5000f7003c008081fb004619de00f9
:10f5e40061016100c719de00040078003b0c0700cc
:10f5f400f400370031ca2100914078000180fb00fb
:10f60400c603de00e28f5300ea003c0001037800e9
:10f61400f603b20000032000800f5300e5003c0015
:10f6240041ca210091407800f2c3b30002c06000d7
:10f634000040e8000104e000020035008041780049
:10f644000200370053ca2100934178000168a300e7
:10f6540003003a000082fb008000eb000900370041
:10f664000082fb00a4dcbf000080fb004700de003a
:10f674000080e80031ca210060c078000080fb00ef
:10f6840080005200a4dcbf000080fb004701de00c4
:10f694004600de00610060000001410050ca210004
:10f6a40000014100810278008381fb00860078001c
:10f6b40007007800ef0a0700c200370032ca2100b1
:10f6c400124178008280fb004508de006300600080
:10f6d400e20f5000b7003c0045ca21009542780073
:10f6e4008581fb000302d100c219de0067016100bd
:10f6f400c308de00e3806000e18262006102620010
:10f70400e18161007c0b0700ae00370041ca210093
:10f71400914078004208de0063016000e20f51006e
:10f72400a4003c00814178007cc06000e44f50009c
:10f7340005003200a3dcbf00f003b2000103200087
:10f74400810f50009b003c000348a30003003a00d3
:10f754006cc06100e44f500004003a00a4dcbf0018
:10f7640063006000e20f500092003c0041ca210097
:10f7740091407800c409de00e3806000a3dcbf0090
:10f78400f003b200e1816100ad0c07008d00370089
:10f7940031ca21009140780063806000e20f50007c
:10f7a40084003c008180fb004709de00c508de00c0
:10f7b400e3806000e108070082003700a3dcbf009b
:10f7c400e3026000e28f52007a003c0000417800be
:10f7d4000258a3000800320041ca21009140780079
:10f7e400c808dd004510de006600600080807000ff
:10f7f400010fb3000b00370000ccb30000406100e0
:10f804006c003a00a4dcbf008080fb000078a300f9
:10f8140068003a004208de00fe4f500065003200e6
:10f824008180400064ca2100144278000482fb00f5
:10f8340053ca2100934178008381fb0072ca2100de
:10f8440005007800270807005e00370031ca210050
:10f854009140780001017800f203b2000003200017
:10f86400800f510053003c008180fb00c708de007c
:10f87400020078002f1307005200370030ca21001d
:10f88400ea0c07004f00370033ca21009341780087
:10f894008381fb0042ca2100124178004811dd0037
:10f8a4000300710052ca2100124178008280fb00db
:10f8b4006c17070043003700181707004100370092
:10f8c4002d1707003f003700b41607003d0037002e
:10f8d400a31cab000100320008fe0700a3dcbf003c
:10f8e40061006000ba160700a31cab0035003a00a3
:10f8f40002fe070033003700a3dcbf006f02600084
:10f90400e80f52002b003c00a45ce20002003d0022
:10f914000408a30027003a0043ca21009341780059
:10f924008380fb004308de0067016000e50f51009f
:10f9340020003c0063806100e30f50001d003c0088
:10f94400c708de0080017800040078003d0307004a
:10f954001c003700a4dcbf00ef016000e88f5100f9
:10f9640014003c000004e00005003d00a3dcbf00df
:10f97400f003b20001032000810f50000d003c0091
:10f9840042ca2100124178000281fb004711de00c7
:10f99400a3dcbf00f003b20083007800980b0700db
:10f9a40008003700d5fd07001000200060e788003c
:10f9b400040037000000eb000600370010002000b0
:10f9c40004003700e00f5500e08f5d00d4fd3a00dd
:10f9d400faff37004f05be004f04be0000000600ca
:10f9e4001e00fa00881f78000004eb0088e78800f6
:10f9f40008e5880011002000f1e48800e8e48800ac
:10fa040068f1880048f1880058f188004f3f0700ea
:10fa140070e7880068e7880088e79f00f30f2000fc
:10fa24000fb0970003006000029024008200700071
:10fa340081b79f0004f02f001fb0970004006000fe
:10fa4400f104200001007000030060000200700057
:10fa540090b79f002fb09700040060000100700071
:10fa6400a0b79f0008027800830020007b81570024
:10fa740000f824000110200028eb07000802780099
:10fa8400830020007381570080f8240001102000b7
:10fa940022eb07006b80570081ca2e000700090083
:10faa400315878008000b10000fe2f000f004000a4
:10fab40076fd07004f0478000080fa00000006007d
